{
	"contracts/goodhiveContractForJob.sol": {
		"GoodhiveJobContract": {
			"abi": [
				{
					"anonymous": false,
					"inputs": [
						{
							"indexed": true,
							"internalType": "address",
							"name": "recipient",
							"type": "address"
						},
						{
							"indexed": false,
							"internalType": "uint256",
							"name": "amount",
							"type": "uint256"
						}
					],
					"name": "AllFundsWithdrawn",
					"type": "event"
				},
				{
					"anonymous": false,
					"inputs": [
						{
							"indexed": false,
							"internalType": "uint256",
							"name": "total",
							"type": "uint256"
						}
					],
					"name": "Allowence",
					"type": "event"
				},
				{
					"anonymous": false,
					"inputs": [
						{
							"indexed": false,
							"internalType": "bool",
							"name": "",
							"type": "bool"
						}
					],
					"name": "FailedToPayTheFees",
					"type": "event"
				},
				{
					"anonymous": false,
					"inputs": [
						{
							"indexed": true,
							"internalType": "uint128",
							"name": "jobId",
							"type": "uint128"
						},
						{
							"indexed": true,
							"internalType": "address",
							"name": "sender",
							"type": "address"
						},
						{
							"indexed": false,
							"internalType": "uint256",
							"name": "amount",
							"type": "uint256"
						}
					],
					"name": "JobCreated",
					"type": "event"
				},
				{
					"anonymous": false,
					"inputs": [
						{
							"indexed": true,
							"internalType": "address",
							"name": "recipient",
							"type": "address"
						},
						{
							"indexed": false,
							"internalType": "uint256",
							"name": "amount",
							"type": "uint256"
						}
					],
					"name": "PayFees",
					"type": "event"
				},
				{
					"inputs": [
						{
							"internalType": "uint128",
							"name": "jobId",
							"type": "uint128"
						}
					],
					"name": "checkBalance",
					"outputs": [
						{
							"internalType": "uint256",
							"name": "",
							"type": "uint256"
						}
					],
					"stateMutability": "view",
					"type": "function"
				},
				{
					"inputs": [
						{
							"internalType": "uint128",
							"name": "jobId",
							"type": "uint128"
						},
						{
							"internalType": "uint256",
							"name": "amount",
							"type": "uint256"
						},
						{
							"internalType": "address",
							"name": "token",
							"type": "address"
						}
					],
					"name": "createJob",
					"outputs": [],
					"stateMutability": "payable",
					"type": "function"
				},
				{
					"inputs": [
						{
							"internalType": "uint128",
							"name": "jobId",
							"type": "uint128"
						}
					],
					"name": "getJob",
					"outputs": [
						{
							"internalType": "address",
							"name": "user",
							"type": "address"
						},
						{
							"internalType": "uint256",
							"name": "amount",
							"type": "uint256"
						},
						{
							"internalType": "address",
							"name": "token",
							"type": "address"
						}
					],
					"stateMutability": "view",
					"type": "function"
				},
				{
					"inputs": [
						{
							"internalType": "uint128",
							"name": "",
							"type": "uint128"
						}
					],
					"name": "jobs",
					"outputs": [
						{
							"internalType": "address",
							"name": "user",
							"type": "address"
						},
						{
							"internalType": "uint256",
							"name": "amount",
							"type": "uint256"
						},
						{
							"internalType": "address",
							"name": "token",
							"type": "address"
						}
					],
					"stateMutability": "view",
					"type": "function"
				},
				{
					"inputs": [],
					"name": "myAddress",
					"outputs": [
						{
							"internalType": "address",
							"name": "",
							"type": "address"
						}
					],
					"stateMutability": "view",
					"type": "function"
				},
				{
					"inputs": [
						{
							"internalType": "uint128",
							"name": "jobId",
							"type": "uint128"
						},
						{
							"internalType": "uint256",
							"name": "amount",
							"type": "uint256"
						}
					],
					"name": "sendTheFees",
					"outputs": [],
					"stateMutability": "nonpayable",
					"type": "function"
				},
				{
					"inputs": [
						{
							"internalType": "uint128",
							"name": "jobId",
							"type": "uint128"
						}
					],
					"name": "withdrawAllFunds",
					"outputs": [],
					"stateMutability": "nonpayable",
					"type": "function"
				},
				{
					"inputs": [
						{
							"internalType": "uint128",
							"name": "jobId",
							"type": "uint128"
						},
						{
							"internalType": "uint256",
							"name": "amount",
							"type": "uint256"
						}
					],
					"name": "withdrawFunds",
					"outputs": [],
					"stateMutability": "nonpayable",
					"type": "function"
				}
			],
			"devdoc": {
				"kind": "dev",
				"methods": {},
				"version": 1
			},
			"evm": {
				"assembly": "    /* \"contracts/goodhiveContractForJob.sol\":578:4905  contract GoodhiveJobContract {... */\n  mstore(0x40, 0x80)\n    /* \"contracts/goodhiveContractForJob.sol\":642:684  0x3c499c542cEF5E3811e1192ce70d8cC03d5c3359 */\n  0x3c499c542cef5e3811e1192ce70d8cc03d5c3359\n    /* \"contracts/goodhiveContractForJob.sol\":613:684  address internal usdctoken = 0x3c499c542cEF5E3811e1192ce70d8cC03d5c3359 */\n  0x00\n  dup1\n  0x0100\n  exp\n  dup2\n  sload\n  dup2\n  0xffffffffffffffffffffffffffffffffffffffff\n  mul\n  not\n  and\n  swap1\n  dup4\n  0xffffffffffffffffffffffffffffffffffffffff\n  and\n  mul\n  or\n  swap1\n  sstore\n  pop\n    /* \"contracts/goodhiveContractForJob.sol\":718:760  0x8f3Cf7ad23Cd3CaDbD9735AFf958023239c6A063 */\n  0x8f3cf7ad23cd3cadbd9735aff958023239c6a063\n    /* \"contracts/goodhiveContractForJob.sol\":690:760  address internal daitoken = 0x8f3Cf7ad23Cd3CaDbD9735AFf958023239c6A063 */\n  0x01\n  exp(0x0100, 0x00)\n  dup2\n  sload\n  dup2\n  0xffffffffffffffffffffffffffffffffffffffff\n  mul\n  not\n  and\n  swap1\n  dup4\n  0xffffffffffffffffffffffffffffffffffffffff\n  and\n  mul\n  or\n  swap1\n  sstore\n  pop\n    /* \"contracts/goodhiveContractForJob.sol\":791:833  0xE0B52e49357Fd4DAf2c15e02058DCE6BC0057db4 */\n  0xe0b52e49357fd4daf2c15e02058dce6bc0057db4\n    /* \"contracts/goodhiveContractForJob.sol\":766:833  address internal ageur = 0xE0B52e49357Fd4DAf2c15e02058DCE6BC0057db4 */\n  0x02\n  exp(0x0100, 0x00)\n  dup2\n  sload\n  dup2\n  0xffffffffffffffffffffffffffffffffffffffff\n  mul\n  not\n  and\n  swap1\n  dup4\n  0xffffffffffffffffffffffffffffffffffffffff\n  and\n  mul\n  or\n  swap1\n  sstore\n  pop\n    /* \"contracts/goodhiveContractForJob.sol\":868:910  0x4d0B6356605e6FA95c025a6f6092ECcf0Cf4317b */\n  0x4d0b6356605e6fa95c025a6f6092eccf0cf4317b\n    /* \"contracts/goodhiveContractForJob.sol\":839:910  address internal eurotoken = 0x4d0B6356605e6FA95c025a6f6092ECcf0Cf4317b */\n  0x03\n  exp(0x0100, 0x00)\n  dup2\n  sload\n  dup2\n  0xffffffffffffffffffffffffffffffffffffffff\n  mul\n  not\n  and\n  swap1\n  dup4\n  0xffffffffffffffffffffffffffffffffffffffff\n  and\n  mul\n  or\n  swap1\n  sstore\n  pop\n    /* \"contracts/goodhiveContractForJob.sol\":942:984  0x92ED8F6A9211F9eb0F16c83A052E75099B7bf4A5 */\n  0x92ed8f6a9211f9eb0f16c83a052e75099b7bf4a5\n    /* \"contracts/goodhiveContractForJob.sol\":917:984  address internal owner = 0x92ED8F6A9211F9eb0F16c83A052E75099B7bf4A5 */\n  0x04\n  exp(0x0100, 0x00)\n  dup2\n  sload\n  dup2\n  0xffffffffffffffffffffffffffffffffffffffff\n  mul\n  not\n  and\n  swap1\n  dup4\n  0xffffffffffffffffffffffffffffffffffffffff\n  and\n  mul\n  or\n  swap1\n  sstore\n  pop\n    /* \"contracts/goodhiveContractForJob.sol\":578:4905  contract GoodhiveJobContract {... */\n  callvalue\n  dup1\n  iszero\n  tag_1\n  jumpi\n  0x00\n  dup1\n  revert\ntag_1:\n  pop\n  dataSize(sub_0)\n  dup1\n  dataOffset(sub_0)\n  0x00\n  codecopy\n  0x00\n  return\nstop\n\nsub_0: assembly {\n        /* \"contracts/goodhiveContractForJob.sol\":578:4905  contract GoodhiveJobContract {... */\n      mstore(0x40, 0x80)\n      jumpi(tag_1, lt(calldatasize, 0x04))\n      shr(0xe0, calldataload(0x00))\n      dup1\n      0x48897093\n      gt\n      tag_10\n      jumpi\n      dup1\n      0x48897093\n      eq\n      tag_6\n      jumpi\n      dup1\n      0xadd930b5\n      eq\n      tag_7\n      jumpi\n      dup1\n      0xd85fbdf4\n      eq\n      tag_8\n      jumpi\n      dup1\n      0xde23b93c\n      eq\n      tag_9\n      jumpi\n      jump(tag_1)\n    tag_10:\n      dup1\n      0x014df73b\n      eq\n      tag_2\n      jumpi\n      dup1\n      0x1fcae771\n      eq\n      tag_3\n      jumpi\n      dup1\n      0x26b85ee1\n      eq\n      tag_4\n      jumpi\n      dup1\n      0x27738061\n      eq\n      tag_5\n      jumpi\n    tag_1:\n      0x00\n      dup1\n      revert\n        /* \"contracts/goodhiveContractForJob.sol\":1084:1119  mapping(uint128 => Job) public jobs */\n    tag_2:\n      callvalue\n      dup1\n      iszero\n      tag_11\n      jumpi\n      0x00\n      dup1\n      revert\n    tag_11:\n      pop\n      tag_12\n      0x04\n      dup1\n      calldatasize\n      sub\n      dup2\n      add\n      swap1\n      tag_13\n      swap2\n      swap1\n      tag_14\n      jump\t// in\n    tag_13:\n      tag_15\n      jump\t// in\n    tag_12:\n      mload(0x40)\n      tag_16\n      swap4\n      swap3\n      swap2\n      swap1\n      tag_17\n      jump\t// in\n    tag_16:\n      mload(0x40)\n      dup1\n      swap2\n      sub\n      swap1\n      return\n        /* \"contracts/goodhiveContractForJob.sol\":4034:4557  function withdrawAllFunds(uint128 jobId) external {... */\n    tag_3:\n      callvalue\n      dup1\n      iszero\n      tag_18\n      jumpi\n      0x00\n      dup1\n      revert\n    tag_18:\n      pop\n      tag_19\n      0x04\n      dup1\n      calldatasize\n      sub\n      dup2\n      add\n      swap1\n      tag_20\n      swap2\n      swap1\n      tag_14\n      jump\t// in\n    tag_20:\n      tag_21\n      jump\t// in\n    tag_19:\n      stop\n        /* \"contracts/goodhiveContractForJob.sol\":4563:4651  function myAddress() external view returns(address){... */\n    tag_4:\n      callvalue\n      dup1\n      iszero\n      tag_22\n      jumpi\n      0x00\n      dup1\n      revert\n    tag_22:\n      pop\n      tag_23\n      tag_24\n      jump\t// in\n    tag_23:\n      mload(0x40)\n      tag_25\n      swap2\n      swap1\n      tag_26\n      jump\t// in\n    tag_25:\n      mload(0x40)\n      dup1\n      swap2\n      sub\n      swap1\n      return\n        /* \"contracts/goodhiveContractForJob.sol\":4709:4903  function getJob(uint128 jobId) external view returns (address user, uint256 amount, address token) {... */\n    tag_5:\n      callvalue\n      dup1\n      iszero\n      tag_27\n      jumpi\n      0x00\n      dup1\n      revert\n    tag_27:\n      pop\n      tag_28\n      0x04\n      dup1\n      calldatasize\n      sub\n      dup2\n      add\n      swap1\n      tag_29\n      swap2\n      swap1\n      tag_14\n      jump\t// in\n    tag_29:\n      tag_30\n      jump\t// in\n    tag_28:\n      mload(0x40)\n      tag_31\n      swap4\n      swap3\n      swap2\n      swap1\n      tag_17\n      jump\t// in\n    tag_31:\n      mload(0x40)\n      dup1\n      swap2\n      sub\n      swap1\n      return\n        /* \"contracts/goodhiveContractForJob.sol\":2590:2701  function checkBalance(uint128 jobId) external view returns (uint256) {... */\n    tag_6:\n      callvalue\n      dup1\n      iszero\n      tag_32\n      jumpi\n      0x00\n      dup1\n      revert\n    tag_32:\n      pop\n      tag_33\n      0x04\n      dup1\n      calldatasize\n      sub\n      dup2\n      add\n      swap1\n      tag_34\n      swap2\n      swap1\n      tag_14\n      jump\t// in\n    tag_34:\n      tag_35\n      jump\t// in\n    tag_33:\n      mload(0x40)\n      tag_36\n      swap2\n      swap1\n      tag_37\n      jump\t// in\n    tag_36:\n      mload(0x40)\n      dup1\n      swap2\n      sub\n      swap1\n      return\n        /* \"contracts/goodhiveContractForJob.sol\":1481:2523  function createJob(uint128 jobId, uint256 amount, address token) external payable {... */\n    tag_7:\n      tag_38\n      0x04\n      dup1\n      calldatasize\n      sub\n      dup2\n      add\n      swap1\n      tag_39\n      swap2\n      swap1\n      tag_40\n      jump\t// in\n    tag_39:\n      tag_41\n      jump\t// in\n    tag_38:\n      stop\n        /* \"contracts/goodhiveContractForJob.sol\":3450:4028  function withdrawFunds(uint128 jobId, uint256 amount) external {... */\n    tag_8:\n      callvalue\n      dup1\n      iszero\n      tag_42\n      jumpi\n      0x00\n      dup1\n      revert\n    tag_42:\n      pop\n      tag_43\n      0x04\n      dup1\n      calldatasize\n      sub\n      dup2\n      add\n      swap1\n      tag_44\n      swap2\n      swap1\n      tag_45\n      jump\t// in\n    tag_44:\n      tag_46\n      jump\t// in\n    tag_43:\n      stop\n        /* \"contracts/goodhiveContractForJob.sol\":2707:3374  function sendTheFees(uint128 jobId, uint256 amount) external {... */\n    tag_9:\n      callvalue\n      dup1\n      iszero\n      tag_47\n      jumpi\n      0x00\n      dup1\n      revert\n    tag_47:\n      pop\n      tag_48\n      0x04\n      dup1\n      calldatasize\n      sub\n      dup2\n      add\n      swap1\n      tag_49\n      swap2\n      swap1\n      tag_45\n      jump\t// in\n    tag_49:\n      tag_50\n      jump\t// in\n    tag_48:\n      stop\n        /* \"contracts/goodhiveContractForJob.sol\":1084:1119  mapping(uint128 => Job) public jobs */\n    tag_15:\n      mstore(0x20, 0x05)\n      dup1\n      0x00\n      mstore\n      keccak256(0x00, 0x40)\n      0x00\n      swap2\n      pop\n      swap1\n      pop\n      dup1\n      0x00\n      add\n      0x00\n      swap1\n      sload\n      swap1\n      0x0100\n      exp\n      swap1\n      div\n      0xffffffffffffffffffffffffffffffffffffffff\n      and\n      swap1\n      dup1\n      0x01\n      add\n      sload\n      swap1\n      dup1\n      0x02\n      add\n      0x00\n      swap1\n      sload\n      swap1\n      0x0100\n      exp\n      swap1\n      div\n      0xffffffffffffffffffffffffffffffffffffffff\n      and\n      swap1\n      pop\n      dup4\n      jump\t// out\n        /* \"contracts/goodhiveContractForJob.sol\":4034:4557  function withdrawAllFunds(uint128 jobId) external {... */\n    tag_21:\n        /* \"contracts/goodhiveContractForJob.sol\":4125:4126  0 */\n      0x00\n        /* \"contracts/goodhiveContractForJob.sol\":4097:4127  jobs[jobId].user != address(0) */\n      0xffffffffffffffffffffffffffffffffffffffff\n      and\n        /* \"contracts/goodhiveContractForJob.sol\":4097:4101  jobs */\n      0x05\n        /* \"contracts/goodhiveContractForJob.sol\":4097:4108  jobs[jobId] */\n      0x00\n        /* \"contracts/goodhiveContractForJob.sol\":4102:4107  jobId */\n      dup4\n        /* \"contracts/goodhiveContractForJob.sol\":4097:4108  jobs[jobId] */\n      0xffffffffffffffffffffffffffffffff\n      and\n      0xffffffffffffffffffffffffffffffff\n      and\n      dup2\n      mstore\n      0x20\n      add\n      swap1\n      dup2\n      mstore\n      0x20\n      add\n      0x00\n      keccak256\n        /* \"contracts/goodhiveContractForJob.sol\":4097:4113  jobs[jobId].user */\n      0x00\n      add\n      0x00\n      swap1\n      sload\n      swap1\n      0x0100\n      exp\n      swap1\n      div\n      0xffffffffffffffffffffffffffffffffffffffff\n      and\n        /* \"contracts/goodhiveContractForJob.sol\":4097:4127  jobs[jobId].user != address(0) */\n      0xffffffffffffffffffffffffffffffffffffffff\n      and\n      eq\n      iszero\n        /* \"contracts/goodhiveContractForJob.sol\":4097:4161  jobs[jobId].user != address(0) && jobs[jobId].user != msg.sender */\n      dup1\n      iszero\n      tag_52\n      jumpi\n      pop\n        /* \"contracts/goodhiveContractForJob.sol\":4151:4161  msg.sender */\n      caller\n        /* \"contracts/goodhiveContractForJob.sol\":4131:4161  jobs[jobId].user != msg.sender */\n      0xffffffffffffffffffffffffffffffffffffffff\n      and\n        /* \"contracts/goodhiveContractForJob.sol\":4131:4135  jobs */\n      0x05\n        /* \"contracts/goodhiveContractForJob.sol\":4131:4142  jobs[jobId] */\n      0x00\n        /* \"contracts/goodhiveContractForJob.sol\":4136:4141  jobId */\n      dup4\n        /* \"contracts/goodhiveContractForJob.sol\":4131:4142  jobs[jobId] */\n      0xffffffffffffffffffffffffffffffff\n      and\n      0xffffffffffffffffffffffffffffffff\n      and\n      dup2\n      mstore\n      0x20\n      add\n      swap1\n      dup2\n      mstore\n      0x20\n      add\n      0x00\n      keccak256\n        /* \"contracts/goodhiveContractForJob.sol\":4131:4147  jobs[jobId].user */\n      0x00\n      add\n      0x00\n      swap1\n      sload\n      swap1\n      0x0100\n      exp\n      swap1\n      div\n      0xffffffffffffffffffffffffffffffffffffffff\n      and\n        /* \"contracts/goodhiveContractForJob.sol\":4131:4161  jobs[jobId].user != msg.sender */\n      0xffffffffffffffffffffffffffffffffffffffff\n      and\n      eq\n      iszero\n        /* \"contracts/goodhiveContractForJob.sol\":4097:4161  jobs[jobId].user != address(0) && jobs[jobId].user != msg.sender */\n    tag_52:\n        /* \"contracts/goodhiveContractForJob.sol\":4094:4242  if(jobs[jobId].user != address(0) && jobs[jobId].user != msg.sender){... */\n      iszero\n      tag_53\n      jumpi\n        /* \"contracts/goodhiveContractForJob.sol\":4184:4189  false */\n      0x00\n        /* \"contracts/goodhiveContractForJob.sol\":4176:4231  require(false, \"You are not allowed to use this jobid\") */\n      tag_54\n      jumpi\n      mload(0x40)\n      0x08c379a000000000000000000000000000000000000000000000000000000000\n      dup2\n      mstore\n      0x04\n      add\n      tag_55\n      swap1\n      tag_56\n      jump\t// in\n    tag_55:\n      mload(0x40)\n      dup1\n      swap2\n      sub\n      swap1\n      revert\n    tag_54:\n        /* \"contracts/goodhiveContractForJob.sol\":4094:4242  if(jobs[jobId].user != address(0) && jobs[jobId].user != msg.sender){... */\n    tag_53:\n        /* \"contracts/goodhiveContractForJob.sol\":4251:4268  ERC20Token _Token */\n      0x00\n        /* \"contracts/goodhiveContractForJob.sol\":4282:4286  jobs */\n      0x05\n        /* \"contracts/goodhiveContractForJob.sol\":4282:4293  jobs[jobId] */\n      0x00\n        /* \"contracts/goodhiveContractForJob.sol\":4287:4292  jobId */\n      dup4\n        /* \"contracts/goodhiveContractForJob.sol\":4282:4293  jobs[jobId] */\n      0xffffffffffffffffffffffffffffffff\n      and\n      0xffffffffffffffffffffffffffffffff\n      and\n      dup2\n      mstore\n      0x20\n      add\n      swap1\n      dup2\n      mstore\n      0x20\n      add\n      0x00\n      keccak256\n        /* \"contracts/goodhiveContractForJob.sol\":4282:4299  jobs[jobId].token */\n      0x02\n      add\n      0x00\n      swap1\n      sload\n      swap1\n      0x0100\n      exp\n      swap1\n      div\n      0xffffffffffffffffffffffffffffffffffffffff\n      and\n        /* \"contracts/goodhiveContractForJob.sol\":4251:4300  ERC20Token _Token = ERC20Token(jobs[jobId].token) */\n      swap1\n      pop\n        /* \"contracts/goodhiveContractForJob.sol\":4310:4324  uint256 amount */\n      0x00\n        /* \"contracts/goodhiveContractForJob.sol\":4327:4331  jobs */\n      0x05\n        /* \"contracts/goodhiveContractForJob.sol\":4327:4338  jobs[jobId] */\n      0x00\n        /* \"contracts/goodhiveContractForJob.sol\":4332:4337  jobId */\n      dup5\n        /* \"contracts/goodhiveContractForJob.sol\":4327:4338  jobs[jobId] */\n      0xffffffffffffffffffffffffffffffff\n      and\n      0xffffffffffffffffffffffffffffffff\n      and\n      dup2\n      mstore\n      0x20\n      add\n      swap1\n      dup2\n      mstore\n      0x20\n      add\n      0x00\n      keccak256\n        /* \"contracts/goodhiveContractForJob.sol\":4327:4345  jobs[jobId].amount */\n      0x01\n      add\n      sload\n        /* \"contracts/goodhiveContractForJob.sol\":4310:4345  uint256 amount = jobs[jobId].amount */\n      swap1\n      pop\n        /* \"contracts/goodhiveContractForJob.sol\":4372:4373  0 */\n      0x00\n        /* \"contracts/goodhiveContractForJob.sol\":4363:4369  amount */\n      dup2\n        /* \"contracts/goodhiveContractForJob.sol\":4363:4373  amount > 0 */\n      gt\n        /* \"contracts/goodhiveContractForJob.sol\":4355:4400  require(amount > 0, \"No balance to withdraw\") */\n      tag_57\n      jumpi\n      mload(0x40)\n      0x08c379a000000000000000000000000000000000000000000000000000000000\n      dup2\n      mstore\n      0x04\n      add\n      tag_58\n      swap1\n      tag_59\n      jump\t// in\n    tag_58:\n      mload(0x40)\n      dup1\n      swap2\n      sub\n      swap1\n      revert\n    tag_57:\n        /* \"contracts/goodhiveContractForJob.sol\":4418:4424  _Token */\n      dup2\n        /* \"contracts/goodhiveContractForJob.sol\":4418:4433  _Token.transfer */\n      0xffffffffffffffffffffffffffffffffffffffff\n      and\n      0xa9059cbb\n        /* \"contracts/goodhiveContractForJob.sol\":4434:4444  msg.sender */\n      caller\n        /* \"contracts/goodhiveContractForJob.sol\":4446:4450  jobs */\n      0x05\n        /* \"contracts/goodhiveContractForJob.sol\":4446:4457  jobs[jobId] */\n      0x00\n        /* \"contracts/goodhiveContractForJob.sol\":4451:4456  jobId */\n      dup8\n        /* \"contracts/goodhiveContractForJob.sol\":4446:4457  jobs[jobId] */\n      0xffffffffffffffffffffffffffffffff\n      and\n      0xffffffffffffffffffffffffffffffff\n      and\n      dup2\n      mstore\n      0x20\n      add\n      swap1\n      dup2\n      mstore\n      0x20\n      add\n      0x00\n      keccak256\n        /* \"contracts/goodhiveContractForJob.sol\":4446:4464  jobs[jobId].amount */\n      0x01\n      add\n      sload\n        /* \"contracts/goodhiveContractForJob.sol\":4418:4465  _Token.transfer(msg.sender, jobs[jobId].amount) */\n      mload(0x40)\n      dup4\n      0xffffffff\n      and\n      0xe0\n      shl\n      dup2\n      mstore\n      0x04\n      add\n      tag_60\n      swap3\n      swap2\n      swap1\n      tag_61\n      jump\t// in\n    tag_60:\n      0x20\n      mload(0x40)\n      dup1\n      dup4\n      sub\n      dup2\n      0x00\n      dup8\n      gas\n      call\n      iszero\n      dup1\n      iszero\n      tag_63\n      jumpi\n      returndatasize\n      0x00\n      dup1\n      returndatacopy\n      revert(0x00, returndatasize)\n    tag_63:\n      pop\n      pop\n      pop\n      pop\n      mload(0x40)\n      returndatasize\n      not(0x1f)\n      0x1f\n      dup3\n      add\n      and\n      dup3\n      add\n      dup1\n      0x40\n      mstore\n      pop\n      dup2\n      add\n      swap1\n      tag_64\n      swap2\n      swap1\n      tag_65\n      jump\t// in\n    tag_64:\n        /* \"contracts/goodhiveContractForJob.sol\":4410:4466  require(_Token.transfer(msg.sender, jobs[jobId].amount)) */\n      tag_66\n      jumpi\n      0x00\n      dup1\n      revert\n    tag_66:\n        /* \"contracts/goodhiveContractForJob.sol\":4497:4498  0 */\n      0x00\n        /* \"contracts/goodhiveContractForJob.sol\":4476:4480  jobs */\n      0x05\n        /* \"contracts/goodhiveContractForJob.sol\":4476:4487  jobs[jobId] */\n      0x00\n        /* \"contracts/goodhiveContractForJob.sol\":4481:4486  jobId */\n      dup6\n        /* \"contracts/goodhiveContractForJob.sol\":4476:4487  jobs[jobId] */\n      0xffffffffffffffffffffffffffffffff\n      and\n      0xffffffffffffffffffffffffffffffff\n      and\n      dup2\n      mstore\n      0x20\n      add\n      swap1\n      dup2\n      mstore\n      0x20\n      add\n      0x00\n      keccak256\n        /* \"contracts/goodhiveContractForJob.sol\":4476:4494  jobs[jobId].amount */\n      0x01\n      add\n        /* \"contracts/goodhiveContractForJob.sol\":4476:4498  jobs[jobId].amount = 0 */\n      dup2\n      swap1\n      sstore\n      pop\n        /* \"contracts/goodhiveContractForJob.sol\":4531:4541  msg.sender */\n      caller\n        /* \"contracts/goodhiveContractForJob.sol\":4513:4550  AllFundsWithdrawn(msg.sender, amount) */\n      0xffffffffffffffffffffffffffffffffffffffff\n      and\n      0xd867cfadc420a62f8ddbfaf0ee08af17bef908fdeb647de660511cebe642486c\n        /* \"contracts/goodhiveContractForJob.sol\":4543:4549  amount */\n      dup3\n        /* \"contracts/goodhiveContractForJob.sol\":4513:4550  AllFundsWithdrawn(msg.sender, amount) */\n      mload(0x40)\n      tag_67\n      swap2\n      swap1\n      tag_37\n      jump\t// in\n    tag_67:\n      mload(0x40)\n      dup1\n      swap2\n      sub\n      swap1\n      log2\n        /* \"contracts/goodhiveContractForJob.sol\":4084:4557  {... */\n      pop\n      pop\n        /* \"contracts/goodhiveContractForJob.sol\":4034:4557  function withdrawAllFunds(uint128 jobId) external {... */\n      pop\n      jump\t// out\n        /* \"contracts/goodhiveContractForJob.sol\":4563:4651  function myAddress() external view returns(address){... */\n    tag_24:\n        /* \"contracts/goodhiveContractForJob.sol\":4606:4613  address */\n      0x00\n        /* \"contracts/goodhiveContractForJob.sol\":4639:4643  this */\n      address\n        /* \"contracts/goodhiveContractForJob.sol\":4624:4644  return address(this) */\n      swap1\n      pop\n        /* \"contracts/goodhiveContractForJob.sol\":4563:4651  function myAddress() external view returns(address){... */\n      swap1\n      jump\t// out\n        /* \"contracts/goodhiveContractForJob.sol\":4709:4903  function getJob(uint128 jobId) external view returns (address user, uint256 amount, address token) {... */\n    tag_30:\n        /* \"contracts/goodhiveContractForJob.sol\":4763:4775  address user */\n      0x00\n        /* \"contracts/goodhiveContractForJob.sol\":4777:4791  uint256 amount */\n      dup1\n        /* \"contracts/goodhiveContractForJob.sol\":4793:4806  address token */\n      0x00\n        /* \"contracts/goodhiveContractForJob.sol\":4818:4832  Job memory job */\n      dup1\n        /* \"contracts/goodhiveContractForJob.sol\":4835:4839  jobs */\n      0x05\n        /* \"contracts/goodhiveContractForJob.sol\":4835:4846  jobs[jobId] */\n      0x00\n        /* \"contracts/goodhiveContractForJob.sol\":4840:4845  jobId */\n      dup7\n        /* \"contracts/goodhiveContractForJob.sol\":4835:4846  jobs[jobId] */\n      0xffffffffffffffffffffffffffffffff\n      and\n      0xffffffffffffffffffffffffffffffff\n      and\n      dup2\n      mstore\n      0x20\n      add\n      swap1\n      dup2\n      mstore\n      0x20\n      add\n      0x00\n      keccak256\n        /* \"contracts/goodhiveContractForJob.sol\":4818:4846  Job memory job = jobs[jobId] */\n      mload(0x40)\n      dup1\n      0x60\n      add\n      0x40\n      mstore\n      swap1\n      dup2\n      0x00\n      dup3\n      add\n      0x00\n      swap1\n      sload\n      swap1\n      0x0100\n      exp\n      swap1\n      div\n      0xffffffffffffffffffffffffffffffffffffffff\n      and\n      0xffffffffffffffffffffffffffffffffffffffff\n      and\n      0xffffffffffffffffffffffffffffffffffffffff\n      and\n      dup2\n      mstore\n      0x20\n      add\n      0x01\n      dup3\n      add\n      sload\n      dup2\n      mstore\n      0x20\n      add\n      0x02\n      dup3\n      add\n      0x00\n      swap1\n      sload\n      swap1\n      0x0100\n      exp\n      swap1\n      div\n      0xffffffffffffffffffffffffffffffffffffffff\n      and\n      0xffffffffffffffffffffffffffffffffffffffff\n      and\n      0xffffffffffffffffffffffffffffffffffffffff\n      and\n      dup2\n      mstore\n      pop\n      pop\n      swap1\n      pop\n        /* \"contracts/goodhiveContractForJob.sol\":4864:4867  job */\n      dup1\n        /* \"contracts/goodhiveContractForJob.sol\":4864:4872  job.user */\n      0x00\n      add\n      mload\n        /* \"contracts/goodhiveContractForJob.sol\":4874:4877  job */\n      dup2\n        /* \"contracts/goodhiveContractForJob.sol\":4874:4884  job.amount */\n      0x20\n      add\n      mload\n        /* \"contracts/goodhiveContractForJob.sol\":4886:4889  job */\n      dup3\n        /* \"contracts/goodhiveContractForJob.sol\":4886:4895  job.token */\n      0x40\n      add\n      mload\n        /* \"contracts/goodhiveContractForJob.sol\":4856:4896  return (job.user, job.amount, job.token) */\n      swap4\n      pop\n      swap4\n      pop\n      swap4\n      pop\n      pop\n        /* \"contracts/goodhiveContractForJob.sol\":4709:4903  function getJob(uint128 jobId) external view returns (address user, uint256 amount, address token) {... */\n      swap2\n      swap4\n      swap1\n      swap3\n      pop\n      jump\t// out\n        /* \"contracts/goodhiveContractForJob.sol\":2590:2701  function checkBalance(uint128 jobId) external view returns (uint256) {... */\n    tag_35:\n        /* \"contracts/goodhiveContractForJob.sol\":2650:2657  uint256 */\n      0x00\n        /* \"contracts/goodhiveContractForJob.sol\":2676:2680  jobs */\n      0x05\n        /* \"contracts/goodhiveContractForJob.sol\":2676:2687  jobs[jobId] */\n      0x00\n        /* \"contracts/goodhiveContractForJob.sol\":2681:2686  jobId */\n      dup4\n        /* \"contracts/goodhiveContractForJob.sol\":2676:2687  jobs[jobId] */\n      0xffffffffffffffffffffffffffffffff\n      and\n      0xffffffffffffffffffffffffffffffff\n      and\n      dup2\n      mstore\n      0x20\n      add\n      swap1\n      dup2\n      mstore\n      0x20\n      add\n      0x00\n      keccak256\n        /* \"contracts/goodhiveContractForJob.sol\":2676:2694  jobs[jobId].amount */\n      0x01\n      add\n      sload\n        /* \"contracts/goodhiveContractForJob.sol\":2669:2694  return jobs[jobId].amount */\n      swap1\n      pop\n        /* \"contracts/goodhiveContractForJob.sol\":2590:2701  function checkBalance(uint128 jobId) external view returns (uint256) {... */\n      swap2\n      swap1\n      pop\n      jump\t// out\n        /* \"contracts/goodhiveContractForJob.sol\":1481:2523  function createJob(uint128 jobId, uint256 amount, address token) external payable {... */\n    tag_41:\n        /* \"contracts/goodhiveContractForJob.sol\":1604:1605  0 */\n      0x00\n        /* \"contracts/goodhiveContractForJob.sol\":1576:1606  jobs[jobId].user != address(0) */\n      0xffffffffffffffffffffffffffffffffffffffff\n      and\n        /* \"contracts/goodhiveContractForJob.sol\":1576:1580  jobs */\n      0x05\n        /* \"contracts/goodhiveContractForJob.sol\":1576:1587  jobs[jobId] */\n      0x00\n        /* \"contracts/goodhiveContractForJob.sol\":1581:1586  jobId */\n      dup6\n        /* \"contracts/goodhiveContractForJob.sol\":1576:1587  jobs[jobId] */\n      0xffffffffffffffffffffffffffffffff\n      and\n      0xffffffffffffffffffffffffffffffff\n      and\n      dup2\n      mstore\n      0x20\n      add\n      swap1\n      dup2\n      mstore\n      0x20\n      add\n      0x00\n      keccak256\n        /* \"contracts/goodhiveContractForJob.sol\":1576:1592  jobs[jobId].user */\n      0x00\n      add\n      0x00\n      swap1\n      sload\n      swap1\n      0x0100\n      exp\n      swap1\n      div\n      0xffffffffffffffffffffffffffffffffffffffff\n      and\n        /* \"contracts/goodhiveContractForJob.sol\":1576:1606  jobs[jobId].user != address(0) */\n      0xffffffffffffffffffffffffffffffffffffffff\n      and\n      eq\n      iszero\n        /* \"contracts/goodhiveContractForJob.sol\":1576:1640  jobs[jobId].user != address(0) && jobs[jobId].user != msg.sender */\n      dup1\n      iszero\n      tag_72\n      jumpi\n      pop\n        /* \"contracts/goodhiveContractForJob.sol\":1630:1640  msg.sender */\n      caller\n        /* \"contracts/goodhiveContractForJob.sol\":1610:1640  jobs[jobId].user != msg.sender */\n      0xffffffffffffffffffffffffffffffffffffffff\n      and\n        /* \"contracts/goodhiveContractForJob.sol\":1610:1614  jobs */\n      0x05\n        /* \"contracts/goodhiveContractForJob.sol\":1610:1621  jobs[jobId] */\n      0x00\n        /* \"contracts/goodhiveContractForJob.sol\":1615:1620  jobId */\n      dup6\n        /* \"contracts/goodhiveContractForJob.sol\":1610:1621  jobs[jobId] */\n      0xffffffffffffffffffffffffffffffff\n      and\n      0xffffffffffffffffffffffffffffffff\n      and\n      dup2\n      mstore\n      0x20\n      add\n      swap1\n      dup2\n      mstore\n      0x20\n      add\n      0x00\n      keccak256\n        /* \"contracts/goodhiveContractForJob.sol\":1610:1626  jobs[jobId].user */\n      0x00\n      add\n      0x00\n      swap1\n      sload\n      swap1\n      0x0100\n      exp\n      swap1\n      div\n      0xffffffffffffffffffffffffffffffffffffffff\n      and\n        /* \"contracts/goodhiveContractForJob.sol\":1610:1640  jobs[jobId].user != msg.sender */\n      0xffffffffffffffffffffffffffffffffffffffff\n      and\n      eq\n      iszero\n        /* \"contracts/goodhiveContractForJob.sol\":1576:1640  jobs[jobId].user != address(0) && jobs[jobId].user != msg.sender */\n    tag_72:\n        /* \"contracts/goodhiveContractForJob.sol\":1573:1721  if(jobs[jobId].user != address(0) && jobs[jobId].user != msg.sender){... */\n      iszero\n      tag_73\n      jumpi\n        /* \"contracts/goodhiveContractForJob.sol\":1663:1668  false */\n      0x00\n        /* \"contracts/goodhiveContractForJob.sol\":1655:1710  require(false, \"You are not allowed to use this jobid\") */\n      tag_74\n      jumpi\n      mload(0x40)\n      0x08c379a000000000000000000000000000000000000000000000000000000000\n      dup2\n      mstore\n      0x04\n      add\n      tag_75\n      swap1\n      tag_56\n      jump\t// in\n    tag_75:\n      mload(0x40)\n      dup1\n      swap2\n      sub\n      swap1\n      revert\n    tag_74:\n        /* \"contracts/goodhiveContractForJob.sol\":1573:1721  if(jobs[jobId].user != address(0) && jobs[jobId].user != msg.sender){... */\n    tag_73:\n        /* \"contracts/goodhiveContractForJob.sol\":1749:1759  msg.sender */\n      caller\n        /* \"contracts/goodhiveContractForJob.sol\":1730:1734  jobs */\n      0x05\n        /* \"contracts/goodhiveContractForJob.sol\":1730:1741  jobs[jobId] */\n      0x00\n        /* \"contracts/goodhiveContractForJob.sol\":1735:1740  jobId */\n      dup6\n        /* \"contracts/goodhiveContractForJob.sol\":1730:1741  jobs[jobId] */\n      0xffffffffffffffffffffffffffffffff\n      and\n      0xffffffffffffffffffffffffffffffff\n      and\n      dup2\n      mstore\n      0x20\n      add\n      swap1\n      dup2\n      mstore\n      0x20\n      add\n      0x00\n      keccak256\n        /* \"contracts/goodhiveContractForJob.sol\":1730:1746  jobs[jobId].user */\n      0x00\n      add\n      0x00\n        /* \"contracts/goodhiveContractForJob.sol\":1730:1759  jobs[jobId].user = msg.sender */\n      0x0100\n      exp\n      dup2\n      sload\n      dup2\n      0xffffffffffffffffffffffffffffffffffffffff\n      mul\n      not\n      and\n      swap1\n      dup4\n      0xffffffffffffffffffffffffffffffffffffffff\n      and\n      mul\n      or\n      swap1\n      sstore\n      pop\n        /* \"contracts/goodhiveContractForJob.sol\":1781:1790  usdctoken */\n      0x00\n      dup1\n      sload\n      swap1\n      0x0100\n      exp\n      swap1\n      div\n      0xffffffffffffffffffffffffffffffffffffffff\n      and\n        /* \"contracts/goodhiveContractForJob.sol\":1772:1790  token != usdctoken */\n      0xffffffffffffffffffffffffffffffffffffffff\n      and\n        /* \"contracts/goodhiveContractForJob.sol\":1772:1777  token */\n      dup2\n        /* \"contracts/goodhiveContractForJob.sol\":1772:1790  token != usdctoken */\n      0xffffffffffffffffffffffffffffffffffffffff\n      and\n      eq\n      iszero\n        /* \"contracts/goodhiveContractForJob.sol\":1772:1811  token != usdctoken && token != daitoken */\n      dup1\n      iszero\n      tag_76\n      jumpi\n      pop\n        /* \"contracts/goodhiveContractForJob.sol\":1803:1811  daitoken */\n      0x01\n      0x00\n      swap1\n      sload\n      swap1\n      0x0100\n      exp\n      swap1\n      div\n      0xffffffffffffffffffffffffffffffffffffffff\n      and\n        /* \"contracts/goodhiveContractForJob.sol\":1794:1811  token != daitoken */\n      0xffffffffffffffffffffffffffffffffffffffff\n      and\n        /* \"contracts/goodhiveContractForJob.sol\":1794:1799  token */\n      dup2\n        /* \"contracts/goodhiveContractForJob.sol\":1794:1811  token != daitoken */\n      0xffffffffffffffffffffffffffffffffffffffff\n      and\n      eq\n      iszero\n        /* \"contracts/goodhiveContractForJob.sol\":1772:1811  token != usdctoken && token != daitoken */\n    tag_76:\n        /* \"contracts/goodhiveContractForJob.sol\":1772:1829  token != usdctoken && token != daitoken && token != ageur */\n      dup1\n      iszero\n      tag_77\n      jumpi\n      pop\n        /* \"contracts/goodhiveContractForJob.sol\":1824:1829  ageur */\n      0x02\n      0x00\n      swap1\n      sload\n      swap1\n      0x0100\n      exp\n      swap1\n      div\n      0xffffffffffffffffffffffffffffffffffffffff\n      and\n        /* \"contracts/goodhiveContractForJob.sol\":1815:1829  token != ageur */\n      0xffffffffffffffffffffffffffffffffffffffff\n      and\n        /* \"contracts/goodhiveContractForJob.sol\":1815:1820  token */\n      dup2\n        /* \"contracts/goodhiveContractForJob.sol\":1815:1829  token != ageur */\n      0xffffffffffffffffffffffffffffffffffffffff\n      and\n      eq\n      iszero\n        /* \"contracts/goodhiveContractForJob.sol\":1772:1829  token != usdctoken && token != daitoken && token != ageur */\n    tag_77:\n        /* \"contracts/goodhiveContractForJob.sol\":1772:1851  token != usdctoken && token != daitoken && token != ageur && token != eurotoken */\n      dup1\n      iszero\n      tag_78\n      jumpi\n      pop\n        /* \"contracts/goodhiveContractForJob.sol\":1842:1851  eurotoken */\n      0x03\n      0x00\n      swap1\n      sload\n      swap1\n      0x0100\n      exp\n      swap1\n      div\n      0xffffffffffffffffffffffffffffffffffffffff\n      and\n        /* \"contracts/goodhiveContractForJob.sol\":1833:1851  token != eurotoken */\n      0xffffffffffffffffffffffffffffffffffffffff\n      and\n        /* \"contracts/goodhiveContractForJob.sol\":1833:1838  token */\n      dup2\n        /* \"contracts/goodhiveContractForJob.sol\":1833:1851  token != eurotoken */\n      0xffffffffffffffffffffffffffffffffffffffff\n      and\n      eq\n      iszero\n        /* \"contracts/goodhiveContractForJob.sol\":1772:1851  token != usdctoken && token != daitoken && token != ageur && token != eurotoken */\n    tag_78:\n        /* \"contracts/goodhiveContractForJob.sol\":1769:1916  if(token != usdctoken && token != daitoken && token != ageur && token != eurotoken){... */\n      iszero\n      tag_79\n      jumpi\n        /* \"contracts/goodhiveContractForJob.sol\":1874:1879  false */\n      0x00\n        /* \"contracts/goodhiveContractForJob.sol\":1866:1905  require(false, \"Invalid token address\") */\n      tag_80\n      jumpi\n      mload(0x40)\n      0x08c379a000000000000000000000000000000000000000000000000000000000\n      dup2\n      mstore\n      0x04\n      add\n      tag_81\n      swap1\n      tag_82\n      jump\t// in\n    tag_81:\n      mload(0x40)\n      dup1\n      swap2\n      sub\n      swap1\n      revert\n    tag_80:\n        /* \"contracts/goodhiveContractForJob.sol\":1769:1916  if(token != usdctoken && token != daitoken && token != ageur && token != eurotoken){... */\n    tag_79:\n        /* \"contracts/goodhiveContractForJob.sol\":1925:1942  ERC20Token _Token */\n      0x00\n        /* \"contracts/goodhiveContractForJob.sol\":1956:1961  token */\n      dup2\n        /* \"contracts/goodhiveContractForJob.sol\":1925:1962  ERC20Token _Token = ERC20Token(token) */\n      swap1\n      pop\n        /* \"contracts/goodhiveContractForJob.sol\":1989:1990  0 */\n      0x00\n        /* \"contracts/goodhiveContractForJob.sol\":1980:1986  amount */\n      dup4\n        /* \"contracts/goodhiveContractForJob.sol\":1980:1990  amount > 0 */\n      gt\n        /* \"contracts/goodhiveContractForJob.sol\":1972:2026  require(amount > 0, \"Amount should be greater than 0\") */\n      tag_83\n      jumpi\n      mload(0x40)\n      0x08c379a000000000000000000000000000000000000000000000000000000000\n      dup2\n      mstore\n      0x04\n      add\n      tag_84\n      swap1\n      tag_85\n      jump\t// in\n    tag_84:\n      mload(0x40)\n      dup1\n      swap2\n      sub\n      swap1\n      revert\n    tag_83:\n        /* \"contracts/goodhiveContractForJob.sol\":2091:2097  amount */\n      dup3\n        /* \"contracts/goodhiveContractForJob.sol\":2044:2050  _Token */\n      dup2\n        /* \"contracts/goodhiveContractForJob.sol\":2044:2060  _Token.allowance */\n      0xffffffffffffffffffffffffffffffffffffffff\n      and\n      0xdd62ed3e\n        /* \"contracts/goodhiveContractForJob.sol\":2061:2071  msg.sender */\n      caller\n        /* \"contracts/goodhiveContractForJob.sol\":2081:2085  this */\n      address\n        /* \"contracts/goodhiveContractForJob.sol\":2044:2087  _Token.allowance(msg.sender, address(this)) */\n      mload(0x40)\n      dup4\n      0xffffffff\n      and\n      0xe0\n      shl\n      dup2\n      mstore\n      0x04\n      add\n      tag_86\n      swap3\n      swap2\n      swap1\n      tag_87\n      jump\t// in\n    tag_86:\n      0x20\n      mload(0x40)\n      dup1\n      dup4\n      sub\n      dup2\n      0x00\n      dup8\n      gas\n      call\n      iszero\n      dup1\n      iszero\n      tag_89\n      jumpi\n      returndatasize\n      0x00\n      dup1\n      returndatacopy\n      revert(0x00, returndatasize)\n    tag_89:\n      pop\n      pop\n      pop\n      pop\n      mload(0x40)\n      returndatasize\n      not(0x1f)\n      0x1f\n      dup3\n      add\n      and\n      dup3\n      add\n      dup1\n      0x40\n      mstore\n      pop\n      dup2\n      add\n      swap1\n      tag_90\n      swap2\n      swap1\n      tag_91\n      jump\t// in\n    tag_90:\n        /* \"contracts/goodhiveContractForJob.sol\":2044:2097  _Token.allowance(msg.sender, address(this)) >= amount */\n      lt\n      iszero\n        /* \"contracts/goodhiveContractForJob.sol\":2036:2124  require(_Token.allowance(msg.sender, address(this)) >= amount, \"Insufficient Allowence\") */\n      tag_92\n      jumpi\n      mload(0x40)\n      0x08c379a000000000000000000000000000000000000000000000000000000000\n      dup2\n      mstore\n      0x04\n      add\n      tag_93\n      swap1\n      tag_94\n      jump\t// in\n    tag_93:\n      mload(0x40)\n      dup1\n      swap2\n      sub\n      swap1\n      revert\n    tag_92:\n        /* \"contracts/goodhiveContractForJob.sol\":2174:2180  amount */\n      dup3\n        /* \"contracts/goodhiveContractForJob.sol\":2142:2148  _Token */\n      dup2\n        /* \"contracts/goodhiveContractForJob.sol\":2142:2158  _Token.balanceOf */\n      0xffffffffffffffffffffffffffffffffffffffff\n      and\n      0x70a08231\n        /* \"contracts/goodhiveContractForJob.sol\":2159:2169  msg.sender */\n      caller\n        /* \"contracts/goodhiveContractForJob.sol\":2142:2170  _Token.balanceOf(msg.sender) */\n      mload(0x40)\n      dup3\n      0xffffffff\n      and\n      0xe0\n      shl\n      dup2\n      mstore\n      0x04\n      add\n      tag_95\n      swap2\n      swap1\n      tag_26\n      jump\t// in\n    tag_95:\n      0x20\n      mload(0x40)\n      dup1\n      dup4\n      sub\n      dup2\n      dup7\n      gas\n      staticcall\n      iszero\n      dup1\n      iszero\n      tag_97\n      jumpi\n      returndatasize\n      0x00\n      dup1\n      returndatacopy\n      revert(0x00, returndatasize)\n    tag_97:\n      pop\n      pop\n      pop\n      pop\n      mload(0x40)\n      returndatasize\n      not(0x1f)\n      0x1f\n      dup3\n      add\n      and\n      dup3\n      add\n      dup1\n      0x40\n      mstore\n      pop\n      dup2\n      add\n      swap1\n      tag_98\n      swap2\n      swap1\n      tag_91\n      jump\t// in\n    tag_98:\n        /* \"contracts/goodhiveContractForJob.sol\":2142:2180  _Token.balanceOf(msg.sender) >= amount */\n      lt\n      iszero\n        /* \"contracts/goodhiveContractForJob.sol\":2134:2205  require(_Token.balanceOf(msg.sender) >= amount, \"Insufficient balance\") */\n      tag_99\n      jumpi\n      mload(0x40)\n      0x08c379a000000000000000000000000000000000000000000000000000000000\n      dup2\n      mstore\n      0x04\n      add\n      tag_100\n      swap1\n      tag_101\n      jump\t// in\n    tag_100:\n      mload(0x40)\n      dup1\n      swap2\n      sub\n      swap1\n      revert\n    tag_99:\n        /* \"contracts/goodhiveContractForJob.sol\":2223:2229  _Token */\n      dup1\n        /* \"contracts/goodhiveContractForJob.sol\":2223:2242  _Token.transferFrom */\n      0xffffffffffffffffffffffffffffffffffffffff\n      and\n      0x23b872dd\n        /* \"contracts/goodhiveContractForJob.sol\":2243:2253  msg.sender */\n      caller\n        /* \"contracts/goodhiveContractForJob.sol\":2263:2267  this */\n      address\n        /* \"contracts/goodhiveContractForJob.sol\":2270:2276  amount */\n      dup7\n        /* \"contracts/goodhiveContractForJob.sol\":2223:2277  _Token.transferFrom(msg.sender, address(this), amount) */\n      mload(0x40)\n      dup5\n      0xffffffff\n      and\n      0xe0\n      shl\n      dup2\n      mstore\n      0x04\n      add\n      tag_102\n      swap4\n      swap3\n      swap2\n      swap1\n      tag_103\n      jump\t// in\n    tag_102:\n      0x20\n      mload(0x40)\n      dup1\n      dup4\n      sub\n      dup2\n      0x00\n      dup8\n      gas\n      call\n      iszero\n      dup1\n      iszero\n      tag_105\n      jumpi\n      returndatasize\n      0x00\n      dup1\n      returndatacopy\n      revert(0x00, returndatasize)\n    tag_105:\n      pop\n      pop\n      pop\n      pop\n      mload(0x40)\n      returndatasize\n      not(0x1f)\n      0x1f\n      dup3\n      add\n      and\n      dup3\n      add\n      dup1\n      0x40\n      mstore\n      pop\n      dup2\n      add\n      swap1\n      tag_106\n      swap2\n      swap1\n      tag_65\n      jump\t// in\n    tag_106:\n        /* \"contracts/goodhiveContractForJob.sol\":2215:2297  require(_Token.transferFrom(msg.sender, address(this), amount), \"Transfer failed\") */\n      tag_107\n      jumpi\n      mload(0x40)\n      0x08c379a000000000000000000000000000000000000000000000000000000000\n      dup2\n      mstore\n      0x04\n      add\n      tag_108\n      swap1\n      tag_109\n      jump\t// in\n    tag_108:\n      mload(0x40)\n      dup1\n      swap2\n      sub\n      swap1\n      revert\n    tag_107:\n        /* \"contracts/goodhiveContractForJob.sol\":2333:2334  0 */\n      0x00\n        /* \"contracts/goodhiveContractForJob.sol\":2312:2316  jobs */\n      0x05\n        /* \"contracts/goodhiveContractForJob.sol\":2312:2323  jobs[jobId] */\n      0x00\n        /* \"contracts/goodhiveContractForJob.sol\":2317:2322  jobId */\n      dup7\n        /* \"contracts/goodhiveContractForJob.sol\":2312:2323  jobs[jobId] */\n      0xffffffffffffffffffffffffffffffff\n      and\n      0xffffffffffffffffffffffffffffffff\n      and\n      dup2\n      mstore\n      0x20\n      add\n      swap1\n      dup2\n      mstore\n      0x20\n      add\n      0x00\n      keccak256\n        /* \"contracts/goodhiveContractForJob.sol\":2312:2330  jobs[jobId].amount */\n      0x01\n      add\n      sload\n        /* \"contracts/goodhiveContractForJob.sol\":2312:2334  jobs[jobId].amount > 0 */\n      gt\n        /* \"contracts/goodhiveContractForJob.sol\":2308:2464  if (jobs[jobId].amount > 0) {... */\n      iszero\n      tag_110\n      jumpi\n        /* \"contracts/goodhiveContractForJob.sol\":2372:2378  amount */\n      dup3\n        /* \"contracts/goodhiveContractForJob.sol\":2350:2354  jobs */\n      0x05\n        /* \"contracts/goodhiveContractForJob.sol\":2350:2361  jobs[jobId] */\n      0x00\n        /* \"contracts/goodhiveContractForJob.sol\":2355:2360  jobId */\n      dup7\n        /* \"contracts/goodhiveContractForJob.sol\":2350:2361  jobs[jobId] */\n      0xffffffffffffffffffffffffffffffff\n      and\n      0xffffffffffffffffffffffffffffffff\n      and\n      dup2\n      mstore\n      0x20\n      add\n      swap1\n      dup2\n      mstore\n      0x20\n      add\n      0x00\n      keccak256\n        /* \"contracts/goodhiveContractForJob.sol\":2350:2368  jobs[jobId].amount */\n      0x01\n      add\n      0x00\n        /* \"contracts/goodhiveContractForJob.sol\":2350:2378  jobs[jobId].amount += amount */\n      dup3\n      dup3\n      sload\n      tag_111\n      swap2\n      swap1\n      tag_112\n      jump\t// in\n    tag_111:\n      swap3\n      pop\n      pop\n      dup2\n      swap1\n      sstore\n      pop\n        /* \"contracts/goodhiveContractForJob.sol\":2308:2464  if (jobs[jobId].amount > 0) {... */\n      jump(tag_113)\n    tag_110:\n        /* \"contracts/goodhiveContractForJob.sol\":2423:2453  Job(msg.sender, amount, token) */\n      mload(0x40)\n      dup1\n      0x60\n      add\n      0x40\n      mstore\n      dup1\n        /* \"contracts/goodhiveContractForJob.sol\":2427:2437  msg.sender */\n      caller\n        /* \"contracts/goodhiveContractForJob.sol\":2423:2453  Job(msg.sender, amount, token) */\n      0xffffffffffffffffffffffffffffffffffffffff\n      and\n      dup2\n      mstore\n      0x20\n      add\n        /* \"contracts/goodhiveContractForJob.sol\":2439:2445  amount */\n      dup5\n        /* \"contracts/goodhiveContractForJob.sol\":2423:2453  Job(msg.sender, amount, token) */\n      dup2\n      mstore\n      0x20\n      add\n        /* \"contracts/goodhiveContractForJob.sol\":2447:2452  token */\n      dup4\n        /* \"contracts/goodhiveContractForJob.sol\":2423:2453  Job(msg.sender, amount, token) */\n      0xffffffffffffffffffffffffffffffffffffffff\n      and\n      dup2\n      mstore\n      pop\n        /* \"contracts/goodhiveContractForJob.sol\":2409:2413  jobs */\n      0x05\n        /* \"contracts/goodhiveContractForJob.sol\":2409:2420  jobs[jobId] */\n      0x00\n        /* \"contracts/goodhiveContractForJob.sol\":2414:2419  jobId */\n      dup7\n        /* \"contracts/goodhiveContractForJob.sol\":2409:2420  jobs[jobId] */\n      0xffffffffffffffffffffffffffffffff\n      and\n      0xffffffffffffffffffffffffffffffff\n      and\n      dup2\n      mstore\n      0x20\n      add\n      swap1\n      dup2\n      mstore\n      0x20\n      add\n      0x00\n      keccak256\n        /* \"contracts/goodhiveContractForJob.sol\":2409:2453  jobs[jobId] = Job(msg.sender, amount, token) */\n      0x00\n      dup3\n      add\n      mload\n      dup2\n      0x00\n      add\n      exp(0x0100, 0x00)\n      dup2\n      sload\n      dup2\n      0xffffffffffffffffffffffffffffffffffffffff\n      mul\n      not\n      and\n      swap1\n      dup4\n      0xffffffffffffffffffffffffffffffffffffffff\n      and\n      mul\n      or\n      swap1\n      sstore\n      pop\n      0x20\n      dup3\n      add\n      mload\n      dup2\n      0x01\n      add\n      sstore\n      0x40\n      dup3\n      add\n      mload\n      dup2\n      0x02\n      add\n      exp(0x0100, 0x00)\n      dup2\n      sload\n      dup2\n      0xffffffffffffffffffffffffffffffffffffffff\n      mul\n      not\n      and\n      swap1\n      dup4\n      0xffffffffffffffffffffffffffffffffffffffff\n      and\n      mul\n      or\n      swap1\n      sstore\n      pop\n      swap1\n      pop\n      pop\n        /* \"contracts/goodhiveContractForJob.sol\":2308:2464  if (jobs[jobId].amount > 0) {... */\n    tag_113:\n        /* \"contracts/goodhiveContractForJob.sol\":2497:2507  msg.sender */\n      caller\n        /* \"contracts/goodhiveContractForJob.sol\":2479:2516  JobCreated(jobId, msg.sender, amount) */\n      0xffffffffffffffffffffffffffffffffffffffff\n      and\n        /* \"contracts/goodhiveContractForJob.sol\":2490:2495  jobId */\n      dup5\n        /* \"contracts/goodhiveContractForJob.sol\":2479:2516  JobCreated(jobId, msg.sender, amount) */\n      0xffffffffffffffffffffffffffffffff\n      and\n      0x5f3e3838def5eca817d313e878b11ebf555f617746e3d247f1632ded5f39118b\n        /* \"contracts/goodhiveContractForJob.sol\":2509:2515  amount */\n      dup6\n        /* \"contracts/goodhiveContractForJob.sol\":2479:2516  JobCreated(jobId, msg.sender, amount) */\n      mload(0x40)\n      tag_114\n      swap2\n      swap1\n      tag_37\n      jump\t// in\n    tag_114:\n      mload(0x40)\n      dup1\n      swap2\n      sub\n      swap1\n      log3\n        /* \"contracts/goodhiveContractForJob.sol\":1563:2523  {... */\n      pop\n        /* \"contracts/goodhiveContractForJob.sol\":1481:2523  function createJob(uint128 jobId, uint256 amount, address token) external payable {... */\n      pop\n      pop\n      pop\n      jump\t// out\n        /* \"contracts/goodhiveContractForJob.sol\":3450:4028  function withdrawFunds(uint128 jobId, uint256 amount) external {... */\n    tag_46:\n        /* \"contracts/goodhiveContractForJob.sol\":3554:3555  0 */\n      0x00\n        /* \"contracts/goodhiveContractForJob.sol\":3526:3556  jobs[jobId].user != address(0) */\n      0xffffffffffffffffffffffffffffffffffffffff\n      and\n        /* \"contracts/goodhiveContractForJob.sol\":3526:3530  jobs */\n      0x05\n        /* \"contracts/goodhiveContractForJob.sol\":3526:3537  jobs[jobId] */\n      0x00\n        /* \"contracts/goodhiveContractForJob.sol\":3531:3536  jobId */\n      dup5\n        /* \"contracts/goodhiveContractForJob.sol\":3526:3537  jobs[jobId] */\n      0xffffffffffffffffffffffffffffffff\n      and\n      0xffffffffffffffffffffffffffffffff\n      and\n      dup2\n      mstore\n      0x20\n      add\n      swap1\n      dup2\n      mstore\n      0x20\n      add\n      0x00\n      keccak256\n        /* \"contracts/goodhiveContractForJob.sol\":3526:3542  jobs[jobId].user */\n      0x00\n      add\n      0x00\n      swap1\n      sload\n      swap1\n      0x0100\n      exp\n      swap1\n      div\n      0xffffffffffffffffffffffffffffffffffffffff\n      and\n        /* \"contracts/goodhiveContractForJob.sol\":3526:3556  jobs[jobId].user != address(0) */\n      0xffffffffffffffffffffffffffffffffffffffff\n      and\n      eq\n      iszero\n        /* \"contracts/goodhiveContractForJob.sol\":3526:3590  jobs[jobId].user != address(0) && jobs[jobId].user != msg.sender */\n      dup1\n      iszero\n      tag_116\n      jumpi\n      pop\n        /* \"contracts/goodhiveContractForJob.sol\":3580:3590  msg.sender */\n      caller\n        /* \"contracts/goodhiveContractForJob.sol\":3560:3590  jobs[jobId].user != msg.sender */\n      0xffffffffffffffffffffffffffffffffffffffff\n      and\n        /* \"contracts/goodhiveContractForJob.sol\":3560:3564  jobs */\n      0x05\n        /* \"contracts/goodhiveContractForJob.sol\":3560:3571  jobs[jobId] */\n      0x00\n        /* \"contracts/goodhiveContractForJob.sol\":3565:3570  jobId */\n      dup5\n        /* \"contracts/goodhiveContractForJob.sol\":3560:3571  jobs[jobId] */\n      0xffffffffffffffffffffffffffffffff\n      and\n      0xffffffffffffffffffffffffffffffff\n      and\n      dup2\n      mstore\n      0x20\n      add\n      swap1\n      dup2\n      mstore\n      0x20\n      add\n      0x00\n      keccak256\n        /* \"contracts/goodhiveContractForJob.sol\":3560:3576  jobs[jobId].user */\n      0x00\n      add\n      0x00\n      swap1\n      sload\n      swap1\n      0x0100\n      exp\n      swap1\n      div\n      0xffffffffffffffffffffffffffffffffffffffff\n      and\n        /* \"contracts/goodhiveContractForJob.sol\":3560:3590  jobs[jobId].user != msg.sender */\n      0xffffffffffffffffffffffffffffffffffffffff\n      and\n      eq\n      iszero\n        /* \"contracts/goodhiveContractForJob.sol\":3526:3590  jobs[jobId].user != address(0) && jobs[jobId].user != msg.sender */\n    tag_116:\n        /* \"contracts/goodhiveContractForJob.sol\":3523:3671  if(jobs[jobId].user != address(0) && jobs[jobId].user != msg.sender){... */\n      iszero\n      tag_117\n      jumpi\n        /* \"contracts/goodhiveContractForJob.sol\":3613:3618  false */\n      0x00\n        /* \"contracts/goodhiveContractForJob.sol\":3605:3660  require(false, \"You are not allowed to use this jobid\") */\n      tag_118\n      jumpi\n      mload(0x40)\n      0x08c379a000000000000000000000000000000000000000000000000000000000\n      dup2\n      mstore\n      0x04\n      add\n      tag_119\n      swap1\n      tag_56\n      jump\t// in\n    tag_119:\n      mload(0x40)\n      dup1\n      swap2\n      sub\n      swap1\n      revert\n    tag_118:\n        /* \"contracts/goodhiveContractForJob.sol\":3523:3671  if(jobs[jobId].user != address(0) && jobs[jobId].user != msg.sender){... */\n    tag_117:\n        /* \"contracts/goodhiveContractForJob.sol\":3680:3697  ERC20Token _Token */\n      0x00\n        /* \"contracts/goodhiveContractForJob.sol\":3711:3715  jobs */\n      0x05\n        /* \"contracts/goodhiveContractForJob.sol\":3711:3722  jobs[jobId] */\n      0x00\n        /* \"contracts/goodhiveContractForJob.sol\":3716:3721  jobId */\n      dup5\n        /* \"contracts/goodhiveContractForJob.sol\":3711:3722  jobs[jobId] */\n      0xffffffffffffffffffffffffffffffff\n      and\n      0xffffffffffffffffffffffffffffffff\n      and\n      dup2\n      mstore\n      0x20\n      add\n      swap1\n      dup2\n      mstore\n      0x20\n      add\n      0x00\n      keccak256\n        /* \"contracts/goodhiveContractForJob.sol\":3711:3728  jobs[jobId].token */\n      0x02\n      add\n      0x00\n      swap1\n      sload\n      swap1\n      0x0100\n      exp\n      swap1\n      div\n      0xffffffffffffffffffffffffffffffffffffffff\n      and\n        /* \"contracts/goodhiveContractForJob.sol\":3680:3729  ERC20Token _Token = ERC20Token(jobs[jobId].token) */\n      swap1\n      pop\n        /* \"contracts/goodhiveContractForJob.sol\":3756:3757  0 */\n      0x00\n        /* \"contracts/goodhiveContractForJob.sol\":3747:3753  amount */\n      dup3\n        /* \"contracts/goodhiveContractForJob.sol\":3747:3757  amount > 0 */\n      gt\n        /* \"contracts/goodhiveContractForJob.sol\":3739:3784  require(amount > 0, \"No balance to withdraw\") */\n      tag_120\n      jumpi\n      mload(0x40)\n      0x08c379a000000000000000000000000000000000000000000000000000000000\n      dup2\n      mstore\n      0x04\n      add\n      tag_121\n      swap1\n      tag_59\n      jump\t// in\n    tag_121:\n      mload(0x40)\n      dup1\n      swap2\n      sub\n      swap1\n      revert\n    tag_120:\n        /* \"contracts/goodhiveContractForJob.sol\":3824:3830  amount */\n      dup2\n        /* \"contracts/goodhiveContractForJob.sol\":3802:3806  jobs */\n      0x05\n        /* \"contracts/goodhiveContractForJob.sol\":3802:3813  jobs[jobId] */\n      0x00\n        /* \"contracts/goodhiveContractForJob.sol\":3807:3812  jobId */\n      dup6\n        /* \"contracts/goodhiveContractForJob.sol\":3802:3813  jobs[jobId] */\n      0xffffffffffffffffffffffffffffffff\n      and\n      0xffffffffffffffffffffffffffffffff\n      and\n      dup2\n      mstore\n      0x20\n      add\n      swap1\n      dup2\n      mstore\n      0x20\n      add\n      0x00\n      keccak256\n        /* \"contracts/goodhiveContractForJob.sol\":3802:3820  jobs[jobId].amount */\n      0x01\n      add\n      sload\n        /* \"contracts/goodhiveContractForJob.sol\":3802:3830  jobs[jobId].amount >= amount */\n      lt\n      iszero\n        /* \"contracts/goodhiveContractForJob.sol\":3794:3855  require(jobs[jobId].amount >= amount, \"Insufficient balance\") */\n      tag_122\n      jumpi\n      mload(0x40)\n      0x08c379a000000000000000000000000000000000000000000000000000000000\n      dup2\n      mstore\n      0x04\n      add\n      tag_123\n      swap1\n      tag_101\n      jump\t// in\n    tag_123:\n      mload(0x40)\n      dup1\n      swap2\n      sub\n      swap1\n      revert\n    tag_122:\n        /* \"contracts/goodhiveContractForJob.sol\":3873:3879  _Token */\n      dup1\n        /* \"contracts/goodhiveContractForJob.sol\":3873:3888  _Token.transfer */\n      0xffffffffffffffffffffffffffffffffffffffff\n      and\n      0xa9059cbb\n        /* \"contracts/goodhiveContractForJob.sol\":3889:3899  msg.sender */\n      caller\n        /* \"contracts/goodhiveContractForJob.sol\":3901:3907  amount */\n      dup5\n        /* \"contracts/goodhiveContractForJob.sol\":3873:3908  _Token.transfer(msg.sender, amount) */\n      mload(0x40)\n      dup4\n      0xffffffff\n      and\n      0xe0\n      shl\n      dup2\n      mstore\n      0x04\n      add\n      tag_124\n      swap3\n      swap2\n      swap1\n      tag_61\n      jump\t// in\n    tag_124:\n      0x20\n      mload(0x40)\n      dup1\n      dup4\n      sub\n      dup2\n      0x00\n      dup8\n      gas\n      call\n      iszero\n      dup1\n      iszero\n      tag_126\n      jumpi\n      returndatasize\n      0x00\n      dup1\n      returndatacopy\n      revert(0x00, returndatasize)\n    tag_126:\n      pop\n      pop\n      pop\n      pop\n      mload(0x40)\n      returndatasize\n      not(0x1f)\n      0x1f\n      dup3\n      add\n      and\n      dup3\n      add\n      dup1\n      0x40\n      mstore\n      pop\n      dup2\n      add\n      swap1\n      tag_127\n      swap2\n      swap1\n      tag_65\n      jump\t// in\n    tag_127:\n        /* \"contracts/goodhiveContractForJob.sol\":3865:3931  require(_Token.transfer(msg.sender, amount), \"Failed to transfer\") */\n      tag_128\n      jumpi\n      mload(0x40)\n      0x08c379a000000000000000000000000000000000000000000000000000000000\n      dup2\n      mstore\n      0x04\n      add\n      tag_129\n      swap1\n      tag_130\n      jump\t// in\n    tag_129:\n      mload(0x40)\n      dup1\n      swap2\n      sub\n      swap1\n      revert\n    tag_128:\n        /* \"contracts/goodhiveContractForJob.sol\":3963:3969  amount */\n      dup2\n        /* \"contracts/goodhiveContractForJob.sol\":3941:3945  jobs */\n      0x05\n        /* \"contracts/goodhiveContractForJob.sol\":3941:3952  jobs[jobId] */\n      0x00\n        /* \"contracts/goodhiveContractForJob.sol\":3946:3951  jobId */\n      dup6\n        /* \"contracts/goodhiveContractForJob.sol\":3941:3952  jobs[jobId] */\n      0xffffffffffffffffffffffffffffffff\n      and\n      0xffffffffffffffffffffffffffffffff\n      and\n      dup2\n      mstore\n      0x20\n      add\n      swap1\n      dup2\n      mstore\n      0x20\n      add\n      0x00\n      keccak256\n        /* \"contracts/goodhiveContractForJob.sol\":3941:3959  jobs[jobId].amount */\n      0x01\n      add\n      0x00\n        /* \"contracts/goodhiveContractForJob.sol\":3941:3969  jobs[jobId].amount -= amount */\n      dup3\n      dup3\n      sload\n      tag_131\n      swap2\n      swap1\n      tag_132\n      jump\t// in\n    tag_131:\n      swap3\n      pop\n      pop\n      dup2\n      swap1\n      sstore\n      pop\n        /* \"contracts/goodhiveContractForJob.sol\":4002:4012  msg.sender */\n      caller\n        /* \"contracts/goodhiveContractForJob.sol\":3984:4021  AllFundsWithdrawn(msg.sender, amount) */\n      0xffffffffffffffffffffffffffffffffffffffff\n      and\n      0xd867cfadc420a62f8ddbfaf0ee08af17bef908fdeb647de660511cebe642486c\n        /* \"contracts/goodhiveContractForJob.sol\":4014:4020  amount */\n      dup4\n        /* \"contracts/goodhiveContractForJob.sol\":3984:4021  AllFundsWithdrawn(msg.sender, amount) */\n      mload(0x40)\n      tag_133\n      swap2\n      swap1\n      tag_37\n      jump\t// in\n    tag_133:\n      mload(0x40)\n      dup1\n      swap2\n      sub\n      swap1\n      log2\n        /* \"contracts/goodhiveContractForJob.sol\":3513:4028  {... */\n      pop\n        /* \"contracts/goodhiveContractForJob.sol\":3450:4028  function withdrawFunds(uint128 jobId, uint256 amount) external {... */\n      pop\n      pop\n      jump\t// out\n        /* \"contracts/goodhiveContractForJob.sol\":2707:3374  function sendTheFees(uint128 jobId, uint256 amount) external {... */\n    tag_50:\n        /* \"contracts/goodhiveContractForJob.sol\":2809:2810  0 */\n      0x00\n        /* \"contracts/goodhiveContractForJob.sol\":2781:2811  jobs[jobId].user != address(0) */\n      0xffffffffffffffffffffffffffffffffffffffff\n      and\n        /* \"contracts/goodhiveContractForJob.sol\":2781:2785  jobs */\n      0x05\n        /* \"contracts/goodhiveContractForJob.sol\":2781:2792  jobs[jobId] */\n      0x00\n        /* \"contracts/goodhiveContractForJob.sol\":2786:2791  jobId */\n      dup5\n        /* \"contracts/goodhiveContractForJob.sol\":2781:2792  jobs[jobId] */\n      0xffffffffffffffffffffffffffffffff\n      and\n      0xffffffffffffffffffffffffffffffff\n      and\n      dup2\n      mstore\n      0x20\n      add\n      swap1\n      dup2\n      mstore\n      0x20\n      add\n      0x00\n      keccak256\n        /* \"contracts/goodhiveContractForJob.sol\":2781:2797  jobs[jobId].user */\n      0x00\n      add\n      0x00\n      swap1\n      sload\n      swap1\n      0x0100\n      exp\n      swap1\n      div\n      0xffffffffffffffffffffffffffffffffffffffff\n      and\n        /* \"contracts/goodhiveContractForJob.sol\":2781:2811  jobs[jobId].user != address(0) */\n      0xffffffffffffffffffffffffffffffffffffffff\n      and\n      eq\n      iszero\n        /* \"contracts/goodhiveContractForJob.sol\":2781:2845  jobs[jobId].user != address(0) && jobs[jobId].user != msg.sender */\n      dup1\n      iszero\n      tag_135\n      jumpi\n      pop\n        /* \"contracts/goodhiveContractForJob.sol\":2835:2845  msg.sender */\n      caller\n        /* \"contracts/goodhiveContractForJob.sol\":2815:2845  jobs[jobId].user != msg.sender */\n      0xffffffffffffffffffffffffffffffffffffffff\n      and\n        /* \"contracts/goodhiveContractForJob.sol\":2815:2819  jobs */\n      0x05\n        /* \"contracts/goodhiveContractForJob.sol\":2815:2826  jobs[jobId] */\n      0x00\n        /* \"contracts/goodhiveContractForJob.sol\":2820:2825  jobId */\n      dup5\n        /* \"contracts/goodhiveContractForJob.sol\":2815:2826  jobs[jobId] */\n      0xffffffffffffffffffffffffffffffff\n      and\n      0xffffffffffffffffffffffffffffffff\n      and\n      dup2\n      mstore\n      0x20\n      add\n      swap1\n      dup2\n      mstore\n      0x20\n      add\n      0x00\n      keccak256\n        /* \"contracts/goodhiveContractForJob.sol\":2815:2831  jobs[jobId].user */\n      0x00\n      add\n      0x00\n      swap1\n      sload\n      swap1\n      0x0100\n      exp\n      swap1\n      div\n      0xffffffffffffffffffffffffffffffffffffffff\n      and\n        /* \"contracts/goodhiveContractForJob.sol\":2815:2845  jobs[jobId].user != msg.sender */\n      0xffffffffffffffffffffffffffffffffffffffff\n      and\n      eq\n      iszero\n        /* \"contracts/goodhiveContractForJob.sol\":2781:2845  jobs[jobId].user != address(0) && jobs[jobId].user != msg.sender */\n    tag_135:\n        /* \"contracts/goodhiveContractForJob.sol\":2778:2924  if(jobs[jobId].user != address(0) && jobs[jobId].user != msg.sender){... */\n      iszero\n      tag_136\n      jumpi\n        /* \"contracts/goodhiveContractForJob.sol\":2868:2873  false */\n      0x00\n        /* \"contracts/goodhiveContractForJob.sol\":2860:2913  require(false, \"You are not allowed to pay the fees\") */\n      tag_137\n      jumpi\n      mload(0x40)\n      0x08c379a000000000000000000000000000000000000000000000000000000000\n      dup2\n      mstore\n      0x04\n      add\n      tag_138\n      swap1\n      tag_139\n      jump\t// in\n    tag_138:\n      mload(0x40)\n      dup1\n      swap2\n      sub\n      swap1\n      revert\n    tag_137:\n        /* \"contracts/goodhiveContractForJob.sol\":2778:2924  if(jobs[jobId].user != address(0) && jobs[jobId].user != msg.sender){... */\n    tag_136:\n        /* \"contracts/goodhiveContractForJob.sol\":2958:2959  0 */\n      0x00\n        /* \"contracts/goodhiveContractForJob.sol\":2936:2940  jobs */\n      0x05\n        /* \"contracts/goodhiveContractForJob.sol\":2936:2947  jobs[jobId] */\n      0x00\n        /* \"contracts/goodhiveContractForJob.sol\":2941:2946  jobId */\n      dup5\n        /* \"contracts/goodhiveContractForJob.sol\":2936:2947  jobs[jobId] */\n      0xffffffffffffffffffffffffffffffff\n      and\n      0xffffffffffffffffffffffffffffffff\n      and\n      dup2\n      mstore\n      0x20\n      add\n      swap1\n      dup2\n      mstore\n      0x20\n      add\n      0x00\n      keccak256\n        /* \"contracts/goodhiveContractForJob.sol\":2936:2954  jobs[jobId].amount */\n      0x01\n      add\n      sload\n        /* \"contracts/goodhiveContractForJob.sol\":2936:2959  jobs[jobId].amount == 0 */\n      sub\n        /* \"contracts/goodhiveContractForJob.sol\":2933:3023  if(jobs[jobId].amount == 0){... */\n      tag_140\n      jumpi\n        /* \"contracts/goodhiveContractForJob.sol\":2982:2987  false */\n      0x00\n        /* \"contracts/goodhiveContractForJob.sol\":2974:3012  require(false, \"Insufficient balance\") */\n      tag_141\n      jumpi\n      mload(0x40)\n      0x08c379a000000000000000000000000000000000000000000000000000000000\n      dup2\n      mstore\n      0x04\n      add\n      tag_142\n      swap1\n      tag_101\n      jump\t// in\n    tag_142:\n      mload(0x40)\n      dup1\n      swap2\n      sub\n      swap1\n      revert\n    tag_141:\n        /* \"contracts/goodhiveContractForJob.sol\":2933:3023  if(jobs[jobId].amount == 0){... */\n    tag_140:\n        /* \"contracts/goodhiveContractForJob.sol\":3032:3049  ERC20Token _Token */\n      0x00\n        /* \"contracts/goodhiveContractForJob.sol\":3063:3067  jobs */\n      0x05\n        /* \"contracts/goodhiveContractForJob.sol\":3063:3074  jobs[jobId] */\n      0x00\n        /* \"contracts/goodhiveContractForJob.sol\":3068:3073  jobId */\n      dup5\n        /* \"contracts/goodhiveContractForJob.sol\":3063:3074  jobs[jobId] */\n      0xffffffffffffffffffffffffffffffff\n      and\n      0xffffffffffffffffffffffffffffffff\n      and\n      dup2\n      mstore\n      0x20\n      add\n      swap1\n      dup2\n      mstore\n      0x20\n      add\n      0x00\n      keccak256\n        /* \"contracts/goodhiveContractForJob.sol\":3063:3080  jobs[jobId].token */\n      0x02\n      add\n      0x00\n      swap1\n      sload\n      swap1\n      0x0100\n      exp\n      swap1\n      div\n      0xffffffffffffffffffffffffffffffffffffffff\n      and\n        /* \"contracts/goodhiveContractForJob.sol\":3032:3081  ERC20Token _Token = ERC20Token(jobs[jobId].token) */\n      swap1\n      pop\n        /* \"contracts/goodhiveContractForJob.sol\":3108:3109  0 */\n      0x00\n        /* \"contracts/goodhiveContractForJob.sol\":3099:3105  amount */\n      dup3\n        /* \"contracts/goodhiveContractForJob.sol\":3099:3109  amount > 0 */\n      gt\n        /* \"contracts/goodhiveContractForJob.sol\":3091:3145  require(amount > 0, \"Amount should be greater than 0\") */\n      tag_143\n      jumpi\n      mload(0x40)\n      0x08c379a000000000000000000000000000000000000000000000000000000000\n      dup2\n      mstore\n      0x04\n      add\n      tag_144\n      swap1\n      tag_85\n      jump\t// in\n    tag_144:\n      mload(0x40)\n      dup1\n      swap2\n      sub\n      swap1\n      revert\n    tag_143:\n        /* \"contracts/goodhiveContractForJob.sol\":3173:3177  jobs */\n      0x05\n        /* \"contracts/goodhiveContractForJob.sol\":3173:3184  jobs[jobId] */\n      0x00\n        /* \"contracts/goodhiveContractForJob.sol\":3178:3183  jobId */\n      dup5\n        /* \"contracts/goodhiveContractForJob.sol\":3173:3184  jobs[jobId] */\n      0xffffffffffffffffffffffffffffffff\n      and\n      0xffffffffffffffffffffffffffffffff\n      and\n      dup2\n      mstore\n      0x20\n      add\n      swap1\n      dup2\n      mstore\n      0x20\n      add\n      0x00\n      keccak256\n        /* \"contracts/goodhiveContractForJob.sol\":3173:3191  jobs[jobId].amount */\n      0x01\n      add\n      sload\n        /* \"contracts/goodhiveContractForJob.sol\":3163:3169  amount */\n      dup3\n        /* \"contracts/goodhiveContractForJob.sol\":3163:3191  amount <= jobs[jobId].amount */\n      gt\n      iszero\n        /* \"contracts/goodhiveContractForJob.sol\":3155:3216  require(amount <= jobs[jobId].amount, \"Insufficient balance\") */\n      tag_145\n      jumpi\n      mload(0x40)\n      0x08c379a000000000000000000000000000000000000000000000000000000000\n      dup2\n      mstore\n      0x04\n      add\n      tag_146\n      swap1\n      tag_101\n      jump\t// in\n    tag_146:\n      mload(0x40)\n      dup1\n      swap2\n      sub\n      swap1\n      revert\n    tag_145:\n        /* \"contracts/goodhiveContractForJob.sol\":3248:3254  amount */\n      dup2\n        /* \"contracts/goodhiveContractForJob.sol\":3226:3230  jobs */\n      0x05\n        /* \"contracts/goodhiveContractForJob.sol\":3226:3237  jobs[jobId] */\n      0x00\n        /* \"contracts/goodhiveContractForJob.sol\":3231:3236  jobId */\n      dup6\n        /* \"contracts/goodhiveContractForJob.sol\":3226:3237  jobs[jobId] */\n      0xffffffffffffffffffffffffffffffff\n      and\n      0xffffffffffffffffffffffffffffffff\n      and\n      dup2\n      mstore\n      0x20\n      add\n      swap1\n      dup2\n      mstore\n      0x20\n      add\n      0x00\n      keccak256\n        /* \"contracts/goodhiveContractForJob.sol\":3226:3244  jobs[jobId].amount */\n      0x01\n      add\n      0x00\n        /* \"contracts/goodhiveContractForJob.sol\":3226:3254  jobs[jobId].amount -= amount */\n      dup3\n      dup3\n      sload\n      tag_147\n      swap2\n      swap1\n      tag_132\n      jump\t// in\n    tag_147:\n      swap3\n      pop\n      pop\n      dup2\n      swap1\n      sstore\n      pop\n        /* \"contracts/goodhiveContractForJob.sol\":3272:3278  _Token */\n      dup1\n        /* \"contracts/goodhiveContractForJob.sol\":3272:3287  _Token.transfer */\n      0xffffffffffffffffffffffffffffffffffffffff\n      and\n      0xa9059cbb\n        /* \"contracts/goodhiveContractForJob.sol\":3288:3293  owner */\n      0x04\n      0x00\n      swap1\n      sload\n      swap1\n      0x0100\n      exp\n      swap1\n      div\n      0xffffffffffffffffffffffffffffffffffffffff\n      and\n        /* \"contracts/goodhiveContractForJob.sol\":3295:3301  amount */\n      dup5\n        /* \"contracts/goodhiveContractForJob.sol\":3272:3302  _Token.transfer(owner, amount) */\n      mload(0x40)\n      dup4\n      0xffffffff\n      and\n      0xe0\n      shl\n      dup2\n      mstore\n      0x04\n      add\n      tag_148\n      swap3\n      swap2\n      swap1\n      tag_61\n      jump\t// in\n    tag_148:\n      0x20\n      mload(0x40)\n      dup1\n      dup4\n      sub\n      dup2\n      0x00\n      dup8\n      gas\n      call\n      iszero\n      dup1\n      iszero\n      tag_150\n      jumpi\n      returndatasize\n      0x00\n      dup1\n      returndatacopy\n      revert(0x00, returndatasize)\n    tag_150:\n      pop\n      pop\n      pop\n      pop\n      mload(0x40)\n      returndatasize\n      not(0x1f)\n      0x1f\n      dup3\n      add\n      and\n      dup3\n      add\n      dup1\n      0x40\n      mstore\n      pop\n      dup2\n      add\n      swap1\n      tag_151\n      swap2\n      swap1\n      tag_65\n      jump\t// in\n    tag_151:\n        /* \"contracts/goodhiveContractForJob.sol\":3264:3325  require(_Token.transfer(owner, amount), \"Failed to transfer\") */\n      tag_152\n      jumpi\n      mload(0x40)\n      0x08c379a000000000000000000000000000000000000000000000000000000000\n      dup2\n      mstore\n      0x04\n      add\n      tag_153\n      swap1\n      tag_130\n      jump\t// in\n    tag_153:\n      mload(0x40)\n      dup1\n      swap2\n      sub\n      swap1\n      revert\n    tag_152:\n        /* \"contracts/goodhiveContractForJob.sol\":3348:3358  msg.sender */\n      caller\n        /* \"contracts/goodhiveContractForJob.sol\":3340:3367  PayFees(msg.sender, amount) */\n      0xffffffffffffffffffffffffffffffffffffffff\n      and\n      0x69a94b75ba75e6544fe27fa49b471e1f3146c9a7c6bb2fa0b8a6d2bc1dc94693\n        /* \"contracts/goodhiveContractForJob.sol\":3360:3366  amount */\n      dup4\n        /* \"contracts/goodhiveContractForJob.sol\":3340:3367  PayFees(msg.sender, amount) */\n      mload(0x40)\n      tag_154\n      swap2\n      swap1\n      tag_37\n      jump\t// in\n    tag_154:\n      mload(0x40)\n      dup1\n      swap2\n      sub\n      swap1\n      log2\n        /* \"contracts/goodhiveContractForJob.sol\":2768:3374  {... */\n      pop\n        /* \"contracts/goodhiveContractForJob.sol\":2707:3374  function sendTheFees(uint128 jobId, uint256 amount) external {... */\n      pop\n      pop\n      jump\t// out\n        /* \"#utility.yul\":88:205   */\n    tag_156:\n        /* \"#utility.yul\":197:198   */\n      0x00\n        /* \"#utility.yul\":194:195   */\n      dup1\n        /* \"#utility.yul\":187:199   */\n      revert\n        /* \"#utility.yul\":334:452   */\n    tag_158:\n        /* \"#utility.yul\":371:378   */\n      0x00\n        /* \"#utility.yul\":411:445   */\n      0xffffffffffffffffffffffffffffffff\n        /* \"#utility.yul\":404:409   */\n      dup3\n        /* \"#utility.yul\":400:446   */\n      and\n        /* \"#utility.yul\":389:446   */\n      swap1\n      pop\n        /* \"#utility.yul\":334:452   */\n      swap2\n      swap1\n      pop\n      jump\t// out\n        /* \"#utility.yul\":458:580   */\n    tag_159:\n        /* \"#utility.yul\":531:555   */\n      tag_200\n        /* \"#utility.yul\":549:554   */\n      dup2\n        /* \"#utility.yul\":531:555   */\n      tag_158\n      jump\t// in\n    tag_200:\n        /* \"#utility.yul\":524:529   */\n      dup2\n        /* \"#utility.yul\":521:556   */\n      eq\n        /* \"#utility.yul\":511:574   */\n      tag_201\n      jumpi\n        /* \"#utility.yul\":570:571   */\n      0x00\n        /* \"#utility.yul\":567:568   */\n      dup1\n        /* \"#utility.yul\":560:572   */\n      revert\n        /* \"#utility.yul\":511:574   */\n    tag_201:\n        /* \"#utility.yul\":458:580   */\n      pop\n      jump\t// out\n        /* \"#utility.yul\":586:725   */\n    tag_160:\n        /* \"#utility.yul\":632:637   */\n      0x00\n        /* \"#utility.yul\":670:676   */\n      dup2\n        /* \"#utility.yul\":657:677   */\n      calldataload\n        /* \"#utility.yul\":648:677   */\n      swap1\n      pop\n        /* \"#utility.yul\":686:719   */\n      tag_203\n        /* \"#utility.yul\":713:718   */\n      dup2\n        /* \"#utility.yul\":686:719   */\n      tag_159\n      jump\t// in\n    tag_203:\n        /* \"#utility.yul\":586:725   */\n      swap3\n      swap2\n      pop\n      pop\n      jump\t// out\n        /* \"#utility.yul\":731:1060   */\n    tag_14:\n        /* \"#utility.yul\":790:796   */\n      0x00\n        /* \"#utility.yul\":839:841   */\n      0x20\n        /* \"#utility.yul\":827:836   */\n      dup3\n        /* \"#utility.yul\":818:825   */\n      dup5\n        /* \"#utility.yul\":814:837   */\n      sub\n        /* \"#utility.yul\":810:842   */\n      slt\n        /* \"#utility.yul\":807:926   */\n      iszero\n      tag_205\n      jumpi\n        /* \"#utility.yul\":845:924   */\n      tag_206\n      tag_156\n      jump\t// in\n    tag_206:\n        /* \"#utility.yul\":807:926   */\n    tag_205:\n        /* \"#utility.yul\":965:966   */\n      0x00\n        /* \"#utility.yul\":990:1043   */\n      tag_207\n        /* \"#utility.yul\":1035:1042   */\n      dup5\n        /* \"#utility.yul\":1026:1032   */\n      dup3\n        /* \"#utility.yul\":1015:1024   */\n      dup6\n        /* \"#utility.yul\":1011:1033   */\n      add\n        /* \"#utility.yul\":990:1043   */\n      tag_160\n      jump\t// in\n    tag_207:\n        /* \"#utility.yul\":980:1043   */\n      swap2\n      pop\n        /* \"#utility.yul\":936:1053   */\n      pop\n        /* \"#utility.yul\":731:1060   */\n      swap3\n      swap2\n      pop\n      pop\n      jump\t// out\n        /* \"#utility.yul\":1066:1192   */\n    tag_161:\n        /* \"#utility.yul\":1103:1110   */\n      0x00\n        /* \"#utility.yul\":1143:1185   */\n      0xffffffffffffffffffffffffffffffffffffffff\n        /* \"#utility.yul\":1136:1141   */\n      dup3\n        /* \"#utility.yul\":1132:1186   */\n      and\n        /* \"#utility.yul\":1121:1186   */\n      swap1\n      pop\n        /* \"#utility.yul\":1066:1192   */\n      swap2\n      swap1\n      pop\n      jump\t// out\n        /* \"#utility.yul\":1198:1294   */\n    tag_162:\n        /* \"#utility.yul\":1235:1242   */\n      0x00\n        /* \"#utility.yul\":1264:1288   */\n      tag_210\n        /* \"#utility.yul\":1282:1287   */\n      dup3\n        /* \"#utility.yul\":1264:1288   */\n      tag_161\n      jump\t// in\n    tag_210:\n        /* \"#utility.yul\":1253:1288   */\n      swap1\n      pop\n        /* \"#utility.yul\":1198:1294   */\n      swap2\n      swap1\n      pop\n      jump\t// out\n        /* \"#utility.yul\":1300:1418   */\n    tag_163:\n        /* \"#utility.yul\":1387:1411   */\n      tag_212\n        /* \"#utility.yul\":1405:1410   */\n      dup2\n        /* \"#utility.yul\":1387:1411   */\n      tag_162\n      jump\t// in\n    tag_212:\n        /* \"#utility.yul\":1382:1385   */\n      dup3\n        /* \"#utility.yul\":1375:1412   */\n      mstore\n        /* \"#utility.yul\":1300:1418   */\n      pop\n      pop\n      jump\t// out\n        /* \"#utility.yul\":1424:1501   */\n    tag_164:\n        /* \"#utility.yul\":1461:1468   */\n      0x00\n        /* \"#utility.yul\":1490:1495   */\n      dup2\n        /* \"#utility.yul\":1479:1495   */\n      swap1\n      pop\n        /* \"#utility.yul\":1424:1501   */\n      swap2\n      swap1\n      pop\n      jump\t// out\n        /* \"#utility.yul\":1507:1625   */\n    tag_165:\n        /* \"#utility.yul\":1594:1618   */\n      tag_215\n        /* \"#utility.yul\":1612:1617   */\n      dup2\n        /* \"#utility.yul\":1594:1618   */\n      tag_164\n      jump\t// in\n    tag_215:\n        /* \"#utility.yul\":1589:1592   */\n      dup3\n        /* \"#utility.yul\":1582:1619   */\n      mstore\n        /* \"#utility.yul\":1507:1625   */\n      pop\n      pop\n      jump\t// out\n        /* \"#utility.yul\":1631:2073   */\n    tag_17:\n        /* \"#utility.yul\":1780:1784   */\n      0x00\n        /* \"#utility.yul\":1818:1820   */\n      0x60\n        /* \"#utility.yul\":1807:1816   */\n      dup3\n        /* \"#utility.yul\":1803:1821   */\n      add\n        /* \"#utility.yul\":1795:1821   */\n      swap1\n      pop\n        /* \"#utility.yul\":1831:1902   */\n      tag_217\n        /* \"#utility.yul\":1899:1900   */\n      0x00\n        /* \"#utility.yul\":1888:1897   */\n      dup4\n        /* \"#utility.yul\":1884:1901   */\n      add\n        /* \"#utility.yul\":1875:1881   */\n      dup7\n        /* \"#utility.yul\":1831:1902   */\n      tag_163\n      jump\t// in\n    tag_217:\n        /* \"#utility.yul\":1912:1984   */\n      tag_218\n        /* \"#utility.yul\":1980:1982   */\n      0x20\n        /* \"#utility.yul\":1969:1978   */\n      dup4\n        /* \"#utility.yul\":1965:1983   */\n      add\n        /* \"#utility.yul\":1956:1962   */\n      dup6\n        /* \"#utility.yul\":1912:1984   */\n      tag_165\n      jump\t// in\n    tag_218:\n        /* \"#utility.yul\":1994:2066   */\n      tag_219\n        /* \"#utility.yul\":2062:2064   */\n      0x40\n        /* \"#utility.yul\":2051:2060   */\n      dup4\n        /* \"#utility.yul\":2047:2065   */\n      add\n        /* \"#utility.yul\":2038:2044   */\n      dup5\n        /* \"#utility.yul\":1994:2066   */\n      tag_163\n      jump\t// in\n    tag_219:\n        /* \"#utility.yul\":1631:2073   */\n      swap5\n      swap4\n      pop\n      pop\n      pop\n      pop\n      jump\t// out\n        /* \"#utility.yul\":2079:2301   */\n    tag_26:\n        /* \"#utility.yul\":2172:2176   */\n      0x00\n        /* \"#utility.yul\":2210:2212   */\n      0x20\n        /* \"#utility.yul\":2199:2208   */\n      dup3\n        /* \"#utility.yul\":2195:2213   */\n      add\n        /* \"#utility.yul\":2187:2213   */\n      swap1\n      pop\n        /* \"#utility.yul\":2223:2294   */\n      tag_221\n        /* \"#utility.yul\":2291:2292   */\n      0x00\n        /* \"#utility.yul\":2280:2289   */\n      dup4\n        /* \"#utility.yul\":2276:2293   */\n      add\n        /* \"#utility.yul\":2267:2273   */\n      dup5\n        /* \"#utility.yul\":2223:2294   */\n      tag_163\n      jump\t// in\n    tag_221:\n        /* \"#utility.yul\":2079:2301   */\n      swap3\n      swap2\n      pop\n      pop\n      jump\t// out\n        /* \"#utility.yul\":2307:2529   */\n    tag_37:\n        /* \"#utility.yul\":2400:2404   */\n      0x00\n        /* \"#utility.yul\":2438:2440   */\n      0x20\n        /* \"#utility.yul\":2427:2436   */\n      dup3\n        /* \"#utility.yul\":2423:2441   */\n      add\n        /* \"#utility.yul\":2415:2441   */\n      swap1\n      pop\n        /* \"#utility.yul\":2451:2522   */\n      tag_223\n        /* \"#utility.yul\":2519:2520   */\n      0x00\n        /* \"#utility.yul\":2508:2517   */\n      dup4\n        /* \"#utility.yul\":2504:2521   */\n      add\n        /* \"#utility.yul\":2495:2501   */\n      dup5\n        /* \"#utility.yul\":2451:2522   */\n      tag_165\n      jump\t// in\n    tag_223:\n        /* \"#utility.yul\":2307:2529   */\n      swap3\n      swap2\n      pop\n      pop\n      jump\t// out\n        /* \"#utility.yul\":2535:2657   */\n    tag_166:\n        /* \"#utility.yul\":2608:2632   */\n      tag_225\n        /* \"#utility.yul\":2626:2631   */\n      dup2\n        /* \"#utility.yul\":2608:2632   */\n      tag_164\n      jump\t// in\n    tag_225:\n        /* \"#utility.yul\":2601:2606   */\n      dup2\n        /* \"#utility.yul\":2598:2633   */\n      eq\n        /* \"#utility.yul\":2588:2651   */\n      tag_226\n      jumpi\n        /* \"#utility.yul\":2647:2648   */\n      0x00\n        /* \"#utility.yul\":2644:2645   */\n      dup1\n        /* \"#utility.yul\":2637:2649   */\n      revert\n        /* \"#utility.yul\":2588:2651   */\n    tag_226:\n        /* \"#utility.yul\":2535:2657   */\n      pop\n      jump\t// out\n        /* \"#utility.yul\":2663:2802   */\n    tag_167:\n        /* \"#utility.yul\":2709:2714   */\n      0x00\n        /* \"#utility.yul\":2747:2753   */\n      dup2\n        /* \"#utility.yul\":2734:2754   */\n      calldataload\n        /* \"#utility.yul\":2725:2754   */\n      swap1\n      pop\n        /* \"#utility.yul\":2763:2796   */\n      tag_228\n        /* \"#utility.yul\":2790:2795   */\n      dup2\n        /* \"#utility.yul\":2763:2796   */\n      tag_166\n      jump\t// in\n    tag_228:\n        /* \"#utility.yul\":2663:2802   */\n      swap3\n      swap2\n      pop\n      pop\n      jump\t// out\n        /* \"#utility.yul\":2808:2930   */\n    tag_168:\n        /* \"#utility.yul\":2881:2905   */\n      tag_230\n        /* \"#utility.yul\":2899:2904   */\n      dup2\n        /* \"#utility.yul\":2881:2905   */\n      tag_162\n      jump\t// in\n    tag_230:\n        /* \"#utility.yul\":2874:2879   */\n      dup2\n        /* \"#utility.yul\":2871:2906   */\n      eq\n        /* \"#utility.yul\":2861:2924   */\n      tag_231\n      jumpi\n        /* \"#utility.yul\":2920:2921   */\n      0x00\n        /* \"#utility.yul\":2917:2918   */\n      dup1\n        /* \"#utility.yul\":2910:2922   */\n      revert\n        /* \"#utility.yul\":2861:2924   */\n    tag_231:\n        /* \"#utility.yul\":2808:2930   */\n      pop\n      jump\t// out\n        /* \"#utility.yul\":2936:3075   */\n    tag_169:\n        /* \"#utility.yul\":2982:2987   */\n      0x00\n        /* \"#utility.yul\":3020:3026   */\n      dup2\n        /* \"#utility.yul\":3007:3027   */\n      calldataload\n        /* \"#utility.yul\":2998:3027   */\n      swap1\n      pop\n        /* \"#utility.yul\":3036:3069   */\n      tag_233\n        /* \"#utility.yul\":3063:3068   */\n      dup2\n        /* \"#utility.yul\":3036:3069   */\n      tag_168\n      jump\t// in\n    tag_233:\n        /* \"#utility.yul\":2936:3075   */\n      swap3\n      swap2\n      pop\n      pop\n      jump\t// out\n        /* \"#utility.yul\":3081:3700   */\n    tag_40:\n        /* \"#utility.yul\":3158:3164   */\n      0x00\n        /* \"#utility.yul\":3166:3172   */\n      dup1\n        /* \"#utility.yul\":3174:3180   */\n      0x00\n        /* \"#utility.yul\":3223:3225   */\n      0x60\n        /* \"#utility.yul\":3211:3220   */\n      dup5\n        /* \"#utility.yul\":3202:3209   */\n      dup7\n        /* \"#utility.yul\":3198:3221   */\n      sub\n        /* \"#utility.yul\":3194:3226   */\n      slt\n        /* \"#utility.yul\":3191:3310   */\n      iszero\n      tag_235\n      jumpi\n        /* \"#utility.yul\":3229:3308   */\n      tag_236\n      tag_156\n      jump\t// in\n    tag_236:\n        /* \"#utility.yul\":3191:3310   */\n    tag_235:\n        /* \"#utility.yul\":3349:3350   */\n      0x00\n        /* \"#utility.yul\":3374:3427   */\n      tag_237\n        /* \"#utility.yul\":3419:3426   */\n      dup7\n        /* \"#utility.yul\":3410:3416   */\n      dup3\n        /* \"#utility.yul\":3399:3408   */\n      dup8\n        /* \"#utility.yul\":3395:3417   */\n      add\n        /* \"#utility.yul\":3374:3427   */\n      tag_160\n      jump\t// in\n    tag_237:\n        /* \"#utility.yul\":3364:3427   */\n      swap4\n      pop\n        /* \"#utility.yul\":3320:3437   */\n      pop\n        /* \"#utility.yul\":3476:3478   */\n      0x20\n        /* \"#utility.yul\":3502:3555   */\n      tag_238\n        /* \"#utility.yul\":3547:3554   */\n      dup7\n        /* \"#utility.yul\":3538:3544   */\n      dup3\n        /* \"#utility.yul\":3527:3536   */\n      dup8\n        /* \"#utility.yul\":3523:3545   */\n      add\n        /* \"#utility.yul\":3502:3555   */\n      tag_167\n      jump\t// in\n    tag_238:\n        /* \"#utility.yul\":3492:3555   */\n      swap3\n      pop\n        /* \"#utility.yul\":3447:3565   */\n      pop\n        /* \"#utility.yul\":3604:3606   */\n      0x40\n        /* \"#utility.yul\":3630:3683   */\n      tag_239\n        /* \"#utility.yul\":3675:3682   */\n      dup7\n        /* \"#utility.yul\":3666:3672   */\n      dup3\n        /* \"#utility.yul\":3655:3664   */\n      dup8\n        /* \"#utility.yul\":3651:3673   */\n      add\n        /* \"#utility.yul\":3630:3683   */\n      tag_169\n      jump\t// in\n    tag_239:\n        /* \"#utility.yul\":3620:3683   */\n      swap2\n      pop\n        /* \"#utility.yul\":3575:3693   */\n      pop\n        /* \"#utility.yul\":3081:3700   */\n      swap3\n      pop\n      swap3\n      pop\n      swap3\n      jump\t// out\n        /* \"#utility.yul\":3706:4180   */\n    tag_45:\n        /* \"#utility.yul\":3774:3780   */\n      0x00\n        /* \"#utility.yul\":3782:3788   */\n      dup1\n        /* \"#utility.yul\":3831:3833   */\n      0x40\n        /* \"#utility.yul\":3819:3828   */\n      dup4\n        /* \"#utility.yul\":3810:3817   */\n      dup6\n        /* \"#utility.yul\":3806:3829   */\n      sub\n        /* \"#utility.yul\":3802:3834   */\n      slt\n        /* \"#utility.yul\":3799:3918   */\n      iszero\n      tag_241\n      jumpi\n        /* \"#utility.yul\":3837:3916   */\n      tag_242\n      tag_156\n      jump\t// in\n    tag_242:\n        /* \"#utility.yul\":3799:3918   */\n    tag_241:\n        /* \"#utility.yul\":3957:3958   */\n      0x00\n        /* \"#utility.yul\":3982:4035   */\n      tag_243\n        /* \"#utility.yul\":4027:4034   */\n      dup6\n        /* \"#utility.yul\":4018:4024   */\n      dup3\n        /* \"#utility.yul\":4007:4016   */\n      dup7\n        /* \"#utility.yul\":4003:4025   */\n      add\n        /* \"#utility.yul\":3982:4035   */\n      tag_160\n      jump\t// in\n    tag_243:\n        /* \"#utility.yul\":3972:4035   */\n      swap3\n      pop\n        /* \"#utility.yul\":3928:4045   */\n      pop\n        /* \"#utility.yul\":4084:4086   */\n      0x20\n        /* \"#utility.yul\":4110:4163   */\n      tag_244\n        /* \"#utility.yul\":4155:4162   */\n      dup6\n        /* \"#utility.yul\":4146:4152   */\n      dup3\n        /* \"#utility.yul\":4135:4144   */\n      dup7\n        /* \"#utility.yul\":4131:4153   */\n      add\n        /* \"#utility.yul\":4110:4163   */\n      tag_167\n      jump\t// in\n    tag_244:\n        /* \"#utility.yul\":4100:4163   */\n      swap2\n      pop\n        /* \"#utility.yul\":4055:4173   */\n      pop\n        /* \"#utility.yul\":3706:4180   */\n      swap3\n      pop\n      swap3\n      swap1\n      pop\n      jump\t// out\n        /* \"#utility.yul\":4186:4355   */\n    tag_170:\n        /* \"#utility.yul\":4270:4281   */\n      0x00\n        /* \"#utility.yul\":4304:4310   */\n      dup3\n        /* \"#utility.yul\":4299:4302   */\n      dup3\n        /* \"#utility.yul\":4292:4311   */\n      mstore\n        /* \"#utility.yul\":4344:4348   */\n      0x20\n        /* \"#utility.yul\":4339:4342   */\n      dup3\n        /* \"#utility.yul\":4335:4349   */\n      add\n        /* \"#utility.yul\":4320:4349   */\n      swap1\n      pop\n        /* \"#utility.yul\":4186:4355   */\n      swap3\n      swap2\n      pop\n      pop\n      jump\t// out\n        /* \"#utility.yul\":4361:4585   */\n    tag_171:\n        /* \"#utility.yul\":4501:4535   */\n      0x596f7520617265206e6f7420616c6c6f77656420746f20757365207468697320\n        /* \"#utility.yul\":4497:4498   */\n      0x00\n        /* \"#utility.yul\":4489:4495   */\n      dup3\n        /* \"#utility.yul\":4485:4499   */\n      add\n        /* \"#utility.yul\":4478:4536   */\n      mstore\n        /* \"#utility.yul\":4570:4577   */\n      0x6a6f626964000000000000000000000000000000000000000000000000000000\n        /* \"#utility.yul\":4565:4567   */\n      0x20\n        /* \"#utility.yul\":4557:4563   */\n      dup3\n        /* \"#utility.yul\":4553:4568   */\n      add\n        /* \"#utility.yul\":4546:4578   */\n      mstore\n        /* \"#utility.yul\":4361:4585   */\n      pop\n      jump\t// out\n        /* \"#utility.yul\":4591:4957   */\n    tag_172:\n        /* \"#utility.yul\":4733:4736   */\n      0x00\n        /* \"#utility.yul\":4754:4821   */\n      tag_248\n        /* \"#utility.yul\":4818:4820   */\n      0x25\n        /* \"#utility.yul\":4813:4816   */\n      dup4\n        /* \"#utility.yul\":4754:4821   */\n      tag_170\n      jump\t// in\n    tag_248:\n        /* \"#utility.yul\":4747:4821   */\n      swap2\n      pop\n        /* \"#utility.yul\":4830:4923   */\n      tag_249\n        /* \"#utility.yul\":4919:4922   */\n      dup3\n        /* \"#utility.yul\":4830:4923   */\n      tag_171\n      jump\t// in\n    tag_249:\n        /* \"#utility.yul\":4948:4950   */\n      0x40\n        /* \"#utility.yul\":4943:4946   */\n      dup3\n        /* \"#utility.yul\":4939:4951   */\n      add\n        /* \"#utility.yul\":4932:4951   */\n      swap1\n      pop\n        /* \"#utility.yul\":4591:4957   */\n      swap2\n      swap1\n      pop\n      jump\t// out\n        /* \"#utility.yul\":4963:5382   */\n    tag_56:\n        /* \"#utility.yul\":5129:5133   */\n      0x00\n        /* \"#utility.yul\":5167:5169   */\n      0x20\n        /* \"#utility.yul\":5156:5165   */\n      dup3\n        /* \"#utility.yul\":5152:5170   */\n      add\n        /* \"#utility.yul\":5144:5170   */\n      swap1\n      pop\n        /* \"#utility.yul\":5216:5225   */\n      dup2\n        /* \"#utility.yul\":5210:5214   */\n      dup2\n        /* \"#utility.yul\":5206:5226   */\n      sub\n        /* \"#utility.yul\":5202:5203   */\n      0x00\n        /* \"#utility.yul\":5191:5200   */\n      dup4\n        /* \"#utility.yul\":5187:5204   */\n      add\n        /* \"#utility.yul\":5180:5227   */\n      mstore\n        /* \"#utility.yul\":5244:5375   */\n      tag_251\n        /* \"#utility.yul\":5370:5374   */\n      dup2\n        /* \"#utility.yul\":5244:5375   */\n      tag_172\n      jump\t// in\n    tag_251:\n        /* \"#utility.yul\":5236:5375   */\n      swap1\n      pop\n        /* \"#utility.yul\":4963:5382   */\n      swap2\n      swap1\n      pop\n      jump\t// out\n        /* \"#utility.yul\":5388:5560   */\n    tag_173:\n        /* \"#utility.yul\":5528:5552   */\n      0x4e6f2062616c616e636520746f20776974686472617700000000000000000000\n        /* \"#utility.yul\":5524:5525   */\n      0x00\n        /* \"#utility.yul\":5516:5522   */\n      dup3\n        /* \"#utility.yul\":5512:5526   */\n      add\n        /* \"#utility.yul\":5505:5553   */\n      mstore\n        /* \"#utility.yul\":5388:5560   */\n      pop\n      jump\t// out\n        /* \"#utility.yul\":5566:5932   */\n    tag_174:\n        /* \"#utility.yul\":5708:5711   */\n      0x00\n        /* \"#utility.yul\":5729:5796   */\n      tag_254\n        /* \"#utility.yul\":5793:5795   */\n      0x16\n        /* \"#utility.yul\":5788:5791   */\n      dup4\n        /* \"#utility.yul\":5729:5796   */\n      tag_170\n      jump\t// in\n    tag_254:\n        /* \"#utility.yul\":5722:5796   */\n      swap2\n      pop\n        /* \"#utility.yul\":5805:5898   */\n      tag_255\n        /* \"#utility.yul\":5894:5897   */\n      dup3\n        /* \"#utility.yul\":5805:5898   */\n      tag_173\n      jump\t// in\n    tag_255:\n        /* \"#utility.yul\":5923:5925   */\n      0x20\n        /* \"#utility.yul\":5918:5921   */\n      dup3\n        /* \"#utility.yul\":5914:5926   */\n      add\n        /* \"#utility.yul\":5907:5926   */\n      swap1\n      pop\n        /* \"#utility.yul\":5566:5932   */\n      swap2\n      swap1\n      pop\n      jump\t// out\n        /* \"#utility.yul\":5938:6357   */\n    tag_59:\n        /* \"#utility.yul\":6104:6108   */\n      0x00\n        /* \"#utility.yul\":6142:6144   */\n      0x20\n        /* \"#utility.yul\":6131:6140   */\n      dup3\n        /* \"#utility.yul\":6127:6145   */\n      add\n        /* \"#utility.yul\":6119:6145   */\n      swap1\n      pop\n        /* \"#utility.yul\":6191:6200   */\n      dup2\n        /* \"#utility.yul\":6185:6189   */\n      dup2\n        /* \"#utility.yul\":6181:6201   */\n      sub\n        /* \"#utility.yul\":6177:6178   */\n      0x00\n        /* \"#utility.yul\":6166:6175   */\n      dup4\n        /* \"#utility.yul\":6162:6179   */\n      add\n        /* \"#utility.yul\":6155:6202   */\n      mstore\n        /* \"#utility.yul\":6219:6350   */\n      tag_257\n        /* \"#utility.yul\":6345:6349   */\n      dup2\n        /* \"#utility.yul\":6219:6350   */\n      tag_174\n      jump\t// in\n    tag_257:\n        /* \"#utility.yul\":6211:6350   */\n      swap1\n      pop\n        /* \"#utility.yul\":5938:6357   */\n      swap2\n      swap1\n      pop\n      jump\t// out\n        /* \"#utility.yul\":6363:6695   */\n    tag_61:\n        /* \"#utility.yul\":6484:6488   */\n      0x00\n        /* \"#utility.yul\":6522:6524   */\n      0x40\n        /* \"#utility.yul\":6511:6520   */\n      dup3\n        /* \"#utility.yul\":6507:6525   */\n      add\n        /* \"#utility.yul\":6499:6525   */\n      swap1\n      pop\n        /* \"#utility.yul\":6535:6606   */\n      tag_259\n        /* \"#utility.yul\":6603:6604   */\n      0x00\n        /* \"#utility.yul\":6592:6601   */\n      dup4\n        /* \"#utility.yul\":6588:6605   */\n      add\n        /* \"#utility.yul\":6579:6585   */\n      dup6\n        /* \"#utility.yul\":6535:6606   */\n      tag_163\n      jump\t// in\n    tag_259:\n        /* \"#utility.yul\":6616:6688   */\n      tag_260\n        /* \"#utility.yul\":6684:6686   */\n      0x20\n        /* \"#utility.yul\":6673:6682   */\n      dup4\n        /* \"#utility.yul\":6669:6687   */\n      add\n        /* \"#utility.yul\":6660:6666   */\n      dup5\n        /* \"#utility.yul\":6616:6688   */\n      tag_165\n      jump\t// in\n    tag_260:\n        /* \"#utility.yul\":6363:6695   */\n      swap4\n      swap3\n      pop\n      pop\n      pop\n      jump\t// out\n        /* \"#utility.yul\":6701:6791   */\n    tag_175:\n        /* \"#utility.yul\":6735:6742   */\n      0x00\n        /* \"#utility.yul\":6778:6783   */\n      dup2\n        /* \"#utility.yul\":6771:6784   */\n      iszero\n        /* \"#utility.yul\":6764:6785   */\n      iszero\n        /* \"#utility.yul\":6753:6785   */\n      swap1\n      pop\n        /* \"#utility.yul\":6701:6791   */\n      swap2\n      swap1\n      pop\n      jump\t// out\n        /* \"#utility.yul\":6797:6913   */\n    tag_176:\n        /* \"#utility.yul\":6867:6888   */\n      tag_263\n        /* \"#utility.yul\":6882:6887   */\n      dup2\n        /* \"#utility.yul\":6867:6888   */\n      tag_175\n      jump\t// in\n    tag_263:\n        /* \"#utility.yul\":6860:6865   */\n      dup2\n        /* \"#utility.yul\":6857:6889   */\n      eq\n        /* \"#utility.yul\":6847:6907   */\n      tag_264\n      jumpi\n        /* \"#utility.yul\":6903:6904   */\n      0x00\n        /* \"#utility.yul\":6900:6901   */\n      dup1\n        /* \"#utility.yul\":6893:6905   */\n      revert\n        /* \"#utility.yul\":6847:6907   */\n    tag_264:\n        /* \"#utility.yul\":6797:6913   */\n      pop\n      jump\t// out\n        /* \"#utility.yul\":6919:7056   */\n    tag_177:\n        /* \"#utility.yul\":6973:6978   */\n      0x00\n        /* \"#utility.yul\":7004:7010   */\n      dup2\n        /* \"#utility.yul\":6998:7011   */\n      mload\n        /* \"#utility.yul\":6989:7011   */\n      swap1\n      pop\n        /* \"#utility.yul\":7020:7050   */\n      tag_266\n        /* \"#utility.yul\":7044:7049   */\n      dup2\n        /* \"#utility.yul\":7020:7050   */\n      tag_176\n      jump\t// in\n    tag_266:\n        /* \"#utility.yul\":6919:7056   */\n      swap3\n      swap2\n      pop\n      pop\n      jump\t// out\n        /* \"#utility.yul\":7062:7407   */\n    tag_65:\n        /* \"#utility.yul\":7129:7135   */\n      0x00\n        /* \"#utility.yul\":7178:7180   */\n      0x20\n        /* \"#utility.yul\":7166:7175   */\n      dup3\n        /* \"#utility.yul\":7157:7164   */\n      dup5\n        /* \"#utility.yul\":7153:7176   */\n      sub\n        /* \"#utility.yul\":7149:7181   */\n      slt\n        /* \"#utility.yul\":7146:7265   */\n      iszero\n      tag_268\n      jumpi\n        /* \"#utility.yul\":7184:7263   */\n      tag_269\n      tag_156\n      jump\t// in\n    tag_269:\n        /* \"#utility.yul\":7146:7265   */\n    tag_268:\n        /* \"#utility.yul\":7304:7305   */\n      0x00\n        /* \"#utility.yul\":7329:7390   */\n      tag_270\n        /* \"#utility.yul\":7382:7389   */\n      dup5\n        /* \"#utility.yul\":7373:7379   */\n      dup3\n        /* \"#utility.yul\":7362:7371   */\n      dup6\n        /* \"#utility.yul\":7358:7380   */\n      add\n        /* \"#utility.yul\":7329:7390   */\n      tag_177\n      jump\t// in\n    tag_270:\n        /* \"#utility.yul\":7319:7390   */\n      swap2\n      pop\n        /* \"#utility.yul\":7275:7400   */\n      pop\n        /* \"#utility.yul\":7062:7407   */\n      swap3\n      swap2\n      pop\n      pop\n      jump\t// out\n        /* \"#utility.yul\":7413:7584   */\n    tag_178:\n        /* \"#utility.yul\":7553:7576   */\n      0x496e76616c696420746f6b656e20616464726573730000000000000000000000\n        /* \"#utility.yul\":7549:7550   */\n      0x00\n        /* \"#utility.yul\":7541:7547   */\n      dup3\n        /* \"#utility.yul\":7537:7551   */\n      add\n        /* \"#utility.yul\":7530:7577   */\n      mstore\n        /* \"#utility.yul\":7413:7584   */\n      pop\n      jump\t// out\n        /* \"#utility.yul\":7590:7956   */\n    tag_179:\n        /* \"#utility.yul\":7732:7735   */\n      0x00\n        /* \"#utility.yul\":7753:7820   */\n      tag_273\n        /* \"#utility.yul\":7817:7819   */\n      0x15\n        /* \"#utility.yul\":7812:7815   */\n      dup4\n        /* \"#utility.yul\":7753:7820   */\n      tag_170\n      jump\t// in\n    tag_273:\n        /* \"#utility.yul\":7746:7820   */\n      swap2\n      pop\n        /* \"#utility.yul\":7829:7922   */\n      tag_274\n        /* \"#utility.yul\":7918:7921   */\n      dup3\n        /* \"#utility.yul\":7829:7922   */\n      tag_178\n      jump\t// in\n    tag_274:\n        /* \"#utility.yul\":7947:7949   */\n      0x20\n        /* \"#utility.yul\":7942:7945   */\n      dup3\n        /* \"#utility.yul\":7938:7950   */\n      add\n        /* \"#utility.yul\":7931:7950   */\n      swap1\n      pop\n        /* \"#utility.yul\":7590:7956   */\n      swap2\n      swap1\n      pop\n      jump\t// out\n        /* \"#utility.yul\":7962:8381   */\n    tag_82:\n        /* \"#utility.yul\":8128:8132   */\n      0x00\n        /* \"#utility.yul\":8166:8168   */\n      0x20\n        /* \"#utility.yul\":8155:8164   */\n      dup3\n        /* \"#utility.yul\":8151:8169   */\n      add\n        /* \"#utility.yul\":8143:8169   */\n      swap1\n      pop\n        /* \"#utility.yul\":8215:8224   */\n      dup2\n        /* \"#utility.yul\":8209:8213   */\n      dup2\n        /* \"#utility.yul\":8205:8225   */\n      sub\n        /* \"#utility.yul\":8201:8202   */\n      0x00\n        /* \"#utility.yul\":8190:8199   */\n      dup4\n        /* \"#utility.yul\":8186:8203   */\n      add\n        /* \"#utility.yul\":8179:8226   */\n      mstore\n        /* \"#utility.yul\":8243:8374   */\n      tag_276\n        /* \"#utility.yul\":8369:8373   */\n      dup2\n        /* \"#utility.yul\":8243:8374   */\n      tag_179\n      jump\t// in\n    tag_276:\n        /* \"#utility.yul\":8235:8374   */\n      swap1\n      pop\n        /* \"#utility.yul\":7962:8381   */\n      swap2\n      swap1\n      pop\n      jump\t// out\n        /* \"#utility.yul\":8387:8568   */\n    tag_180:\n        /* \"#utility.yul\":8527:8560   */\n      0x416d6f756e742073686f756c642062652067726561746572207468616e203000\n        /* \"#utility.yul\":8523:8524   */\n      0x00\n        /* \"#utility.yul\":8515:8521   */\n      dup3\n        /* \"#utility.yul\":8511:8525   */\n      add\n        /* \"#utility.yul\":8504:8561   */\n      mstore\n        /* \"#utility.yul\":8387:8568   */\n      pop\n      jump\t// out\n        /* \"#utility.yul\":8574:8940   */\n    tag_181:\n        /* \"#utility.yul\":8716:8719   */\n      0x00\n        /* \"#utility.yul\":8737:8804   */\n      tag_279\n        /* \"#utility.yul\":8801:8803   */\n      0x1f\n        /* \"#utility.yul\":8796:8799   */\n      dup4\n        /* \"#utility.yul\":8737:8804   */\n      tag_170\n      jump\t// in\n    tag_279:\n        /* \"#utility.yul\":8730:8804   */\n      swap2\n      pop\n        /* \"#utility.yul\":8813:8906   */\n      tag_280\n        /* \"#utility.yul\":8902:8905   */\n      dup3\n        /* \"#utility.yul\":8813:8906   */\n      tag_180\n      jump\t// in\n    tag_280:\n        /* \"#utility.yul\":8931:8933   */\n      0x20\n        /* \"#utility.yul\":8926:8929   */\n      dup3\n        /* \"#utility.yul\":8922:8934   */\n      add\n        /* \"#utility.yul\":8915:8934   */\n      swap1\n      pop\n        /* \"#utility.yul\":8574:8940   */\n      swap2\n      swap1\n      pop\n      jump\t// out\n        /* \"#utility.yul\":8946:9365   */\n    tag_85:\n        /* \"#utility.yul\":9112:9116   */\n      0x00\n        /* \"#utility.yul\":9150:9152   */\n      0x20\n        /* \"#utility.yul\":9139:9148   */\n      dup3\n        /* \"#utility.yul\":9135:9153   */\n      add\n        /* \"#utility.yul\":9127:9153   */\n      swap1\n      pop\n        /* \"#utility.yul\":9199:9208   */\n      dup2\n        /* \"#utility.yul\":9193:9197   */\n      dup2\n        /* \"#utility.yul\":9189:9209   */\n      sub\n        /* \"#utility.yul\":9185:9186   */\n      0x00\n        /* \"#utility.yul\":9174:9183   */\n      dup4\n        /* \"#utility.yul\":9170:9187   */\n      add\n        /* \"#utility.yul\":9163:9210   */\n      mstore\n        /* \"#utility.yul\":9227:9358   */\n      tag_282\n        /* \"#utility.yul\":9353:9357   */\n      dup2\n        /* \"#utility.yul\":9227:9358   */\n      tag_181\n      jump\t// in\n    tag_282:\n        /* \"#utility.yul\":9219:9358   */\n      swap1\n      pop\n        /* \"#utility.yul\":8946:9365   */\n      swap2\n      swap1\n      pop\n      jump\t// out\n        /* \"#utility.yul\":9371:9703   */\n    tag_87:\n        /* \"#utility.yul\":9492:9496   */\n      0x00\n        /* \"#utility.yul\":9530:9532   */\n      0x40\n        /* \"#utility.yul\":9519:9528   */\n      dup3\n        /* \"#utility.yul\":9515:9533   */\n      add\n        /* \"#utility.yul\":9507:9533   */\n      swap1\n      pop\n        /* \"#utility.yul\":9543:9614   */\n      tag_284\n        /* \"#utility.yul\":9611:9612   */\n      0x00\n        /* \"#utility.yul\":9600:9609   */\n      dup4\n        /* \"#utility.yul\":9596:9613   */\n      add\n        /* \"#utility.yul\":9587:9593   */\n      dup6\n        /* \"#utility.yul\":9543:9614   */\n      tag_163\n      jump\t// in\n    tag_284:\n        /* \"#utility.yul\":9624:9696   */\n      tag_285\n        /* \"#utility.yul\":9692:9694   */\n      0x20\n        /* \"#utility.yul\":9681:9690   */\n      dup4\n        /* \"#utility.yul\":9677:9695   */\n      add\n        /* \"#utility.yul\":9668:9674   */\n      dup5\n        /* \"#utility.yul\":9624:9696   */\n      tag_163\n      jump\t// in\n    tag_285:\n        /* \"#utility.yul\":9371:9703   */\n      swap4\n      swap3\n      pop\n      pop\n      pop\n      jump\t// out\n        /* \"#utility.yul\":9709:9852   */\n    tag_182:\n        /* \"#utility.yul\":9766:9771   */\n      0x00\n        /* \"#utility.yul\":9797:9803   */\n      dup2\n        /* \"#utility.yul\":9791:9804   */\n      mload\n        /* \"#utility.yul\":9782:9804   */\n      swap1\n      pop\n        /* \"#utility.yul\":9813:9846   */\n      tag_287\n        /* \"#utility.yul\":9840:9845   */\n      dup2\n        /* \"#utility.yul\":9813:9846   */\n      tag_166\n      jump\t// in\n    tag_287:\n        /* \"#utility.yul\":9709:9852   */\n      swap3\n      swap2\n      pop\n      pop\n      jump\t// out\n        /* \"#utility.yul\":9858:10209   */\n    tag_91:\n        /* \"#utility.yul\":9928:9934   */\n      0x00\n        /* \"#utility.yul\":9977:9979   */\n      0x20\n        /* \"#utility.yul\":9965:9974   */\n      dup3\n        /* \"#utility.yul\":9956:9963   */\n      dup5\n        /* \"#utility.yul\":9952:9975   */\n      sub\n        /* \"#utility.yul\":9948:9980   */\n      slt\n        /* \"#utility.yul\":9945:10064   */\n      iszero\n      tag_289\n      jumpi\n        /* \"#utility.yul\":9983:10062   */\n      tag_290\n      tag_156\n      jump\t// in\n    tag_290:\n        /* \"#utility.yul\":9945:10064   */\n    tag_289:\n        /* \"#utility.yul\":10103:10104   */\n      0x00\n        /* \"#utility.yul\":10128:10192   */\n      tag_291\n        /* \"#utility.yul\":10184:10191   */\n      dup5\n        /* \"#utility.yul\":10175:10181   */\n      dup3\n        /* \"#utility.yul\":10164:10173   */\n      dup6\n        /* \"#utility.yul\":10160:10182   */\n      add\n        /* \"#utility.yul\":10128:10192   */\n      tag_182\n      jump\t// in\n    tag_291:\n        /* \"#utility.yul\":10118:10192   */\n      swap2\n      pop\n        /* \"#utility.yul\":10074:10202   */\n      pop\n        /* \"#utility.yul\":9858:10209   */\n      swap3\n      swap2\n      pop\n      pop\n      jump\t// out\n        /* \"#utility.yul\":10215:10387   */\n    tag_183:\n        /* \"#utility.yul\":10355:10379   */\n      0x496e73756666696369656e7420416c6c6f77656e636500000000000000000000\n        /* \"#utility.yul\":10351:10352   */\n      0x00\n        /* \"#utility.yul\":10343:10349   */\n      dup3\n        /* \"#utility.yul\":10339:10353   */\n      add\n        /* \"#utility.yul\":10332:10380   */\n      mstore\n        /* \"#utility.yul\":10215:10387   */\n      pop\n      jump\t// out\n        /* \"#utility.yul\":10393:10759   */\n    tag_184:\n        /* \"#utility.yul\":10535:10538   */\n      0x00\n        /* \"#utility.yul\":10556:10623   */\n      tag_294\n        /* \"#utility.yul\":10620:10622   */\n      0x16\n        /* \"#utility.yul\":10615:10618   */\n      dup4\n        /* \"#utility.yul\":10556:10623   */\n      tag_170\n      jump\t// in\n    tag_294:\n        /* \"#utility.yul\":10549:10623   */\n      swap2\n      pop\n        /* \"#utility.yul\":10632:10725   */\n      tag_295\n        /* \"#utility.yul\":10721:10724   */\n      dup3\n        /* \"#utility.yul\":10632:10725   */\n      tag_183\n      jump\t// in\n    tag_295:\n        /* \"#utility.yul\":10750:10752   */\n      0x20\n        /* \"#utility.yul\":10745:10748   */\n      dup3\n        /* \"#utility.yul\":10741:10753   */\n      add\n        /* \"#utility.yul\":10734:10753   */\n      swap1\n      pop\n        /* \"#utility.yul\":10393:10759   */\n      swap2\n      swap1\n      pop\n      jump\t// out\n        /* \"#utility.yul\":10765:11184   */\n    tag_94:\n        /* \"#utility.yul\":10931:10935   */\n      0x00\n        /* \"#utility.yul\":10969:10971   */\n      0x20\n        /* \"#utility.yul\":10958:10967   */\n      dup3\n        /* \"#utility.yul\":10954:10972   */\n      add\n        /* \"#utility.yul\":10946:10972   */\n      swap1\n      pop\n        /* \"#utility.yul\":11018:11027   */\n      dup2\n        /* \"#utility.yul\":11012:11016   */\n      dup2\n        /* \"#utility.yul\":11008:11028   */\n      sub\n        /* \"#utility.yul\":11004:11005   */\n      0x00\n        /* \"#utility.yul\":10993:11002   */\n      dup4\n        /* \"#utility.yul\":10989:11006   */\n      add\n        /* \"#utility.yul\":10982:11029   */\n      mstore\n        /* \"#utility.yul\":11046:11177   */\n      tag_297\n        /* \"#utility.yul\":11172:11176   */\n      dup2\n        /* \"#utility.yul\":11046:11177   */\n      tag_184\n      jump\t// in\n    tag_297:\n        /* \"#utility.yul\":11038:11177   */\n      swap1\n      pop\n        /* \"#utility.yul\":10765:11184   */\n      swap2\n      swap1\n      pop\n      jump\t// out\n        /* \"#utility.yul\":11190:11360   */\n    tag_185:\n        /* \"#utility.yul\":11330:11352   */\n      0x496e73756666696369656e742062616c616e6365000000000000000000000000\n        /* \"#utility.yul\":11326:11327   */\n      0x00\n        /* \"#utility.yul\":11318:11324   */\n      dup3\n        /* \"#utility.yul\":11314:11328   */\n      add\n        /* \"#utility.yul\":11307:11353   */\n      mstore\n        /* \"#utility.yul\":11190:11360   */\n      pop\n      jump\t// out\n        /* \"#utility.yul\":11366:11732   */\n    tag_186:\n        /* \"#utility.yul\":11508:11511   */\n      0x00\n        /* \"#utility.yul\":11529:11596   */\n      tag_300\n        /* \"#utility.yul\":11593:11595   */\n      0x14\n        /* \"#utility.yul\":11588:11591   */\n      dup4\n        /* \"#utility.yul\":11529:11596   */\n      tag_170\n      jump\t// in\n    tag_300:\n        /* \"#utility.yul\":11522:11596   */\n      swap2\n      pop\n        /* \"#utility.yul\":11605:11698   */\n      tag_301\n        /* \"#utility.yul\":11694:11697   */\n      dup3\n        /* \"#utility.yul\":11605:11698   */\n      tag_185\n      jump\t// in\n    tag_301:\n        /* \"#utility.yul\":11723:11725   */\n      0x20\n        /* \"#utility.yul\":11718:11721   */\n      dup3\n        /* \"#utility.yul\":11714:11726   */\n      add\n        /* \"#utility.yul\":11707:11726   */\n      swap1\n      pop\n        /* \"#utility.yul\":11366:11732   */\n      swap2\n      swap1\n      pop\n      jump\t// out\n        /* \"#utility.yul\":11738:12157   */\n    tag_101:\n        /* \"#utility.yul\":11904:11908   */\n      0x00\n        /* \"#utility.yul\":11942:11944   */\n      0x20\n        /* \"#utility.yul\":11931:11940   */\n      dup3\n        /* \"#utility.yul\":11927:11945   */\n      add\n        /* \"#utility.yul\":11919:11945   */\n      swap1\n      pop\n        /* \"#utility.yul\":11991:12000   */\n      dup2\n        /* \"#utility.yul\":11985:11989   */\n      dup2\n        /* \"#utility.yul\":11981:12001   */\n      sub\n        /* \"#utility.yul\":11977:11978   */\n      0x00\n        /* \"#utility.yul\":11966:11975   */\n      dup4\n        /* \"#utility.yul\":11962:11979   */\n      add\n        /* \"#utility.yul\":11955:12002   */\n      mstore\n        /* \"#utility.yul\":12019:12150   */\n      tag_303\n        /* \"#utility.yul\":12145:12149   */\n      dup2\n        /* \"#utility.yul\":12019:12150   */\n      tag_186\n      jump\t// in\n    tag_303:\n        /* \"#utility.yul\":12011:12150   */\n      swap1\n      pop\n        /* \"#utility.yul\":11738:12157   */\n      swap2\n      swap1\n      pop\n      jump\t// out\n        /* \"#utility.yul\":12163:12605   */\n    tag_103:\n        /* \"#utility.yul\":12312:12316   */\n      0x00\n        /* \"#utility.yul\":12350:12352   */\n      0x60\n        /* \"#utility.yul\":12339:12348   */\n      dup3\n        /* \"#utility.yul\":12335:12353   */\n      add\n        /* \"#utility.yul\":12327:12353   */\n      swap1\n      pop\n        /* \"#utility.yul\":12363:12434   */\n      tag_305\n        /* \"#utility.yul\":12431:12432   */\n      0x00\n        /* \"#utility.yul\":12420:12429   */\n      dup4\n        /* \"#utility.yul\":12416:12433   */\n      add\n        /* \"#utility.yul\":12407:12413   */\n      dup7\n        /* \"#utility.yul\":12363:12434   */\n      tag_163\n      jump\t// in\n    tag_305:\n        /* \"#utility.yul\":12444:12516   */\n      tag_306\n        /* \"#utility.yul\":12512:12514   */\n      0x20\n        /* \"#utility.yul\":12501:12510   */\n      dup4\n        /* \"#utility.yul\":12497:12515   */\n      add\n        /* \"#utility.yul\":12488:12494   */\n      dup6\n        /* \"#utility.yul\":12444:12516   */\n      tag_163\n      jump\t// in\n    tag_306:\n        /* \"#utility.yul\":12526:12598   */\n      tag_307\n        /* \"#utility.yul\":12594:12596   */\n      0x40\n        /* \"#utility.yul\":12583:12592   */\n      dup4\n        /* \"#utility.yul\":12579:12597   */\n      add\n        /* \"#utility.yul\":12570:12576   */\n      dup5\n        /* \"#utility.yul\":12526:12598   */\n      tag_165\n      jump\t// in\n    tag_307:\n        /* \"#utility.yul\":12163:12605   */\n      swap5\n      swap4\n      pop\n      pop\n      pop\n      pop\n      jump\t// out\n        /* \"#utility.yul\":12611:12776   */\n    tag_187:\n        /* \"#utility.yul\":12751:12768   */\n      0x5472616e73666572206661696c65640000000000000000000000000000000000\n        /* \"#utility.yul\":12747:12748   */\n      0x00\n        /* \"#utility.yul\":12739:12745   */\n      dup3\n        /* \"#utility.yul\":12735:12749   */\n      add\n        /* \"#utility.yul\":12728:12769   */\n      mstore\n        /* \"#utility.yul\":12611:12776   */\n      pop\n      jump\t// out\n        /* \"#utility.yul\":12782:13148   */\n    tag_188:\n        /* \"#utility.yul\":12924:12927   */\n      0x00\n        /* \"#utility.yul\":12945:13012   */\n      tag_310\n        /* \"#utility.yul\":13009:13011   */\n      0x0f\n        /* \"#utility.yul\":13004:13007   */\n      dup4\n        /* \"#utility.yul\":12945:13012   */\n      tag_170\n      jump\t// in\n    tag_310:\n        /* \"#utility.yul\":12938:13012   */\n      swap2\n      pop\n        /* \"#utility.yul\":13021:13114   */\n      tag_311\n        /* \"#utility.yul\":13110:13113   */\n      dup3\n        /* \"#utility.yul\":13021:13114   */\n      tag_187\n      jump\t// in\n    tag_311:\n        /* \"#utility.yul\":13139:13141   */\n      0x20\n        /* \"#utility.yul\":13134:13137   */\n      dup3\n        /* \"#utility.yul\":13130:13142   */\n      add\n        /* \"#utility.yul\":13123:13142   */\n      swap1\n      pop\n        /* \"#utility.yul\":12782:13148   */\n      swap2\n      swap1\n      pop\n      jump\t// out\n        /* \"#utility.yul\":13154:13573   */\n    tag_109:\n        /* \"#utility.yul\":13320:13324   */\n      0x00\n        /* \"#utility.yul\":13358:13360   */\n      0x20\n        /* \"#utility.yul\":13347:13356   */\n      dup3\n        /* \"#utility.yul\":13343:13361   */\n      add\n        /* \"#utility.yul\":13335:13361   */\n      swap1\n      pop\n        /* \"#utility.yul\":13407:13416   */\n      dup2\n        /* \"#utility.yul\":13401:13405   */\n      dup2\n        /* \"#utility.yul\":13397:13417   */\n      sub\n        /* \"#utility.yul\":13393:13394   */\n      0x00\n        /* \"#utility.yul\":13382:13391   */\n      dup4\n        /* \"#utility.yul\":13378:13395   */\n      add\n        /* \"#utility.yul\":13371:13418   */\n      mstore\n        /* \"#utility.yul\":13435:13566   */\n      tag_313\n        /* \"#utility.yul\":13561:13565   */\n      dup2\n        /* \"#utility.yul\":13435:13566   */\n      tag_188\n      jump\t// in\n    tag_313:\n        /* \"#utility.yul\":13427:13566   */\n      swap1\n      pop\n        /* \"#utility.yul\":13154:13573   */\n      swap2\n      swap1\n      pop\n      jump\t// out\n        /* \"#utility.yul\":13579:13759   */\n    tag_189:\n        /* \"#utility.yul\":13627:13704   */\n      0x4e487b7100000000000000000000000000000000000000000000000000000000\n        /* \"#utility.yul\":13624:13625   */\n      0x00\n        /* \"#utility.yul\":13617:13705   */\n      mstore\n        /* \"#utility.yul\":13724:13728   */\n      0x11\n        /* \"#utility.yul\":13721:13722   */\n      0x04\n        /* \"#utility.yul\":13714:13729   */\n      mstore\n        /* \"#utility.yul\":13748:13752   */\n      0x24\n        /* \"#utility.yul\":13745:13746   */\n      0x00\n        /* \"#utility.yul\":13738:13753   */\n      revert\n        /* \"#utility.yul\":13765:13956   */\n    tag_112:\n        /* \"#utility.yul\":13805:13808   */\n      0x00\n        /* \"#utility.yul\":13824:13844   */\n      tag_316\n        /* \"#utility.yul\":13842:13843   */\n      dup3\n        /* \"#utility.yul\":13824:13844   */\n      tag_164\n      jump\t// in\n    tag_316:\n        /* \"#utility.yul\":13819:13844   */\n      swap2\n      pop\n        /* \"#utility.yul\":13858:13878   */\n      tag_317\n        /* \"#utility.yul\":13876:13877   */\n      dup4\n        /* \"#utility.yul\":13858:13878   */\n      tag_164\n      jump\t// in\n    tag_317:\n        /* \"#utility.yul\":13853:13878   */\n      swap3\n      pop\n        /* \"#utility.yul\":13901:13902   */\n      dup3\n        /* \"#utility.yul\":13898:13899   */\n      dup3\n        /* \"#utility.yul\":13894:13903   */\n      add\n        /* \"#utility.yul\":13887:13903   */\n      swap1\n      pop\n        /* \"#utility.yul\":13922:13925   */\n      dup1\n        /* \"#utility.yul\":13919:13920   */\n      dup3\n        /* \"#utility.yul\":13916:13926   */\n      gt\n        /* \"#utility.yul\":13913:13949   */\n      iszero\n      tag_318\n      jumpi\n        /* \"#utility.yul\":13929:13947   */\n      tag_319\n      tag_189\n      jump\t// in\n    tag_319:\n        /* \"#utility.yul\":13913:13949   */\n    tag_318:\n        /* \"#utility.yul\":13765:13956   */\n      swap3\n      swap2\n      pop\n      pop\n      jump\t// out\n        /* \"#utility.yul\":13962:14130   */\n    tag_190:\n        /* \"#utility.yul\":14102:14122   */\n      0x4661696c656420746f207472616e736665720000000000000000000000000000\n        /* \"#utility.yul\":14098:14099   */\n      0x00\n        /* \"#utility.yul\":14090:14096   */\n      dup3\n        /* \"#utility.yul\":14086:14100   */\n      add\n        /* \"#utility.yul\":14079:14123   */\n      mstore\n        /* \"#utility.yul\":13962:14130   */\n      pop\n      jump\t// out\n        /* \"#utility.yul\":14136:14502   */\n    tag_191:\n        /* \"#utility.yul\":14278:14281   */\n      0x00\n        /* \"#utility.yul\":14299:14366   */\n      tag_322\n        /* \"#utility.yul\":14363:14365   */\n      0x12\n        /* \"#utility.yul\":14358:14361   */\n      dup4\n        /* \"#utility.yul\":14299:14366   */\n      tag_170\n      jump\t// in\n    tag_322:\n        /* \"#utility.yul\":14292:14366   */\n      swap2\n      pop\n        /* \"#utility.yul\":14375:14468   */\n      tag_323\n        /* \"#utility.yul\":14464:14467   */\n      dup3\n        /* \"#utility.yul\":14375:14468   */\n      tag_190\n      jump\t// in\n    tag_323:\n        /* \"#utility.yul\":14493:14495   */\n      0x20\n        /* \"#utility.yul\":14488:14491   */\n      dup3\n        /* \"#utility.yul\":14484:14496   */\n      add\n        /* \"#utility.yul\":14477:14496   */\n      swap1\n      pop\n        /* \"#utility.yul\":14136:14502   */\n      swap2\n      swap1\n      pop\n      jump\t// out\n        /* \"#utility.yul\":14508:14927   */\n    tag_130:\n        /* \"#utility.yul\":14674:14678   */\n      0x00\n        /* \"#utility.yul\":14712:14714   */\n      0x20\n        /* \"#utility.yul\":14701:14710   */\n      dup3\n        /* \"#utility.yul\":14697:14715   */\n      add\n        /* \"#utility.yul\":14689:14715   */\n      swap1\n      pop\n        /* \"#utility.yul\":14761:14770   */\n      dup2\n        /* \"#utility.yul\":14755:14759   */\n      dup2\n        /* \"#utility.yul\":14751:14771   */\n      sub\n        /* \"#utility.yul\":14747:14748   */\n      0x00\n        /* \"#utility.yul\":14736:14745   */\n      dup4\n        /* \"#utility.yul\":14732:14749   */\n      add\n        /* \"#utility.yul\":14725:14772   */\n      mstore\n        /* \"#utility.yul\":14789:14920   */\n      tag_325\n        /* \"#utility.yul\":14915:14919   */\n      dup2\n        /* \"#utility.yul\":14789:14920   */\n      tag_191\n      jump\t// in\n    tag_325:\n        /* \"#utility.yul\":14781:14920   */\n      swap1\n      pop\n        /* \"#utility.yul\":14508:14927   */\n      swap2\n      swap1\n      pop\n      jump\t// out\n        /* \"#utility.yul\":14933:15127   */\n    tag_132:\n        /* \"#utility.yul\":14973:14977   */\n      0x00\n        /* \"#utility.yul\":14993:15013   */\n      tag_327\n        /* \"#utility.yul\":15011:15012   */\n      dup3\n        /* \"#utility.yul\":14993:15013   */\n      tag_164\n      jump\t// in\n    tag_327:\n        /* \"#utility.yul\":14988:15013   */\n      swap2\n      pop\n        /* \"#utility.yul\":15027:15047   */\n      tag_328\n        /* \"#utility.yul\":15045:15046   */\n      dup4\n        /* \"#utility.yul\":15027:15047   */\n      tag_164\n      jump\t// in\n    tag_328:\n        /* \"#utility.yul\":15022:15047   */\n      swap3\n      pop\n        /* \"#utility.yul\":15071:15072   */\n      dup3\n        /* \"#utility.yul\":15068:15069   */\n      dup3\n        /* \"#utility.yul\":15064:15073   */\n      sub\n        /* \"#utility.yul\":15056:15073   */\n      swap1\n      pop\n        /* \"#utility.yul\":15095:15096   */\n      dup2\n        /* \"#utility.yul\":15089:15093   */\n      dup2\n        /* \"#utility.yul\":15086:15097   */\n      gt\n        /* \"#utility.yul\":15083:15120   */\n      iszero\n      tag_329\n      jumpi\n        /* \"#utility.yul\":15100:15118   */\n      tag_330\n      tag_189\n      jump\t// in\n    tag_330:\n        /* \"#utility.yul\":15083:15120   */\n    tag_329:\n        /* \"#utility.yul\":14933:15127   */\n      swap3\n      swap2\n      pop\n      pop\n      jump\t// out\n        /* \"#utility.yul\":15133:15355   */\n    tag_192:\n        /* \"#utility.yul\":15273:15307   */\n      0x596f7520617265206e6f7420616c6c6f77656420746f20706179207468652066\n        /* \"#utility.yul\":15269:15270   */\n      0x00\n        /* \"#utility.yul\":15261:15267   */\n      dup3\n        /* \"#utility.yul\":15257:15271   */\n      add\n        /* \"#utility.yul\":15250:15308   */\n      mstore\n        /* \"#utility.yul\":15342:15347   */\n      0x6565730000000000000000000000000000000000000000000000000000000000\n        /* \"#utility.yul\":15337:15339   */\n      0x20\n        /* \"#utility.yul\":15329:15335   */\n      dup3\n        /* \"#utility.yul\":15325:15340   */\n      add\n        /* \"#utility.yul\":15318:15348   */\n      mstore\n        /* \"#utility.yul\":15133:15355   */\n      pop\n      jump\t// out\n        /* \"#utility.yul\":15361:15727   */\n    tag_193:\n        /* \"#utility.yul\":15503:15506   */\n      0x00\n        /* \"#utility.yul\":15524:15591   */\n      tag_333\n        /* \"#utility.yul\":15588:15590   */\n      0x23\n        /* \"#utility.yul\":15583:15586   */\n      dup4\n        /* \"#utility.yul\":15524:15591   */\n      tag_170\n      jump\t// in\n    tag_333:\n        /* \"#utility.yul\":15517:15591   */\n      swap2\n      pop\n        /* \"#utility.yul\":15600:15693   */\n      tag_334\n        /* \"#utility.yul\":15689:15692   */\n      dup3\n        /* \"#utility.yul\":15600:15693   */\n      tag_192\n      jump\t// in\n    tag_334:\n        /* \"#utility.yul\":15718:15720   */\n      0x40\n        /* \"#utility.yul\":15713:15716   */\n      dup3\n        /* \"#utility.yul\":15709:15721   */\n      add\n        /* \"#utility.yul\":15702:15721   */\n      swap1\n      pop\n        /* \"#utility.yul\":15361:15727   */\n      swap2\n      swap1\n      pop\n      jump\t// out\n        /* \"#utility.yul\":15733:16152   */\n    tag_139:\n        /* \"#utility.yul\":15899:15903   */\n      0x00\n        /* \"#utility.yul\":15937:15939   */\n      0x20\n        /* \"#utility.yul\":15926:15935   */\n      dup3\n        /* \"#utility.yul\":15922:15940   */\n      add\n        /* \"#utility.yul\":15914:15940   */\n      swap1\n      pop\n        /* \"#utility.yul\":15986:15995   */\n      dup2\n        /* \"#utility.yul\":15980:15984   */\n      dup2\n        /* \"#utility.yul\":15976:15996   */\n      sub\n        /* \"#utility.yul\":15972:15973   */\n      0x00\n        /* \"#utility.yul\":15961:15970   */\n      dup4\n        /* \"#utility.yul\":15957:15974   */\n      add\n        /* \"#utility.yul\":15950:15997   */\n      mstore\n        /* \"#utility.yul\":16014:16145   */\n      tag_336\n        /* \"#utility.yul\":16140:16144   */\n      dup2\n        /* \"#utility.yul\":16014:16145   */\n      tag_193\n      jump\t// in\n    tag_336:\n        /* \"#utility.yul\":16006:16145   */\n      swap1\n      pop\n        /* \"#utility.yul\":15733:16152   */\n      swap2\n      swap1\n      pop\n      jump\t// out\n\n    auxdata: 0xa26469706673582212209757b70c2540cbb21c2d09a5156d0ef1e2154bfe81ead79e876d1ac81f894f3864736f6c63430008130033\n}\n",
				"bytecode": {
					"linkReferences": {},
					"object": "6080604052733c499c542cef5e3811e1192ce70d8cc03d5c33596000806101000a81548173ffffffffffffffffffffffffffffffffffffffff021916908373ffffffffffffffffffffffffffffffffffffffff160217905550738f3cf7ad23cd3cadbd9735aff958023239c6a063600160006101000a81548173ffffffffffffffffffffffffffffffffffffffff021916908373ffffffffffffffffffffffffffffffffffffffff16021790555073e0b52e49357fd4daf2c15e02058dce6bc0057db4600260006101000a81548173ffffffffffffffffffffffffffffffffffffffff021916908373ffffffffffffffffffffffffffffffffffffffff160217905550734d0b6356605e6fa95c025a6f6092eccf0cf4317b600360006101000a81548173ffffffffffffffffffffffffffffffffffffffff021916908373ffffffffffffffffffffffffffffffffffffffff1602179055507392ed8f6a9211f9eb0f16c83a052e75099b7bf4a5600460006101000a81548173ffffffffffffffffffffffffffffffffffffffff021916908373ffffffffffffffffffffffffffffffffffffffff1602179055503480156101b857600080fd5b50612048806101c86000396000f3fe60806040526004361061007b5760003560e01c8063488970931161004e5780634889709314610152578063add930b51461018f578063d85fbdf4146101ab578063de23b93c146101d45761007b565b8063014df73b146100805780631fcae771146100bf57806326b85ee1146100e85780632773806114610113575b600080fd5b34801561008c57600080fd5b506100a760048036038101906100a29190611843565b6101fd565b6040516100b6939291906118ca565b60405180910390f35b3480156100cb57600080fd5b506100e660048036038101906100e19190611843565b610267565b005b3480156100f457600080fd5b506100fd610600565b60405161010a9190611901565b60405180910390f35b34801561011f57600080fd5b5061013a60048036038101906101359190611843565b610608565b604051610149939291906118ca565b60405180910390f35b34801561015e57600080fd5b5061017960048036038101906101749190611843565b610725565b604051610186919061191c565b60405180910390f35b6101a960048036038101906101a4919061198f565b610769565b005b3480156101b757600080fd5b506101d260048036038101906101cd91906119e2565b610f88565b005b3480156101e057600080fd5b506101fb60048036038101906101f691906119e2565b61136c565b005b60056020528060005260406000206000915090508060000160009054906101000a900473ffffffffffffffffffffffffffffffffffffffff16908060010154908060020160009054906101000a900473ffffffffffffffffffffffffffffffffffffffff16905083565b600073ffffffffffffffffffffffffffffffffffffffff1660056000836fffffffffffffffffffffffffffffffff166fffffffffffffffffffffffffffffffff16815260200190815260200160002060000160009054906101000a900473ffffffffffffffffffffffffffffffffffffffff1673ffffffffffffffffffffffffffffffffffffffff161415801561038457503373ffffffffffffffffffffffffffffffffffffffff1660056000836fffffffffffffffffffffffffffffffff166fffffffffffffffffffffffffffffffff16815260200190815260200160002060000160009054906101000a900473ffffffffffffffffffffffffffffffffffffffff1673ffffffffffffffffffffffffffffffffffffffff1614155b156103cb5760006103ca576040517f08c379a00000000000000000000000000000000000000000000000000000000081526004016103c190611aa5565b60405180910390fd5b5b600060056000836fffffffffffffffffffffffffffffffff166fffffffffffffffffffffffffffffffff16815260200190815260200160002060020160009054906101000a900473ffffffffffffffffffffffffffffffffffffffff169050600060056000846fffffffffffffffffffffffffffffffff166fffffffffffffffffffffffffffffffff168152602001908152602001600020600101549050600081116104ac576040517f08c379a00000000000000000000000000000000000000000000000000000000081526004016104a390611b11565b60405180910390fd5b8173ffffffffffffffffffffffffffffffffffffffff1663a9059cbb3360056000876fffffffffffffffffffffffffffffffff166fffffffffffffffffffffffffffffffff168152602001908152602001600020600101546040518363ffffffff1660e01b8152600401610521929190611b31565b6020604051808303816000875af1158015610540573d6000803e3d6000fd5b505050506040513d601f19601f820116820180604052508101906105649190611b92565b61056d57600080fd5b600060056000856fffffffffffffffffffffffffffffffff166fffffffffffffffffffffffffffffffff168152602001908152602001600020600101819055503373ffffffffffffffffffffffffffffffffffffffff167fd867cfadc420a62f8ddbfaf0ee08af17bef908fdeb647de660511cebe642486c826040516105f3919061191c565b60405180910390a2505050565b600030905090565b60008060008060056000866fffffffffffffffffffffffffffffffff166fffffffffffffffffffffffffffffffff1681526020019081526020016000206040518060600160405290816000820160009054906101000a900473ffffffffffffffffffffffffffffffffffffffff1673ffffffffffffffffffffffffffffffffffffffff1673ffffffffffffffffffffffffffffffffffffffff168152602001600182015481526020016002820160009054906101000a900473ffffffffffffffffffffffffffffffffffffffff1673ffffffffffffffffffffffffffffffffffffffff1673ffffffffffffffffffffffffffffffffffffffff16815250509050806000015181602001518260400151935093509350509193909250565b600060056000836fffffffffffffffffffffffffffffffff166fffffffffffffffffffffffffffffffff168152602001908152602001600020600101549050919050565b600073ffffffffffffffffffffffffffffffffffffffff1660056000856fffffffffffffffffffffffffffffffff166fffffffffffffffffffffffffffffffff16815260200190815260200160002060000160009054906101000a900473ffffffffffffffffffffffffffffffffffffffff1673ffffffffffffffffffffffffffffffffffffffff161415801561088657503373ffffffffffffffffffffffffffffffffffffffff1660056000856fffffffffffffffffffffffffffffffff166fffffffffffffffffffffffffffffffff16815260200190815260200160002060000160009054906101000a900473ffffffffffffffffffffffffffffffffffffffff1673ffffffffffffffffffffffffffffffffffffffff1614155b156108cd5760006108cc576040517f08c379a00000000000000000000000000000000000000000000000000000000081526004016108c390611aa5565b60405180910390fd5b5b3360056000856fffffffffffffffffffffffffffffffff166fffffffffffffffffffffffffffffffff16815260200190815260200160002060000160006101000a81548173ffffffffffffffffffffffffffffffffffffffff021916908373ffffffffffffffffffffffffffffffffffffffff16021790555060008054906101000a900473ffffffffffffffffffffffffffffffffffffffff1673ffffffffffffffffffffffffffffffffffffffff168173ffffffffffffffffffffffffffffffffffffffff16141580156109f05750600160009054906101000a900473ffffffffffffffffffffffffffffffffffffffff1673ffffffffffffffffffffffffffffffffffffffff168173ffffffffffffffffffffffffffffffffffffffff1614155b8015610a4a5750600260009054906101000a900473ffffffffffffffffffffffffffffffffffffffff1673ffffffffffffffffffffffffffffffffffffffff168173ffffffffffffffffffffffffffffffffffffffff1614155b8015610aa45750600360009054906101000a900473ffffffffffffffffffffffffffffffffffffffff1673ffffffffffffffffffffffffffffffffffffffff168173ffffffffffffffffffffffffffffffffffffffff1614155b15610aeb576000610aea576040517f08c379a0000000000000000000000000000000000000000000000000000000008152600401610ae190611c0b565b60405180910390fd5b5b600081905060008311610b33576040517f08c379a0000000000000000000000000000000000000000000000000000000008152600401610b2a90611c77565b60405180910390fd5b828173ffffffffffffffffffffffffffffffffffffffff1663dd62ed3e33306040518363ffffffff1660e01b8152600401610b6f929190611c97565b6020604051808303816000875af1158015610b8e573d6000803e3d6000fd5b505050506040513d601f19601f82011682018060405250810190610bb29190611cd5565b1015610bf3576040517f08c379a0000000000000000000000000000000000000000000000000000000008152600401610bea90611d4e565b60405180910390fd5b828173ffffffffffffffffffffffffffffffffffffffff166370a08231336040518263ffffffff1660e01b8152600401610c2d9190611901565b602060405180830381865afa158015610c4a573d6000803e3d6000fd5b505050506040513d601f19601f82011682018060405250810190610c6e9190611cd5565b1015610caf576040517f08c379a0000000000000000000000000000000000000000000000000000000008152600401610ca690611dba565b60405180910390fd5b8073ffffffffffffffffffffffffffffffffffffffff166323b872dd3330866040518463ffffffff1660e01b8152600401610cec93929190611dda565b6020604051808303816000875af1158015610d0b573d6000803e3d6000fd5b505050506040513d601f19601f82011682018060405250810190610d2f9190611b92565b610d6e576040517f08c379a0000000000000000000000000000000000000000000000000000000008152600401610d6590611e5d565b60405180910390fd5b600060056000866fffffffffffffffffffffffffffffffff166fffffffffffffffffffffffffffffffff168152602001908152602001600020600101541115610e07578260056000866fffffffffffffffffffffffffffffffff166fffffffffffffffffffffffffffffffff1681526020019081526020016000206001016000828254610dfb9190611eac565b92505081905550610f21565b60405180606001604052803373ffffffffffffffffffffffffffffffffffffffff1681526020018481526020018373ffffffffffffffffffffffffffffffffffffffff1681525060056000866fffffffffffffffffffffffffffffffff166fffffffffffffffffffffffffffffffff16815260200190815260200160002060008201518160000160006101000a81548173ffffffffffffffffffffffffffffffffffffffff021916908373ffffffffffffffffffffffffffffffffffffffff1602179055506020820151816001015560408201518160020160006101000a81548173ffffffffffffffffffffffffffffffffffffffff021916908373ffffffffffffffffffffffffffffffffffffffff1602179055509050505b3373ffffffffffffffffffffffffffffffffffffffff16846fffffffffffffffffffffffffffffffff167f5f3e3838def5eca817d313e878b11ebf555f617746e3d247f1632ded5f39118b85604051610f7a919061191c565b60405180910390a350505050565b600073ffffffffffffffffffffffffffffffffffffffff1660056000846fffffffffffffffffffffffffffffffff166fffffffffffffffffffffffffffffffff16815260200190815260200160002060000160009054906101000a900473ffffffffffffffffffffffffffffffffffffffff1673ffffffffffffffffffffffffffffffffffffffff16141580156110a557503373ffffffffffffffffffffffffffffffffffffffff1660056000846fffffffffffffffffffffffffffffffff166fffffffffffffffffffffffffffffffff16815260200190815260200160002060000160009054906101000a900473ffffffffffffffffffffffffffffffffffffffff1673ffffffffffffffffffffffffffffffffffffffff1614155b156110ec5760006110eb576040517f08c379a00000000000000000000000000000000000000000000000000000000081526004016110e290611aa5565b60405180910390fd5b5b600060056000846fffffffffffffffffffffffffffffffff166fffffffffffffffffffffffffffffffff16815260200190815260200160002060020160009054906101000a900473ffffffffffffffffffffffffffffffffffffffff1690506000821161118e576040517f08c379a000000000000000000000000000000000000000000000000000000000815260040161118590611b11565b60405180910390fd5b8160056000856fffffffffffffffffffffffffffffffff166fffffffffffffffffffffffffffffffff16815260200190815260200160002060010154101561120b576040517f08c379a000000000000000000000000000000000000000000000000000000000815260040161120290611dba565b60405180910390fd5b8073ffffffffffffffffffffffffffffffffffffffff1663a9059cbb33846040518363ffffffff1660e01b8152600401611246929190611b31565b6020604051808303816000875af1158015611265573d6000803e3d6000fd5b505050506040513d601f19601f820116820180604052508101906112899190611b92565b6112c8576040517f08c379a00000000000000000000000000000000000000000000000000000000081526004016112bf90611f2c565b60405180910390fd5b8160056000856fffffffffffffffffffffffffffffffff166fffffffffffffffffffffffffffffffff16815260200190815260200160002060010160008282546113129190611f4c565b925050819055503373ffffffffffffffffffffffffffffffffffffffff167fd867cfadc420a62f8ddbfaf0ee08af17bef908fdeb647de660511cebe642486c8360405161135f919061191c565b60405180910390a2505050565b600073ffffffffffffffffffffffffffffffffffffffff1660056000846fffffffffffffffffffffffffffffffff166fffffffffffffffffffffffffffffffff16815260200190815260200160002060000160009054906101000a900473ffffffffffffffffffffffffffffffffffffffff1673ffffffffffffffffffffffffffffffffffffffff161415801561148957503373ffffffffffffffffffffffffffffffffffffffff1660056000846fffffffffffffffffffffffffffffffff166fffffffffffffffffffffffffffffffff16815260200190815260200160002060000160009054906101000a900473ffffffffffffffffffffffffffffffffffffffff1673ffffffffffffffffffffffffffffffffffffffff1614155b156114d05760006114cf576040517f08c379a00000000000000000000000000000000000000000000000000000000081526004016114c690611ff2565b60405180910390fd5b5b600060056000846fffffffffffffffffffffffffffffffff166fffffffffffffffffffffffffffffffff1681526020019081526020016000206001015403611554576000611553576040517f08c379a000000000000000000000000000000000000000000000000000000000815260040161154a90611dba565b60405180910390fd5b5b600060056000846fffffffffffffffffffffffffffffffff166fffffffffffffffffffffffffffffffff16815260200190815260200160002060020160009054906101000a900473ffffffffffffffffffffffffffffffffffffffff169050600082116115f6576040517f08c379a00000000000000000000000000000000000000000000000000000000081526004016115ed90611c77565b60405180910390fd5b60056000846fffffffffffffffffffffffffffffffff166fffffffffffffffffffffffffffffffff16815260200190815260200160002060010154821115611673576040517f08c379a000000000000000000000000000000000000000000000000000000000815260040161166a90611dba565b60405180910390fd5b8160056000856fffffffffffffffffffffffffffffffff166fffffffffffffffffffffffffffffffff16815260200190815260200160002060010160008282546116bd9190611f4c565b925050819055508073ffffffffffffffffffffffffffffffffffffffff1663a9059cbb600460009054906101000a900473ffffffffffffffffffffffffffffffffffffffff16846040518363ffffffff1660e01b8152600401611721929190611b31565b6020604051808303816000875af1158015611740573d6000803e3d6000fd5b505050506040513d601f19601f820116820180604052508101906117649190611b92565b6117a3576040517f08c379a000000000000000000000000000000000000000000000000000000000815260040161179a90611f2c565b60405180910390fd5b3373ffffffffffffffffffffffffffffffffffffffff167f69a94b75ba75e6544fe27fa49b471e1f3146c9a7c6bb2fa0b8a6d2bc1dc94693836040516117e9919061191c565b60405180910390a2505050565b600080fd5b60006fffffffffffffffffffffffffffffffff82169050919050565b611820816117fb565b811461182b57600080fd5b50565b60008135905061183d81611817565b92915050565b600060208284031215611859576118586117f6565b5b60006118678482850161182e565b91505092915050565b600073ffffffffffffffffffffffffffffffffffffffff82169050919050565b600061189b82611870565b9050919050565b6118ab81611890565b82525050565b6000819050919050565b6118c4816118b1565b82525050565b60006060820190506118df60008301866118a2565b6118ec60208301856118bb565b6118f960408301846118a2565b949350505050565b600060208201905061191660008301846118a2565b92915050565b600060208201905061193160008301846118bb565b92915050565b611940816118b1565b811461194b57600080fd5b50565b60008135905061195d81611937565b92915050565b61196c81611890565b811461197757600080fd5b50565b60008135905061198981611963565b92915050565b6000806000606084860312156119a8576119a76117f6565b5b60006119b68682870161182e565b93505060206119c78682870161194e565b92505060406119d88682870161197a565b9150509250925092565b600080604083850312156119f9576119f86117f6565b5b6000611a078582860161182e565b9250506020611a188582860161194e565b9150509250929050565b600082825260208201905092915050565b7f596f7520617265206e6f7420616c6c6f77656420746f2075736520746869732060008201527f6a6f626964000000000000000000000000000000000000000000000000000000602082015250565b6000611a8f602583611a22565b9150611a9a82611a33565b604082019050919050565b60006020820190508181036000830152611abe81611a82565b9050919050565b7f4e6f2062616c616e636520746f20776974686472617700000000000000000000600082015250565b6000611afb601683611a22565b9150611b0682611ac5565b602082019050919050565b60006020820190508181036000830152611b2a81611aee565b9050919050565b6000604082019050611b4660008301856118a2565b611b5360208301846118bb565b9392505050565b60008115159050919050565b611b6f81611b5a565b8114611b7a57600080fd5b50565b600081519050611b8c81611b66565b92915050565b600060208284031215611ba857611ba76117f6565b5b6000611bb684828501611b7d565b91505092915050565b7f496e76616c696420746f6b656e20616464726573730000000000000000000000600082015250565b6000611bf5601583611a22565b9150611c0082611bbf565b602082019050919050565b60006020820190508181036000830152611c2481611be8565b9050919050565b7f416d6f756e742073686f756c642062652067726561746572207468616e203000600082015250565b6000611c61601f83611a22565b9150611c6c82611c2b565b602082019050919050565b60006020820190508181036000830152611c9081611c54565b9050919050565b6000604082019050611cac60008301856118a2565b611cb960208301846118a2565b9392505050565b600081519050611ccf81611937565b92915050565b600060208284031215611ceb57611cea6117f6565b5b6000611cf984828501611cc0565b91505092915050565b7f496e73756666696369656e7420416c6c6f77656e636500000000000000000000600082015250565b6000611d38601683611a22565b9150611d4382611d02565b602082019050919050565b60006020820190508181036000830152611d6781611d2b565b9050919050565b7f496e73756666696369656e742062616c616e6365000000000000000000000000600082015250565b6000611da4601483611a22565b9150611daf82611d6e565b602082019050919050565b60006020820190508181036000830152611dd381611d97565b9050919050565b6000606082019050611def60008301866118a2565b611dfc60208301856118a2565b611e0960408301846118bb565b949350505050565b7f5472616e73666572206661696c65640000000000000000000000000000000000600082015250565b6000611e47600f83611a22565b9150611e5282611e11565b602082019050919050565b60006020820190508181036000830152611e7681611e3a565b9050919050565b7f4e487b7100000000000000000000000000000000000000000000000000000000600052601160045260246000fd5b6000611eb7826118b1565b9150611ec2836118b1565b9250828201905080821115611eda57611ed9611e7d565b5b92915050565b7f4661696c656420746f207472616e736665720000000000000000000000000000600082015250565b6000611f16601283611a22565b9150611f2182611ee0565b602082019050919050565b60006020820190508181036000830152611f4581611f09565b9050919050565b6000611f57826118b1565b9150611f62836118b1565b9250828203905081811115611f7a57611f79611e7d565b5b92915050565b7f596f7520617265206e6f7420616c6c6f77656420746f2070617920746865206660008201527f6565730000000000000000000000000000000000000000000000000000000000602082015250565b6000611fdc602383611a22565b9150611fe782611f80565b604082019050919050565b6000602082019050818103600083015261200b81611fcf565b905091905056fea26469706673582212209757b70c2540cbb21c2d09a5156d0ef1e2154bfe81ead79e876d1ac81f894f3864736f6c63430008130033",
					"opcodes": "PUSH1 0x80 PUSH1 0x40 MSTORE PUSH20 0x3C499C542CEF5E3811E1192CE70D8CC03D5C3359 PUSH1 0x0 DUP1 PUSH2 0x100 EXP DUP2 SLOAD DUP2 PUSH20 0xFFFFFFFFFFFFFFFFFFFFFFFFFFFFFFFFFFFFFFFF MUL NOT AND SWAP1 DUP4 PUSH20 0xFFFFFFFFFFFFFFFFFFFFFFFFFFFFFFFFFFFFFFFF AND MUL OR SWAP1 SSTORE POP PUSH20 0x8F3CF7AD23CD3CADBD9735AFF958023239C6A063 PUSH1 0x1 PUSH1 0x0 PUSH2 0x100 EXP DUP2 SLOAD DUP2 PUSH20 0xFFFFFFFFFFFFFFFFFFFFFFFFFFFFFFFFFFFFFFFF MUL NOT AND SWAP1 DUP4 PUSH20 0xFFFFFFFFFFFFFFFFFFFFFFFFFFFFFFFFFFFFFFFF AND MUL OR SWAP1 SSTORE POP PUSH20 0xE0B52E49357FD4DAF2C15E02058DCE6BC0057DB4 PUSH1 0x2 PUSH1 0x0 PUSH2 0x100 EXP DUP2 SLOAD DUP2 PUSH20 0xFFFFFFFFFFFFFFFFFFFFFFFFFFFFFFFFFFFFFFFF MUL NOT AND SWAP1 DUP4 PUSH20 0xFFFFFFFFFFFFFFFFFFFFFFFFFFFFFFFFFFFFFFFF AND MUL OR SWAP1 SSTORE POP PUSH20 0x4D0B6356605E6FA95C025A6F6092ECCF0CF4317B PUSH1 0x3 PUSH1 0x0 PUSH2 0x100 EXP DUP2 SLOAD DUP2 PUSH20 0xFFFFFFFFFFFFFFFFFFFFFFFFFFFFFFFFFFFFFFFF MUL NOT AND SWAP1 DUP4 PUSH20 0xFFFFFFFFFFFFFFFFFFFFFFFFFFFFFFFFFFFFFFFF AND MUL OR SWAP1 SSTORE POP PUSH20 0x92ED8F6A9211F9EB0F16C83A052E75099B7BF4A5 PUSH1 0x4 PUSH1 0x0 PUSH2 0x100 EXP DUP2 SLOAD DUP2 PUSH20 0xFFFFFFFFFFFFFFFFFFFFFFFFFFFFFFFFFFFFFFFF MUL NOT AND SWAP1 DUP4 PUSH20 0xFFFFFFFFFFFFFFFFFFFFFFFFFFFFFFFFFFFFFFFF AND MUL OR SWAP1 SSTORE POP CALLVALUE DUP1 ISZERO PUSH2 0x1B8 JUMPI PUSH1 0x0 DUP1 REVERT JUMPDEST POP PUSH2 0x2048 DUP1 PUSH2 0x1C8 PUSH1 0x0 CODECOPY PUSH1 0x0 RETURN INVALID PUSH1 0x80 PUSH1 0x40 MSTORE PUSH1 0x4 CALLDATASIZE LT PUSH2 0x7B JUMPI PUSH1 0x0 CALLDATALOAD PUSH1 0xE0 SHR DUP1 PUSH4 0x48897093 GT PUSH2 0x4E JUMPI DUP1 PUSH4 0x48897093 EQ PUSH2 0x152 JUMPI DUP1 PUSH4 0xADD930B5 EQ PUSH2 0x18F JUMPI DUP1 PUSH4 0xD85FBDF4 EQ PUSH2 0x1AB JUMPI DUP1 PUSH4 0xDE23B93C EQ PUSH2 0x1D4 JUMPI PUSH2 0x7B JUMP JUMPDEST DUP1 PUSH4 0x14DF73B EQ PUSH2 0x80 JUMPI DUP1 PUSH4 0x1FCAE771 EQ PUSH2 0xBF JUMPI DUP1 PUSH4 0x26B85EE1 EQ PUSH2 0xE8 JUMPI DUP1 PUSH4 0x27738061 EQ PUSH2 0x113 JUMPI JUMPDEST PUSH1 0x0 DUP1 REVERT JUMPDEST CALLVALUE DUP1 ISZERO PUSH2 0x8C JUMPI PUSH1 0x0 DUP1 REVERT JUMPDEST POP PUSH2 0xA7 PUSH1 0x4 DUP1 CALLDATASIZE SUB DUP2 ADD SWAP1 PUSH2 0xA2 SWAP2 SWAP1 PUSH2 0x1843 JUMP JUMPDEST PUSH2 0x1FD JUMP JUMPDEST PUSH1 0x40 MLOAD PUSH2 0xB6 SWAP4 SWAP3 SWAP2 SWAP1 PUSH2 0x18CA JUMP JUMPDEST PUSH1 0x40 MLOAD DUP1 SWAP2 SUB SWAP1 RETURN JUMPDEST CALLVALUE DUP1 ISZERO PUSH2 0xCB JUMPI PUSH1 0x0 DUP1 REVERT JUMPDEST POP PUSH2 0xE6 PUSH1 0x4 DUP1 CALLDATASIZE SUB DUP2 ADD SWAP1 PUSH2 0xE1 SWAP2 SWAP1 PUSH2 0x1843 JUMP JUMPDEST PUSH2 0x267 JUMP JUMPDEST STOP JUMPDEST CALLVALUE DUP1 ISZERO PUSH2 0xF4 JUMPI PUSH1 0x0 DUP1 REVERT JUMPDEST POP PUSH2 0xFD PUSH2 0x600 JUMP JUMPDEST PUSH1 0x40 MLOAD PUSH2 0x10A SWAP2 SWAP1 PUSH2 0x1901 JUMP JUMPDEST PUSH1 0x40 MLOAD DUP1 SWAP2 SUB SWAP1 RETURN JUMPDEST CALLVALUE DUP1 ISZERO PUSH2 0x11F JUMPI PUSH1 0x0 DUP1 REVERT JUMPDEST POP PUSH2 0x13A PUSH1 0x4 DUP1 CALLDATASIZE SUB DUP2 ADD SWAP1 PUSH2 0x135 SWAP2 SWAP1 PUSH2 0x1843 JUMP JUMPDEST PUSH2 0x608 JUMP JUMPDEST PUSH1 0x40 MLOAD PUSH2 0x149 SWAP4 SWAP3 SWAP2 SWAP1 PUSH2 0x18CA JUMP JUMPDEST PUSH1 0x40 MLOAD DUP1 SWAP2 SUB SWAP1 RETURN JUMPDEST CALLVALUE DUP1 ISZERO PUSH2 0x15E JUMPI PUSH1 0x0 DUP1 REVERT JUMPDEST POP PUSH2 0x179 PUSH1 0x4 DUP1 CALLDATASIZE SUB DUP2 ADD SWAP1 PUSH2 0x174 SWAP2 SWAP1 PUSH2 0x1843 JUMP JUMPDEST PUSH2 0x725 JUMP JUMPDEST PUSH1 0x40 MLOAD PUSH2 0x186 SWAP2 SWAP1 PUSH2 0x191C JUMP JUMPDEST PUSH1 0x40 MLOAD DUP1 SWAP2 SUB SWAP1 RETURN JUMPDEST PUSH2 0x1A9 PUSH1 0x4 DUP1 CALLDATASIZE SUB DUP2 ADD SWAP1 PUSH2 0x1A4 SWAP2 SWAP1 PUSH2 0x198F JUMP JUMPDEST PUSH2 0x769 JUMP JUMPDEST STOP JUMPDEST CALLVALUE DUP1 ISZERO PUSH2 0x1B7 JUMPI PUSH1 0x0 DUP1 REVERT JUMPDEST POP PUSH2 0x1D2 PUSH1 0x4 DUP1 CALLDATASIZE SUB DUP2 ADD SWAP1 PUSH2 0x1CD SWAP2 SWAP1 PUSH2 0x19E2 JUMP JUMPDEST PUSH2 0xF88 JUMP JUMPDEST STOP JUMPDEST CALLVALUE DUP1 ISZERO PUSH2 0x1E0 JUMPI PUSH1 0x0 DUP1 REVERT JUMPDEST POP PUSH2 0x1FB PUSH1 0x4 DUP1 CALLDATASIZE SUB DUP2 ADD SWAP1 PUSH2 0x1F6 SWAP2 SWAP1 PUSH2 0x19E2 JUMP JUMPDEST PUSH2 0x136C JUMP JUMPDEST STOP JUMPDEST PUSH1 0x5 PUSH1 0x20 MSTORE DUP1 PUSH1 0x0 MSTORE PUSH1 0x40 PUSH1 0x0 KECCAK256 PUSH1 0x0 SWAP2 POP SWAP1 POP DUP1 PUSH1 0x0 ADD PUSH1 0x0 SWAP1 SLOAD SWAP1 PUSH2 0x100 EXP SWAP1 DIV PUSH20 0xFFFFFFFFFFFFFFFFFFFFFFFFFFFFFFFFFFFFFFFF AND SWAP1 DUP1 PUSH1 0x1 ADD SLOAD SWAP1 DUP1 PUSH1 0x2 ADD PUSH1 0x0 SWAP1 SLOAD SWAP1 PUSH2 0x100 EXP SWAP1 DIV PUSH20 0xFFFFFFFFFFFFFFFFFFFFFFFFFFFFFFFFFFFFFFFF AND SWAP1 POP DUP4 JUMP JUMPDEST PUSH1 0x0 PUSH20 0xFFFFFFFFFFFFFFFFFFFFFFFFFFFFFFFFFFFFFFFF AND PUSH1 0x5 PUSH1 0x0 DUP4 PUSH16 0xFFFFFFFFFFFFFFFFFFFFFFFFFFFFFFFF AND PUSH16 0xFFFFFFFFFFFFFFFFFFFFFFFFFFFFFFFF AND DUP2 MSTORE PUSH1 0x20 ADD SWAP1 DUP2 MSTORE PUSH1 0x20 ADD PUSH1 0x0 KECCAK256 PUSH1 0x0 ADD PUSH1 0x0 SWAP1 SLOAD SWAP1 PUSH2 0x100 EXP SWAP1 DIV PUSH20 0xFFFFFFFFFFFFFFFFFFFFFFFFFFFFFFFFFFFFFFFF AND PUSH20 0xFFFFFFFFFFFFFFFFFFFFFFFFFFFFFFFFFFFFFFFF AND EQ ISZERO DUP1 ISZERO PUSH2 0x384 JUMPI POP CALLER PUSH20 0xFFFFFFFFFFFFFFFFFFFFFFFFFFFFFFFFFFFFFFFF AND PUSH1 0x5 PUSH1 0x0 DUP4 PUSH16 0xFFFFFFFFFFFFFFFFFFFFFFFFFFFFFFFF AND PUSH16 0xFFFFFFFFFFFFFFFFFFFFFFFFFFFFFFFF AND DUP2 MSTORE PUSH1 0x20 ADD SWAP1 DUP2 MSTORE PUSH1 0x20 ADD PUSH1 0x0 KECCAK256 PUSH1 0x0 ADD PUSH1 0x0 SWAP1 SLOAD SWAP1 PUSH2 0x100 EXP SWAP1 DIV PUSH20 0xFFFFFFFFFFFFFFFFFFFFFFFFFFFFFFFFFFFFFFFF AND PUSH20 0xFFFFFFFFFFFFFFFFFFFFFFFFFFFFFFFFFFFFFFFF AND EQ ISZERO JUMPDEST ISZERO PUSH2 0x3CB JUMPI PUSH1 0x0 PUSH2 0x3CA JUMPI PUSH1 0x40 MLOAD PUSH32 0x8C379A000000000000000000000000000000000000000000000000000000000 DUP2 MSTORE PUSH1 0x4 ADD PUSH2 0x3C1 SWAP1 PUSH2 0x1AA5 JUMP JUMPDEST PUSH1 0x40 MLOAD DUP1 SWAP2 SUB SWAP1 REVERT JUMPDEST JUMPDEST PUSH1 0x0 PUSH1 0x5 PUSH1 0x0 DUP4 PUSH16 0xFFFFFFFFFFFFFFFFFFFFFFFFFFFFFFFF AND PUSH16 0xFFFFFFFFFFFFFFFFFFFFFFFFFFFFFFFF AND DUP2 MSTORE PUSH1 0x20 ADD SWAP1 DUP2 MSTORE PUSH1 0x20 ADD PUSH1 0x0 KECCAK256 PUSH1 0x2 ADD PUSH1 0x0 SWAP1 SLOAD SWAP1 PUSH2 0x100 EXP SWAP1 DIV PUSH20 0xFFFFFFFFFFFFFFFFFFFFFFFFFFFFFFFFFFFFFFFF AND SWAP1 POP PUSH1 0x0 PUSH1 0x5 PUSH1 0x0 DUP5 PUSH16 0xFFFFFFFFFFFFFFFFFFFFFFFFFFFFFFFF AND PUSH16 0xFFFFFFFFFFFFFFFFFFFFFFFFFFFFFFFF AND DUP2 MSTORE PUSH1 0x20 ADD SWAP1 DUP2 MSTORE PUSH1 0x20 ADD PUSH1 0x0 KECCAK256 PUSH1 0x1 ADD SLOAD SWAP1 POP PUSH1 0x0 DUP2 GT PUSH2 0x4AC JUMPI PUSH1 0x40 MLOAD PUSH32 0x8C379A000000000000000000000000000000000000000000000000000000000 DUP2 MSTORE PUSH1 0x4 ADD PUSH2 0x4A3 SWAP1 PUSH2 0x1B11 JUMP JUMPDEST PUSH1 0x40 MLOAD DUP1 SWAP2 SUB SWAP1 REVERT JUMPDEST DUP2 PUSH20 0xFFFFFFFFFFFFFFFFFFFFFFFFFFFFFFFFFFFFFFFF AND PUSH4 0xA9059CBB CALLER PUSH1 0x5 PUSH1 0x0 DUP8 PUSH16 0xFFFFFFFFFFFFFFFFFFFFFFFFFFFFFFFF AND PUSH16 0xFFFFFFFFFFFFFFFFFFFFFFFFFFFFFFFF AND DUP2 MSTORE PUSH1 0x20 ADD SWAP1 DUP2 MSTORE PUSH1 0x20 ADD PUSH1 0x0 KECCAK256 PUSH1 0x1 ADD SLOAD PUSH1 0x40 MLOAD DUP4 PUSH4 0xFFFFFFFF AND PUSH1 0xE0 SHL DUP2 MSTORE PUSH1 0x4 ADD PUSH2 0x521 SWAP3 SWAP2 SWAP1 PUSH2 0x1B31 JUMP JUMPDEST PUSH1 0x20 PUSH1 0x40 MLOAD DUP1 DUP4 SUB DUP2 PUSH1 0x0 DUP8 GAS CALL ISZERO DUP1 ISZERO PUSH2 0x540 JUMPI RETURNDATASIZE PUSH1 0x0 DUP1 RETURNDATACOPY RETURNDATASIZE PUSH1 0x0 REVERT JUMPDEST POP POP POP POP PUSH1 0x40 MLOAD RETURNDATASIZE PUSH1 0x1F NOT PUSH1 0x1F DUP3 ADD AND DUP3 ADD DUP1 PUSH1 0x40 MSTORE POP DUP2 ADD SWAP1 PUSH2 0x564 SWAP2 SWAP1 PUSH2 0x1B92 JUMP JUMPDEST PUSH2 0x56D JUMPI PUSH1 0x0 DUP1 REVERT JUMPDEST PUSH1 0x0 PUSH1 0x5 PUSH1 0x0 DUP6 PUSH16 0xFFFFFFFFFFFFFFFFFFFFFFFFFFFFFFFF AND PUSH16 0xFFFFFFFFFFFFFFFFFFFFFFFFFFFFFFFF AND DUP2 MSTORE PUSH1 0x20 ADD SWAP1 DUP2 MSTORE PUSH1 0x20 ADD PUSH1 0x0 KECCAK256 PUSH1 0x1 ADD DUP2 SWAP1 SSTORE POP CALLER PUSH20 0xFFFFFFFFFFFFFFFFFFFFFFFFFFFFFFFFFFFFFFFF AND PUSH32 0xD867CFADC420A62F8DDBFAF0EE08AF17BEF908FDEB647DE660511CEBE642486C DUP3 PUSH1 0x40 MLOAD PUSH2 0x5F3 SWAP2 SWAP1 PUSH2 0x191C JUMP JUMPDEST PUSH1 0x40 MLOAD DUP1 SWAP2 SUB SWAP1 LOG2 POP POP POP JUMP JUMPDEST PUSH1 0x0 ADDRESS SWAP1 POP SWAP1 JUMP JUMPDEST PUSH1 0x0 DUP1 PUSH1 0x0 DUP1 PUSH1 0x5 PUSH1 0x0 DUP7 PUSH16 0xFFFFFFFFFFFFFFFFFFFFFFFFFFFFFFFF AND PUSH16 0xFFFFFFFFFFFFFFFFFFFFFFFFFFFFFFFF AND DUP2 MSTORE PUSH1 0x20 ADD SWAP1 DUP2 MSTORE PUSH1 0x20 ADD PUSH1 0x0 KECCAK256 PUSH1 0x40 MLOAD DUP1 PUSH1 0x60 ADD PUSH1 0x40 MSTORE SWAP1 DUP2 PUSH1 0x0 DUP3 ADD PUSH1 0x0 SWAP1 SLOAD SWAP1 PUSH2 0x100 EXP SWAP1 DIV PUSH20 0xFFFFFFFFFFFFFFFFFFFFFFFFFFFFFFFFFFFFFFFF AND PUSH20 0xFFFFFFFFFFFFFFFFFFFFFFFFFFFFFFFFFFFFFFFF AND PUSH20 0xFFFFFFFFFFFFFFFFFFFFFFFFFFFFFFFFFFFFFFFF AND DUP2 MSTORE PUSH1 0x20 ADD PUSH1 0x1 DUP3 ADD SLOAD DUP2 MSTORE PUSH1 0x20 ADD PUSH1 0x2 DUP3 ADD PUSH1 0x0 SWAP1 SLOAD SWAP1 PUSH2 0x100 EXP SWAP1 DIV PUSH20 0xFFFFFFFFFFFFFFFFFFFFFFFFFFFFFFFFFFFFFFFF AND PUSH20 0xFFFFFFFFFFFFFFFFFFFFFFFFFFFFFFFFFFFFFFFF AND PUSH20 0xFFFFFFFFFFFFFFFFFFFFFFFFFFFFFFFFFFFFFFFF AND DUP2 MSTORE POP POP SWAP1 POP DUP1 PUSH1 0x0 ADD MLOAD DUP2 PUSH1 0x20 ADD MLOAD DUP3 PUSH1 0x40 ADD MLOAD SWAP4 POP SWAP4 POP SWAP4 POP POP SWAP2 SWAP4 SWAP1 SWAP3 POP JUMP JUMPDEST PUSH1 0x0 PUSH1 0x5 PUSH1 0x0 DUP4 PUSH16 0xFFFFFFFFFFFFFFFFFFFFFFFFFFFFFFFF AND PUSH16 0xFFFFFFFFFFFFFFFFFFFFFFFFFFFFFFFF AND DUP2 MSTORE PUSH1 0x20 ADD SWAP1 DUP2 MSTORE PUSH1 0x20 ADD PUSH1 0x0 KECCAK256 PUSH1 0x1 ADD SLOAD SWAP1 POP SWAP2 SWAP1 POP JUMP JUMPDEST PUSH1 0x0 PUSH20 0xFFFFFFFFFFFFFFFFFFFFFFFFFFFFFFFFFFFFFFFF AND PUSH1 0x5 PUSH1 0x0 DUP6 PUSH16 0xFFFFFFFFFFFFFFFFFFFFFFFFFFFFFFFF AND PUSH16 0xFFFFFFFFFFFFFFFFFFFFFFFFFFFFFFFF AND DUP2 MSTORE PUSH1 0x20 ADD SWAP1 DUP2 MSTORE PUSH1 0x20 ADD PUSH1 0x0 KECCAK256 PUSH1 0x0 ADD PUSH1 0x0 SWAP1 SLOAD SWAP1 PUSH2 0x100 EXP SWAP1 DIV PUSH20 0xFFFFFFFFFFFFFFFFFFFFFFFFFFFFFFFFFFFFFFFF AND PUSH20 0xFFFFFFFFFFFFFFFFFFFFFFFFFFFFFFFFFFFFFFFF AND EQ ISZERO DUP1 ISZERO PUSH2 0x886 JUMPI POP CALLER PUSH20 0xFFFFFFFFFFFFFFFFFFFFFFFFFFFFFFFFFFFFFFFF AND PUSH1 0x5 PUSH1 0x0 DUP6 PUSH16 0xFFFFFFFFFFFFFFFFFFFFFFFFFFFFFFFF AND PUSH16 0xFFFFFFFFFFFFFFFFFFFFFFFFFFFFFFFF AND DUP2 MSTORE PUSH1 0x20 ADD SWAP1 DUP2 MSTORE PUSH1 0x20 ADD PUSH1 0x0 KECCAK256 PUSH1 0x0 ADD PUSH1 0x0 SWAP1 SLOAD SWAP1 PUSH2 0x100 EXP SWAP1 DIV PUSH20 0xFFFFFFFFFFFFFFFFFFFFFFFFFFFFFFFFFFFFFFFF AND PUSH20 0xFFFFFFFFFFFFFFFFFFFFFFFFFFFFFFFFFFFFFFFF AND EQ ISZERO JUMPDEST ISZERO PUSH2 0x8CD JUMPI PUSH1 0x0 PUSH2 0x8CC JUMPI PUSH1 0x40 MLOAD PUSH32 0x8C379A000000000000000000000000000000000000000000000000000000000 DUP2 MSTORE PUSH1 0x4 ADD PUSH2 0x8C3 SWAP1 PUSH2 0x1AA5 JUMP JUMPDEST PUSH1 0x40 MLOAD DUP1 SWAP2 SUB SWAP1 REVERT JUMPDEST JUMPDEST CALLER PUSH1 0x5 PUSH1 0x0 DUP6 PUSH16 0xFFFFFFFFFFFFFFFFFFFFFFFFFFFFFFFF AND PUSH16 0xFFFFFFFFFFFFFFFFFFFFFFFFFFFFFFFF AND DUP2 MSTORE PUSH1 0x20 ADD SWAP1 DUP2 MSTORE PUSH1 0x20 ADD PUSH1 0x0 KECCAK256 PUSH1 0x0 ADD PUSH1 0x0 PUSH2 0x100 EXP DUP2 SLOAD DUP2 PUSH20 0xFFFFFFFFFFFFFFFFFFFFFFFFFFFFFFFFFFFFFFFF MUL NOT AND SWAP1 DUP4 PUSH20 0xFFFFFFFFFFFFFFFFFFFFFFFFFFFFFFFFFFFFFFFF AND MUL OR SWAP1 SSTORE POP PUSH1 0x0 DUP1 SLOAD SWAP1 PUSH2 0x100 EXP SWAP1 DIV PUSH20 0xFFFFFFFFFFFFFFFFFFFFFFFFFFFFFFFFFFFFFFFF AND PUSH20 0xFFFFFFFFFFFFFFFFFFFFFFFFFFFFFFFFFFFFFFFF AND DUP2 PUSH20 0xFFFFFFFFFFFFFFFFFFFFFFFFFFFFFFFFFFFFFFFF AND EQ ISZERO DUP1 ISZERO PUSH2 0x9F0 JUMPI POP PUSH1 0x1 PUSH1 0x0 SWAP1 SLOAD SWAP1 PUSH2 0x100 EXP SWAP1 DIV PUSH20 0xFFFFFFFFFFFFFFFFFFFFFFFFFFFFFFFFFFFFFFFF AND PUSH20 0xFFFFFFFFFFFFFFFFFFFFFFFFFFFFFFFFFFFFFFFF AND DUP2 PUSH20 0xFFFFFFFFFFFFFFFFFFFFFFFFFFFFFFFFFFFFFFFF AND EQ ISZERO JUMPDEST DUP1 ISZERO PUSH2 0xA4A JUMPI POP PUSH1 0x2 PUSH1 0x0 SWAP1 SLOAD SWAP1 PUSH2 0x100 EXP SWAP1 DIV PUSH20 0xFFFFFFFFFFFFFFFFFFFFFFFFFFFFFFFFFFFFFFFF AND PUSH20 0xFFFFFFFFFFFFFFFFFFFFFFFFFFFFFFFFFFFFFFFF AND DUP2 PUSH20 0xFFFFFFFFFFFFFFFFFFFFFFFFFFFFFFFFFFFFFFFF AND EQ ISZERO JUMPDEST DUP1 ISZERO PUSH2 0xAA4 JUMPI POP PUSH1 0x3 PUSH1 0x0 SWAP1 SLOAD SWAP1 PUSH2 0x100 EXP SWAP1 DIV PUSH20 0xFFFFFFFFFFFFFFFFFFFFFFFFFFFFFFFFFFFFFFFF AND PUSH20 0xFFFFFFFFFFFFFFFFFFFFFFFFFFFFFFFFFFFFFFFF AND DUP2 PUSH20 0xFFFFFFFFFFFFFFFFFFFFFFFFFFFFFFFFFFFFFFFF AND EQ ISZERO JUMPDEST ISZERO PUSH2 0xAEB JUMPI PUSH1 0x0 PUSH2 0xAEA JUMPI PUSH1 0x40 MLOAD PUSH32 0x8C379A000000000000000000000000000000000000000000000000000000000 DUP2 MSTORE PUSH1 0x4 ADD PUSH2 0xAE1 SWAP1 PUSH2 0x1C0B JUMP JUMPDEST PUSH1 0x40 MLOAD DUP1 SWAP2 SUB SWAP1 REVERT JUMPDEST JUMPDEST PUSH1 0x0 DUP2 SWAP1 POP PUSH1 0x0 DUP4 GT PUSH2 0xB33 JUMPI PUSH1 0x40 MLOAD PUSH32 0x8C379A000000000000000000000000000000000000000000000000000000000 DUP2 MSTORE PUSH1 0x4 ADD PUSH2 0xB2A SWAP1 PUSH2 0x1C77 JUMP JUMPDEST PUSH1 0x40 MLOAD DUP1 SWAP2 SUB SWAP1 REVERT JUMPDEST DUP3 DUP2 PUSH20 0xFFFFFFFFFFFFFFFFFFFFFFFFFFFFFFFFFFFFFFFF AND PUSH4 0xDD62ED3E CALLER ADDRESS PUSH1 0x40 MLOAD DUP4 PUSH4 0xFFFFFFFF AND PUSH1 0xE0 SHL DUP2 MSTORE PUSH1 0x4 ADD PUSH2 0xB6F SWAP3 SWAP2 SWAP1 PUSH2 0x1C97 JUMP JUMPDEST PUSH1 0x20 PUSH1 0x40 MLOAD DUP1 DUP4 SUB DUP2 PUSH1 0x0 DUP8 GAS CALL ISZERO DUP1 ISZERO PUSH2 0xB8E JUMPI RETURNDATASIZE PUSH1 0x0 DUP1 RETURNDATACOPY RETURNDATASIZE PUSH1 0x0 REVERT JUMPDEST POP POP POP POP PUSH1 0x40 MLOAD RETURNDATASIZE PUSH1 0x1F NOT PUSH1 0x1F DUP3 ADD AND DUP3 ADD DUP1 PUSH1 0x40 MSTORE POP DUP2 ADD SWAP1 PUSH2 0xBB2 SWAP2 SWAP1 PUSH2 0x1CD5 JUMP JUMPDEST LT ISZERO PUSH2 0xBF3 JUMPI PUSH1 0x40 MLOAD PUSH32 0x8C379A000000000000000000000000000000000000000000000000000000000 DUP2 MSTORE PUSH1 0x4 ADD PUSH2 0xBEA SWAP1 PUSH2 0x1D4E JUMP JUMPDEST PUSH1 0x40 MLOAD DUP1 SWAP2 SUB SWAP1 REVERT JUMPDEST DUP3 DUP2 PUSH20 0xFFFFFFFFFFFFFFFFFFFFFFFFFFFFFFFFFFFFFFFF AND PUSH4 0x70A08231 CALLER PUSH1 0x40 MLOAD DUP3 PUSH4 0xFFFFFFFF AND PUSH1 0xE0 SHL DUP2 MSTORE PUSH1 0x4 ADD PUSH2 0xC2D SWAP2 SWAP1 PUSH2 0x1901 JUMP JUMPDEST PUSH1 0x20 PUSH1 0x40 MLOAD DUP1 DUP4 SUB DUP2 DUP7 GAS STATICCALL ISZERO DUP1 ISZERO PUSH2 0xC4A JUMPI RETURNDATASIZE PUSH1 0x0 DUP1 RETURNDATACOPY RETURNDATASIZE PUSH1 0x0 REVERT JUMPDEST POP POP POP POP PUSH1 0x40 MLOAD RETURNDATASIZE PUSH1 0x1F NOT PUSH1 0x1F DUP3 ADD AND DUP3 ADD DUP1 PUSH1 0x40 MSTORE POP DUP2 ADD SWAP1 PUSH2 0xC6E SWAP2 SWAP1 PUSH2 0x1CD5 JUMP JUMPDEST LT ISZERO PUSH2 0xCAF JUMPI PUSH1 0x40 MLOAD PUSH32 0x8C379A000000000000000000000000000000000000000000000000000000000 DUP2 MSTORE PUSH1 0x4 ADD PUSH2 0xCA6 SWAP1 PUSH2 0x1DBA JUMP JUMPDEST PUSH1 0x40 MLOAD DUP1 SWAP2 SUB SWAP1 REVERT JUMPDEST DUP1 PUSH20 0xFFFFFFFFFFFFFFFFFFFFFFFFFFFFFFFFFFFFFFFF AND PUSH4 0x23B872DD CALLER ADDRESS DUP7 PUSH1 0x40 MLOAD DUP5 PUSH4 0xFFFFFFFF AND PUSH1 0xE0 SHL DUP2 MSTORE PUSH1 0x4 ADD PUSH2 0xCEC SWAP4 SWAP3 SWAP2 SWAP1 PUSH2 0x1DDA JUMP JUMPDEST PUSH1 0x20 PUSH1 0x40 MLOAD DUP1 DUP4 SUB DUP2 PUSH1 0x0 DUP8 GAS CALL ISZERO DUP1 ISZERO PUSH2 0xD0B JUMPI RETURNDATASIZE PUSH1 0x0 DUP1 RETURNDATACOPY RETURNDATASIZE PUSH1 0x0 REVERT JUMPDEST POP POP POP POP PUSH1 0x40 MLOAD RETURNDATASIZE PUSH1 0x1F NOT PUSH1 0x1F DUP3 ADD AND DUP3 ADD DUP1 PUSH1 0x40 MSTORE POP DUP2 ADD SWAP1 PUSH2 0xD2F SWAP2 SWAP1 PUSH2 0x1B92 JUMP JUMPDEST PUSH2 0xD6E JUMPI PUSH1 0x40 MLOAD PUSH32 0x8C379A000000000000000000000000000000000000000000000000000000000 DUP2 MSTORE PUSH1 0x4 ADD PUSH2 0xD65 SWAP1 PUSH2 0x1E5D JUMP JUMPDEST PUSH1 0x40 MLOAD DUP1 SWAP2 SUB SWAP1 REVERT JUMPDEST PUSH1 0x0 PUSH1 0x5 PUSH1 0x0 DUP7 PUSH16 0xFFFFFFFFFFFFFFFFFFFFFFFFFFFFFFFF AND PUSH16 0xFFFFFFFFFFFFFFFFFFFFFFFFFFFFFFFF AND DUP2 MSTORE PUSH1 0x20 ADD SWAP1 DUP2 MSTORE PUSH1 0x20 ADD PUSH1 0x0 KECCAK256 PUSH1 0x1 ADD SLOAD GT ISZERO PUSH2 0xE07 JUMPI DUP3 PUSH1 0x5 PUSH1 0x0 DUP7 PUSH16 0xFFFFFFFFFFFFFFFFFFFFFFFFFFFFFFFF AND PUSH16 0xFFFFFFFFFFFFFFFFFFFFFFFFFFFFFFFF AND DUP2 MSTORE PUSH1 0x20 ADD SWAP1 DUP2 MSTORE PUSH1 0x20 ADD PUSH1 0x0 KECCAK256 PUSH1 0x1 ADD PUSH1 0x0 DUP3 DUP3 SLOAD PUSH2 0xDFB SWAP2 SWAP1 PUSH2 0x1EAC JUMP JUMPDEST SWAP3 POP POP DUP2 SWAP1 SSTORE POP PUSH2 0xF21 JUMP JUMPDEST PUSH1 0x40 MLOAD DUP1 PUSH1 0x60 ADD PUSH1 0x40 MSTORE DUP1 CALLER PUSH20 0xFFFFFFFFFFFFFFFFFFFFFFFFFFFFFFFFFFFFFFFF AND DUP2 MSTORE PUSH1 0x20 ADD DUP5 DUP2 MSTORE PUSH1 0x20 ADD DUP4 PUSH20 0xFFFFFFFFFFFFFFFFFFFFFFFFFFFFFFFFFFFFFFFF AND DUP2 MSTORE POP PUSH1 0x5 PUSH1 0x0 DUP7 PUSH16 0xFFFFFFFFFFFFFFFFFFFFFFFFFFFFFFFF AND PUSH16 0xFFFFFFFFFFFFFFFFFFFFFFFFFFFFFFFF AND DUP2 MSTORE PUSH1 0x20 ADD SWAP1 DUP2 MSTORE PUSH1 0x20 ADD PUSH1 0x0 KECCAK256 PUSH1 0x0 DUP3 ADD MLOAD DUP2 PUSH1 0x0 ADD PUSH1 0x0 PUSH2 0x100 EXP DUP2 SLOAD DUP2 PUSH20 0xFFFFFFFFFFFFFFFFFFFFFFFFFFFFFFFFFFFFFFFF MUL NOT AND SWAP1 DUP4 PUSH20 0xFFFFFFFFFFFFFFFFFFFFFFFFFFFFFFFFFFFFFFFF AND MUL OR SWAP1 SSTORE POP PUSH1 0x20 DUP3 ADD MLOAD DUP2 PUSH1 0x1 ADD SSTORE PUSH1 0x40 DUP3 ADD MLOAD DUP2 PUSH1 0x2 ADD PUSH1 0x0 PUSH2 0x100 EXP DUP2 SLOAD DUP2 PUSH20 0xFFFFFFFFFFFFFFFFFFFFFFFFFFFFFFFFFFFFFFFF MUL NOT AND SWAP1 DUP4 PUSH20 0xFFFFFFFFFFFFFFFFFFFFFFFFFFFFFFFFFFFFFFFF AND MUL OR SWAP1 SSTORE POP SWAP1 POP POP JUMPDEST CALLER PUSH20 0xFFFFFFFFFFFFFFFFFFFFFFFFFFFFFFFFFFFFFFFF AND DUP5 PUSH16 0xFFFFFFFFFFFFFFFFFFFFFFFFFFFFFFFF AND PUSH32 0x5F3E3838DEF5ECA817D313E878B11EBF555F617746E3D247F1632DED5F39118B DUP6 PUSH1 0x40 MLOAD PUSH2 0xF7A SWAP2 SWAP1 PUSH2 0x191C JUMP JUMPDEST PUSH1 0x40 MLOAD DUP1 SWAP2 SUB SWAP1 LOG3 POP POP POP POP JUMP JUMPDEST PUSH1 0x0 PUSH20 0xFFFFFFFFFFFFFFFFFFFFFFFFFFFFFFFFFFFFFFFF AND PUSH1 0x5 PUSH1 0x0 DUP5 PUSH16 0xFFFFFFFFFFFFFFFFFFFFFFFFFFFFFFFF AND PUSH16 0xFFFFFFFFFFFFFFFFFFFFFFFFFFFFFFFF AND DUP2 MSTORE PUSH1 0x20 ADD SWAP1 DUP2 MSTORE PUSH1 0x20 ADD PUSH1 0x0 KECCAK256 PUSH1 0x0 ADD PUSH1 0x0 SWAP1 SLOAD SWAP1 PUSH2 0x100 EXP SWAP1 DIV PUSH20 0xFFFFFFFFFFFFFFFFFFFFFFFFFFFFFFFFFFFFFFFF AND PUSH20 0xFFFFFFFFFFFFFFFFFFFFFFFFFFFFFFFFFFFFFFFF AND EQ ISZERO DUP1 ISZERO PUSH2 0x10A5 JUMPI POP CALLER PUSH20 0xFFFFFFFFFFFFFFFFFFFFFFFFFFFFFFFFFFFFFFFF AND PUSH1 0x5 PUSH1 0x0 DUP5 PUSH16 0xFFFFFFFFFFFFFFFFFFFFFFFFFFFFFFFF AND PUSH16 0xFFFFFFFFFFFFFFFFFFFFFFFFFFFFFFFF AND DUP2 MSTORE PUSH1 0x20 ADD SWAP1 DUP2 MSTORE PUSH1 0x20 ADD PUSH1 0x0 KECCAK256 PUSH1 0x0 ADD PUSH1 0x0 SWAP1 SLOAD SWAP1 PUSH2 0x100 EXP SWAP1 DIV PUSH20 0xFFFFFFFFFFFFFFFFFFFFFFFFFFFFFFFFFFFFFFFF AND PUSH20 0xFFFFFFFFFFFFFFFFFFFFFFFFFFFFFFFFFFFFFFFF AND EQ ISZERO JUMPDEST ISZERO PUSH2 0x10EC JUMPI PUSH1 0x0 PUSH2 0x10EB JUMPI PUSH1 0x40 MLOAD PUSH32 0x8C379A000000000000000000000000000000000000000000000000000000000 DUP2 MSTORE PUSH1 0x4 ADD PUSH2 0x10E2 SWAP1 PUSH2 0x1AA5 JUMP JUMPDEST PUSH1 0x40 MLOAD DUP1 SWAP2 SUB SWAP1 REVERT JUMPDEST JUMPDEST PUSH1 0x0 PUSH1 0x5 PUSH1 0x0 DUP5 PUSH16 0xFFFFFFFFFFFFFFFFFFFFFFFFFFFFFFFF AND PUSH16 0xFFFFFFFFFFFFFFFFFFFFFFFFFFFFFFFF AND DUP2 MSTORE PUSH1 0x20 ADD SWAP1 DUP2 MSTORE PUSH1 0x20 ADD PUSH1 0x0 KECCAK256 PUSH1 0x2 ADD PUSH1 0x0 SWAP1 SLOAD SWAP1 PUSH2 0x100 EXP SWAP1 DIV PUSH20 0xFFFFFFFFFFFFFFFFFFFFFFFFFFFFFFFFFFFFFFFF AND SWAP1 POP PUSH1 0x0 DUP3 GT PUSH2 0x118E JUMPI PUSH1 0x40 MLOAD PUSH32 0x8C379A000000000000000000000000000000000000000000000000000000000 DUP2 MSTORE PUSH1 0x4 ADD PUSH2 0x1185 SWAP1 PUSH2 0x1B11 JUMP JUMPDEST PUSH1 0x40 MLOAD DUP1 SWAP2 SUB SWAP1 REVERT JUMPDEST DUP2 PUSH1 0x5 PUSH1 0x0 DUP6 PUSH16 0xFFFFFFFFFFFFFFFFFFFFFFFFFFFFFFFF AND PUSH16 0xFFFFFFFFFFFFFFFFFFFFFFFFFFFFFFFF AND DUP2 MSTORE PUSH1 0x20 ADD SWAP1 DUP2 MSTORE PUSH1 0x20 ADD PUSH1 0x0 KECCAK256 PUSH1 0x1 ADD SLOAD LT ISZERO PUSH2 0x120B JUMPI PUSH1 0x40 MLOAD PUSH32 0x8C379A000000000000000000000000000000000000000000000000000000000 DUP2 MSTORE PUSH1 0x4 ADD PUSH2 0x1202 SWAP1 PUSH2 0x1DBA JUMP JUMPDEST PUSH1 0x40 MLOAD DUP1 SWAP2 SUB SWAP1 REVERT JUMPDEST DUP1 PUSH20 0xFFFFFFFFFFFFFFFFFFFFFFFFFFFFFFFFFFFFFFFF AND PUSH4 0xA9059CBB CALLER DUP5 PUSH1 0x40 MLOAD DUP4 PUSH4 0xFFFFFFFF AND PUSH1 0xE0 SHL DUP2 MSTORE PUSH1 0x4 ADD PUSH2 0x1246 SWAP3 SWAP2 SWAP1 PUSH2 0x1B31 JUMP JUMPDEST PUSH1 0x20 PUSH1 0x40 MLOAD DUP1 DUP4 SUB DUP2 PUSH1 0x0 DUP8 GAS CALL ISZERO DUP1 ISZERO PUSH2 0x1265 JUMPI RETURNDATASIZE PUSH1 0x0 DUP1 RETURNDATACOPY RETURNDATASIZE PUSH1 0x0 REVERT JUMPDEST POP POP POP POP PUSH1 0x40 MLOAD RETURNDATASIZE PUSH1 0x1F NOT PUSH1 0x1F DUP3 ADD AND DUP3 ADD DUP1 PUSH1 0x40 MSTORE POP DUP2 ADD SWAP1 PUSH2 0x1289 SWAP2 SWAP1 PUSH2 0x1B92 JUMP JUMPDEST PUSH2 0x12C8 JUMPI PUSH1 0x40 MLOAD PUSH32 0x8C379A000000000000000000000000000000000000000000000000000000000 DUP2 MSTORE PUSH1 0x4 ADD PUSH2 0x12BF SWAP1 PUSH2 0x1F2C JUMP JUMPDEST PUSH1 0x40 MLOAD DUP1 SWAP2 SUB SWAP1 REVERT JUMPDEST DUP2 PUSH1 0x5 PUSH1 0x0 DUP6 PUSH16 0xFFFFFFFFFFFFFFFFFFFFFFFFFFFFFFFF AND PUSH16 0xFFFFFFFFFFFFFFFFFFFFFFFFFFFFFFFF AND DUP2 MSTORE PUSH1 0x20 ADD SWAP1 DUP2 MSTORE PUSH1 0x20 ADD PUSH1 0x0 KECCAK256 PUSH1 0x1 ADD PUSH1 0x0 DUP3 DUP3 SLOAD PUSH2 0x1312 SWAP2 SWAP1 PUSH2 0x1F4C JUMP JUMPDEST SWAP3 POP POP DUP2 SWAP1 SSTORE POP CALLER PUSH20 0xFFFFFFFFFFFFFFFFFFFFFFFFFFFFFFFFFFFFFFFF AND PUSH32 0xD867CFADC420A62F8DDBFAF0EE08AF17BEF908FDEB647DE660511CEBE642486C DUP4 PUSH1 0x40 MLOAD PUSH2 0x135F SWAP2 SWAP1 PUSH2 0x191C JUMP JUMPDEST PUSH1 0x40 MLOAD DUP1 SWAP2 SUB SWAP1 LOG2 POP POP POP JUMP JUMPDEST PUSH1 0x0 PUSH20 0xFFFFFFFFFFFFFFFFFFFFFFFFFFFFFFFFFFFFFFFF AND PUSH1 0x5 PUSH1 0x0 DUP5 PUSH16 0xFFFFFFFFFFFFFFFFFFFFFFFFFFFFFFFF AND PUSH16 0xFFFFFFFFFFFFFFFFFFFFFFFFFFFFFFFF AND DUP2 MSTORE PUSH1 0x20 ADD SWAP1 DUP2 MSTORE PUSH1 0x20 ADD PUSH1 0x0 KECCAK256 PUSH1 0x0 ADD PUSH1 0x0 SWAP1 SLOAD SWAP1 PUSH2 0x100 EXP SWAP1 DIV PUSH20 0xFFFFFFFFFFFFFFFFFFFFFFFFFFFFFFFFFFFFFFFF AND PUSH20 0xFFFFFFFFFFFFFFFFFFFFFFFFFFFFFFFFFFFFFFFF AND EQ ISZERO DUP1 ISZERO PUSH2 0x1489 JUMPI POP CALLER PUSH20 0xFFFFFFFFFFFFFFFFFFFFFFFFFFFFFFFFFFFFFFFF AND PUSH1 0x5 PUSH1 0x0 DUP5 PUSH16 0xFFFFFFFFFFFFFFFFFFFFFFFFFFFFFFFF AND PUSH16 0xFFFFFFFFFFFFFFFFFFFFFFFFFFFFFFFF AND DUP2 MSTORE PUSH1 0x20 ADD SWAP1 DUP2 MSTORE PUSH1 0x20 ADD PUSH1 0x0 KECCAK256 PUSH1 0x0 ADD PUSH1 0x0 SWAP1 SLOAD SWAP1 PUSH2 0x100 EXP SWAP1 DIV PUSH20 0xFFFFFFFFFFFFFFFFFFFFFFFFFFFFFFFFFFFFFFFF AND PUSH20 0xFFFFFFFFFFFFFFFFFFFFFFFFFFFFFFFFFFFFFFFF AND EQ ISZERO JUMPDEST ISZERO PUSH2 0x14D0 JUMPI PUSH1 0x0 PUSH2 0x14CF JUMPI PUSH1 0x40 MLOAD PUSH32 0x8C379A000000000000000000000000000000000000000000000000000000000 DUP2 MSTORE PUSH1 0x4 ADD PUSH2 0x14C6 SWAP1 PUSH2 0x1FF2 JUMP JUMPDEST PUSH1 0x40 MLOAD DUP1 SWAP2 SUB SWAP1 REVERT JUMPDEST JUMPDEST PUSH1 0x0 PUSH1 0x5 PUSH1 0x0 DUP5 PUSH16 0xFFFFFFFFFFFFFFFFFFFFFFFFFFFFFFFF AND PUSH16 0xFFFFFFFFFFFFFFFFFFFFFFFFFFFFFFFF AND DUP2 MSTORE PUSH1 0x20 ADD SWAP1 DUP2 MSTORE PUSH1 0x20 ADD PUSH1 0x0 KECCAK256 PUSH1 0x1 ADD SLOAD SUB PUSH2 0x1554 JUMPI PUSH1 0x0 PUSH2 0x1553 JUMPI PUSH1 0x40 MLOAD PUSH32 0x8C379A000000000000000000000000000000000000000000000000000000000 DUP2 MSTORE PUSH1 0x4 ADD PUSH2 0x154A SWAP1 PUSH2 0x1DBA JUMP JUMPDEST PUSH1 0x40 MLOAD DUP1 SWAP2 SUB SWAP1 REVERT JUMPDEST JUMPDEST PUSH1 0x0 PUSH1 0x5 PUSH1 0x0 DUP5 PUSH16 0xFFFFFFFFFFFFFFFFFFFFFFFFFFFFFFFF AND PUSH16 0xFFFFFFFFFFFFFFFFFFFFFFFFFFFFFFFF AND DUP2 MSTORE PUSH1 0x20 ADD SWAP1 DUP2 MSTORE PUSH1 0x20 ADD PUSH1 0x0 KECCAK256 PUSH1 0x2 ADD PUSH1 0x0 SWAP1 SLOAD SWAP1 PUSH2 0x100 EXP SWAP1 DIV PUSH20 0xFFFFFFFFFFFFFFFFFFFFFFFFFFFFFFFFFFFFFFFF AND SWAP1 POP PUSH1 0x0 DUP3 GT PUSH2 0x15F6 JUMPI PUSH1 0x40 MLOAD PUSH32 0x8C379A000000000000000000000000000000000000000000000000000000000 DUP2 MSTORE PUSH1 0x4 ADD PUSH2 0x15ED SWAP1 PUSH2 0x1C77 JUMP JUMPDEST PUSH1 0x40 MLOAD DUP1 SWAP2 SUB SWAP1 REVERT JUMPDEST PUSH1 0x5 PUSH1 0x0 DUP5 PUSH16 0xFFFFFFFFFFFFFFFFFFFFFFFFFFFFFFFF AND PUSH16 0xFFFFFFFFFFFFFFFFFFFFFFFFFFFFFFFF AND DUP2 MSTORE PUSH1 0x20 ADD SWAP1 DUP2 MSTORE PUSH1 0x20 ADD PUSH1 0x0 KECCAK256 PUSH1 0x1 ADD SLOAD DUP3 GT ISZERO PUSH2 0x1673 JUMPI PUSH1 0x40 MLOAD PUSH32 0x8C379A000000000000000000000000000000000000000000000000000000000 DUP2 MSTORE PUSH1 0x4 ADD PUSH2 0x166A SWAP1 PUSH2 0x1DBA JUMP JUMPDEST PUSH1 0x40 MLOAD DUP1 SWAP2 SUB SWAP1 REVERT JUMPDEST DUP2 PUSH1 0x5 PUSH1 0x0 DUP6 PUSH16 0xFFFFFFFFFFFFFFFFFFFFFFFFFFFFFFFF AND PUSH16 0xFFFFFFFFFFFFFFFFFFFFFFFFFFFFFFFF AND DUP2 MSTORE PUSH1 0x20 ADD SWAP1 DUP2 MSTORE PUSH1 0x20 ADD PUSH1 0x0 KECCAK256 PUSH1 0x1 ADD PUSH1 0x0 DUP3 DUP3 SLOAD PUSH2 0x16BD SWAP2 SWAP1 PUSH2 0x1F4C JUMP JUMPDEST SWAP3 POP POP DUP2 SWAP1 SSTORE POP DUP1 PUSH20 0xFFFFFFFFFFFFFFFFFFFFFFFFFFFFFFFFFFFFFFFF AND PUSH4 0xA9059CBB PUSH1 0x4 PUSH1 0x0 SWAP1 SLOAD SWAP1 PUSH2 0x100 EXP SWAP1 DIV PUSH20 0xFFFFFFFFFFFFFFFFFFFFFFFFFFFFFFFFFFFFFFFF AND DUP5 PUSH1 0x40 MLOAD DUP4 PUSH4 0xFFFFFFFF AND PUSH1 0xE0 SHL DUP2 MSTORE PUSH1 0x4 ADD PUSH2 0x1721 SWAP3 SWAP2 SWAP1 PUSH2 0x1B31 JUMP JUMPDEST PUSH1 0x20 PUSH1 0x40 MLOAD DUP1 DUP4 SUB DUP2 PUSH1 0x0 DUP8 GAS CALL ISZERO DUP1 ISZERO PUSH2 0x1740 JUMPI RETURNDATASIZE PUSH1 0x0 DUP1 RETURNDATACOPY RETURNDATASIZE PUSH1 0x0 REVERT JUMPDEST POP POP POP POP PUSH1 0x40 MLOAD RETURNDATASIZE PUSH1 0x1F NOT PUSH1 0x1F DUP3 ADD AND DUP3 ADD DUP1 PUSH1 0x40 MSTORE POP DUP2 ADD SWAP1 PUSH2 0x1764 SWAP2 SWAP1 PUSH2 0x1B92 JUMP JUMPDEST PUSH2 0x17A3 JUMPI PUSH1 0x40 MLOAD PUSH32 0x8C379A000000000000000000000000000000000000000000000000000000000 DUP2 MSTORE PUSH1 0x4 ADD PUSH2 0x179A SWAP1 PUSH2 0x1F2C JUMP JUMPDEST PUSH1 0x40 MLOAD DUP1 SWAP2 SUB SWAP1 REVERT JUMPDEST CALLER PUSH20 0xFFFFFFFFFFFFFFFFFFFFFFFFFFFFFFFFFFFFFFFF AND PUSH32 0x69A94B75BA75E6544FE27FA49B471E1F3146C9A7C6BB2FA0B8A6D2BC1DC94693 DUP4 PUSH1 0x40 MLOAD PUSH2 0x17E9 SWAP2 SWAP1 PUSH2 0x191C JUMP JUMPDEST PUSH1 0x40 MLOAD DUP1 SWAP2 SUB SWAP1 LOG2 POP POP POP JUMP JUMPDEST PUSH1 0x0 DUP1 REVERT JUMPDEST PUSH1 0x0 PUSH16 0xFFFFFFFFFFFFFFFFFFFFFFFFFFFFFFFF DUP3 AND SWAP1 POP SWAP2 SWAP1 POP JUMP JUMPDEST PUSH2 0x1820 DUP2 PUSH2 0x17FB JUMP JUMPDEST DUP2 EQ PUSH2 0x182B JUMPI PUSH1 0x0 DUP1 REVERT JUMPDEST POP JUMP JUMPDEST PUSH1 0x0 DUP2 CALLDATALOAD SWAP1 POP PUSH2 0x183D DUP2 PUSH2 0x1817 JUMP JUMPDEST SWAP3 SWAP2 POP POP JUMP JUMPDEST PUSH1 0x0 PUSH1 0x20 DUP3 DUP5 SUB SLT ISZERO PUSH2 0x1859 JUMPI PUSH2 0x1858 PUSH2 0x17F6 JUMP JUMPDEST JUMPDEST PUSH1 0x0 PUSH2 0x1867 DUP5 DUP3 DUP6 ADD PUSH2 0x182E JUMP JUMPDEST SWAP2 POP POP SWAP3 SWAP2 POP POP JUMP JUMPDEST PUSH1 0x0 PUSH20 0xFFFFFFFFFFFFFFFFFFFFFFFFFFFFFFFFFFFFFFFF DUP3 AND SWAP1 POP SWAP2 SWAP1 POP JUMP JUMPDEST PUSH1 0x0 PUSH2 0x189B DUP3 PUSH2 0x1870 JUMP JUMPDEST SWAP1 POP SWAP2 SWAP1 POP JUMP JUMPDEST PUSH2 0x18AB DUP2 PUSH2 0x1890 JUMP JUMPDEST DUP3 MSTORE POP POP JUMP JUMPDEST PUSH1 0x0 DUP2 SWAP1 POP SWAP2 SWAP1 POP JUMP JUMPDEST PUSH2 0x18C4 DUP2 PUSH2 0x18B1 JUMP JUMPDEST DUP3 MSTORE POP POP JUMP JUMPDEST PUSH1 0x0 PUSH1 0x60 DUP3 ADD SWAP1 POP PUSH2 0x18DF PUSH1 0x0 DUP4 ADD DUP7 PUSH2 0x18A2 JUMP JUMPDEST PUSH2 0x18EC PUSH1 0x20 DUP4 ADD DUP6 PUSH2 0x18BB JUMP JUMPDEST PUSH2 0x18F9 PUSH1 0x40 DUP4 ADD DUP5 PUSH2 0x18A2 JUMP JUMPDEST SWAP5 SWAP4 POP POP POP POP JUMP JUMPDEST PUSH1 0x0 PUSH1 0x20 DUP3 ADD SWAP1 POP PUSH2 0x1916 PUSH1 0x0 DUP4 ADD DUP5 PUSH2 0x18A2 JUMP JUMPDEST SWAP3 SWAP2 POP POP JUMP JUMPDEST PUSH1 0x0 PUSH1 0x20 DUP3 ADD SWAP1 POP PUSH2 0x1931 PUSH1 0x0 DUP4 ADD DUP5 PUSH2 0x18BB JUMP JUMPDEST SWAP3 SWAP2 POP POP JUMP JUMPDEST PUSH2 0x1940 DUP2 PUSH2 0x18B1 JUMP JUMPDEST DUP2 EQ PUSH2 0x194B JUMPI PUSH1 0x0 DUP1 REVERT JUMPDEST POP JUMP JUMPDEST PUSH1 0x0 DUP2 CALLDATALOAD SWAP1 POP PUSH2 0x195D DUP2 PUSH2 0x1937 JUMP JUMPDEST SWAP3 SWAP2 POP POP JUMP JUMPDEST PUSH2 0x196C DUP2 PUSH2 0x1890 JUMP JUMPDEST DUP2 EQ PUSH2 0x1977 JUMPI PUSH1 0x0 DUP1 REVERT JUMPDEST POP JUMP JUMPDEST PUSH1 0x0 DUP2 CALLDATALOAD SWAP1 POP PUSH2 0x1989 DUP2 PUSH2 0x1963 JUMP JUMPDEST SWAP3 SWAP2 POP POP JUMP JUMPDEST PUSH1 0x0 DUP1 PUSH1 0x0 PUSH1 0x60 DUP5 DUP7 SUB SLT ISZERO PUSH2 0x19A8 JUMPI PUSH2 0x19A7 PUSH2 0x17F6 JUMP JUMPDEST JUMPDEST PUSH1 0x0 PUSH2 0x19B6 DUP7 DUP3 DUP8 ADD PUSH2 0x182E JUMP JUMPDEST SWAP4 POP POP PUSH1 0x20 PUSH2 0x19C7 DUP7 DUP3 DUP8 ADD PUSH2 0x194E JUMP JUMPDEST SWAP3 POP POP PUSH1 0x40 PUSH2 0x19D8 DUP7 DUP3 DUP8 ADD PUSH2 0x197A JUMP JUMPDEST SWAP2 POP POP SWAP3 POP SWAP3 POP SWAP3 JUMP JUMPDEST PUSH1 0x0 DUP1 PUSH1 0x40 DUP4 DUP6 SUB SLT ISZERO PUSH2 0x19F9 JUMPI PUSH2 0x19F8 PUSH2 0x17F6 JUMP JUMPDEST JUMPDEST PUSH1 0x0 PUSH2 0x1A07 DUP6 DUP3 DUP7 ADD PUSH2 0x182E JUMP JUMPDEST SWAP3 POP POP PUSH1 0x20 PUSH2 0x1A18 DUP6 DUP3 DUP7 ADD PUSH2 0x194E JUMP JUMPDEST SWAP2 POP POP SWAP3 POP SWAP3 SWAP1 POP JUMP JUMPDEST PUSH1 0x0 DUP3 DUP3 MSTORE PUSH1 0x20 DUP3 ADD SWAP1 POP SWAP3 SWAP2 POP POP JUMP JUMPDEST PUSH32 0x596F7520617265206E6F7420616C6C6F77656420746F20757365207468697320 PUSH1 0x0 DUP3 ADD MSTORE PUSH32 0x6A6F626964000000000000000000000000000000000000000000000000000000 PUSH1 0x20 DUP3 ADD MSTORE POP JUMP JUMPDEST PUSH1 0x0 PUSH2 0x1A8F PUSH1 0x25 DUP4 PUSH2 0x1A22 JUMP JUMPDEST SWAP2 POP PUSH2 0x1A9A DUP3 PUSH2 0x1A33 JUMP JUMPDEST PUSH1 0x40 DUP3 ADD SWAP1 POP SWAP2 SWAP1 POP JUMP JUMPDEST PUSH1 0x0 PUSH1 0x20 DUP3 ADD SWAP1 POP DUP2 DUP2 SUB PUSH1 0x0 DUP4 ADD MSTORE PUSH2 0x1ABE DUP2 PUSH2 0x1A82 JUMP JUMPDEST SWAP1 POP SWAP2 SWAP1 POP JUMP JUMPDEST PUSH32 0x4E6F2062616C616E636520746F20776974686472617700000000000000000000 PUSH1 0x0 DUP3 ADD MSTORE POP JUMP JUMPDEST PUSH1 0x0 PUSH2 0x1AFB PUSH1 0x16 DUP4 PUSH2 0x1A22 JUMP JUMPDEST SWAP2 POP PUSH2 0x1B06 DUP3 PUSH2 0x1AC5 JUMP JUMPDEST PUSH1 0x20 DUP3 ADD SWAP1 POP SWAP2 SWAP1 POP JUMP JUMPDEST PUSH1 0x0 PUSH1 0x20 DUP3 ADD SWAP1 POP DUP2 DUP2 SUB PUSH1 0x0 DUP4 ADD MSTORE PUSH2 0x1B2A DUP2 PUSH2 0x1AEE JUMP JUMPDEST SWAP1 POP SWAP2 SWAP1 POP JUMP JUMPDEST PUSH1 0x0 PUSH1 0x40 DUP3 ADD SWAP1 POP PUSH2 0x1B46 PUSH1 0x0 DUP4 ADD DUP6 PUSH2 0x18A2 JUMP JUMPDEST PUSH2 0x1B53 PUSH1 0x20 DUP4 ADD DUP5 PUSH2 0x18BB JUMP JUMPDEST SWAP4 SWAP3 POP POP POP JUMP JUMPDEST PUSH1 0x0 DUP2 ISZERO ISZERO SWAP1 POP SWAP2 SWAP1 POP JUMP JUMPDEST PUSH2 0x1B6F DUP2 PUSH2 0x1B5A JUMP JUMPDEST DUP2 EQ PUSH2 0x1B7A JUMPI PUSH1 0x0 DUP1 REVERT JUMPDEST POP JUMP JUMPDEST PUSH1 0x0 DUP2 MLOAD SWAP1 POP PUSH2 0x1B8C DUP2 PUSH2 0x1B66 JUMP JUMPDEST SWAP3 SWAP2 POP POP JUMP JUMPDEST PUSH1 0x0 PUSH1 0x20 DUP3 DUP5 SUB SLT ISZERO PUSH2 0x1BA8 JUMPI PUSH2 0x1BA7 PUSH2 0x17F6 JUMP JUMPDEST JUMPDEST PUSH1 0x0 PUSH2 0x1BB6 DUP5 DUP3 DUP6 ADD PUSH2 0x1B7D JUMP JUMPDEST SWAP2 POP POP SWAP3 SWAP2 POP POP JUMP JUMPDEST PUSH32 0x496E76616C696420746F6B656E20616464726573730000000000000000000000 PUSH1 0x0 DUP3 ADD MSTORE POP JUMP JUMPDEST PUSH1 0x0 PUSH2 0x1BF5 PUSH1 0x15 DUP4 PUSH2 0x1A22 JUMP JUMPDEST SWAP2 POP PUSH2 0x1C00 DUP3 PUSH2 0x1BBF JUMP JUMPDEST PUSH1 0x20 DUP3 ADD SWAP1 POP SWAP2 SWAP1 POP JUMP JUMPDEST PUSH1 0x0 PUSH1 0x20 DUP3 ADD SWAP1 POP DUP2 DUP2 SUB PUSH1 0x0 DUP4 ADD MSTORE PUSH2 0x1C24 DUP2 PUSH2 0x1BE8 JUMP JUMPDEST SWAP1 POP SWAP2 SWAP1 POP JUMP JUMPDEST PUSH32 0x416D6F756E742073686F756C642062652067726561746572207468616E203000 PUSH1 0x0 DUP3 ADD MSTORE POP JUMP JUMPDEST PUSH1 0x0 PUSH2 0x1C61 PUSH1 0x1F DUP4 PUSH2 0x1A22 JUMP JUMPDEST SWAP2 POP PUSH2 0x1C6C DUP3 PUSH2 0x1C2B JUMP JUMPDEST PUSH1 0x20 DUP3 ADD SWAP1 POP SWAP2 SWAP1 POP JUMP JUMPDEST PUSH1 0x0 PUSH1 0x20 DUP3 ADD SWAP1 POP DUP2 DUP2 SUB PUSH1 0x0 DUP4 ADD MSTORE PUSH2 0x1C90 DUP2 PUSH2 0x1C54 JUMP JUMPDEST SWAP1 POP SWAP2 SWAP1 POP JUMP JUMPDEST PUSH1 0x0 PUSH1 0x40 DUP3 ADD SWAP1 POP PUSH2 0x1CAC PUSH1 0x0 DUP4 ADD DUP6 PUSH2 0x18A2 JUMP JUMPDEST PUSH2 0x1CB9 PUSH1 0x20 DUP4 ADD DUP5 PUSH2 0x18A2 JUMP JUMPDEST SWAP4 SWAP3 POP POP POP JUMP JUMPDEST PUSH1 0x0 DUP2 MLOAD SWAP1 POP PUSH2 0x1CCF DUP2 PUSH2 0x1937 JUMP JUMPDEST SWAP3 SWAP2 POP POP JUMP JUMPDEST PUSH1 0x0 PUSH1 0x20 DUP3 DUP5 SUB SLT ISZERO PUSH2 0x1CEB JUMPI PUSH2 0x1CEA PUSH2 0x17F6 JUMP JUMPDEST JUMPDEST PUSH1 0x0 PUSH2 0x1CF9 DUP5 DUP3 DUP6 ADD PUSH2 0x1CC0 JUMP JUMPDEST SWAP2 POP POP SWAP3 SWAP2 POP POP JUMP JUMPDEST PUSH32 0x496E73756666696369656E7420416C6C6F77656E636500000000000000000000 PUSH1 0x0 DUP3 ADD MSTORE POP JUMP JUMPDEST PUSH1 0x0 PUSH2 0x1D38 PUSH1 0x16 DUP4 PUSH2 0x1A22 JUMP JUMPDEST SWAP2 POP PUSH2 0x1D43 DUP3 PUSH2 0x1D02 JUMP JUMPDEST PUSH1 0x20 DUP3 ADD SWAP1 POP SWAP2 SWAP1 POP JUMP JUMPDEST PUSH1 0x0 PUSH1 0x20 DUP3 ADD SWAP1 POP DUP2 DUP2 SUB PUSH1 0x0 DUP4 ADD MSTORE PUSH2 0x1D67 DUP2 PUSH2 0x1D2B JUMP JUMPDEST SWAP1 POP SWAP2 SWAP1 POP JUMP JUMPDEST PUSH32 0x496E73756666696369656E742062616C616E6365000000000000000000000000 PUSH1 0x0 DUP3 ADD MSTORE POP JUMP JUMPDEST PUSH1 0x0 PUSH2 0x1DA4 PUSH1 0x14 DUP4 PUSH2 0x1A22 JUMP JUMPDEST SWAP2 POP PUSH2 0x1DAF DUP3 PUSH2 0x1D6E JUMP JUMPDEST PUSH1 0x20 DUP3 ADD SWAP1 POP SWAP2 SWAP1 POP JUMP JUMPDEST PUSH1 0x0 PUSH1 0x20 DUP3 ADD SWAP1 POP DUP2 DUP2 SUB PUSH1 0x0 DUP4 ADD MSTORE PUSH2 0x1DD3 DUP2 PUSH2 0x1D97 JUMP JUMPDEST SWAP1 POP SWAP2 SWAP1 POP JUMP JUMPDEST PUSH1 0x0 PUSH1 0x60 DUP3 ADD SWAP1 POP PUSH2 0x1DEF PUSH1 0x0 DUP4 ADD DUP7 PUSH2 0x18A2 JUMP JUMPDEST PUSH2 0x1DFC PUSH1 0x20 DUP4 ADD DUP6 PUSH2 0x18A2 JUMP JUMPDEST PUSH2 0x1E09 PUSH1 0x40 DUP4 ADD DUP5 PUSH2 0x18BB JUMP JUMPDEST SWAP5 SWAP4 POP POP POP POP JUMP JUMPDEST PUSH32 0x5472616E73666572206661696C65640000000000000000000000000000000000 PUSH1 0x0 DUP3 ADD MSTORE POP JUMP JUMPDEST PUSH1 0x0 PUSH2 0x1E47 PUSH1 0xF DUP4 PUSH2 0x1A22 JUMP JUMPDEST SWAP2 POP PUSH2 0x1E52 DUP3 PUSH2 0x1E11 JUMP JUMPDEST PUSH1 0x20 DUP3 ADD SWAP1 POP SWAP2 SWAP1 POP JUMP JUMPDEST PUSH1 0x0 PUSH1 0x20 DUP3 ADD SWAP1 POP DUP2 DUP2 SUB PUSH1 0x0 DUP4 ADD MSTORE PUSH2 0x1E76 DUP2 PUSH2 0x1E3A JUMP JUMPDEST SWAP1 POP SWAP2 SWAP1 POP JUMP JUMPDEST PUSH32 0x4E487B7100000000000000000000000000000000000000000000000000000000 PUSH1 0x0 MSTORE PUSH1 0x11 PUSH1 0x4 MSTORE PUSH1 0x24 PUSH1 0x0 REVERT JUMPDEST PUSH1 0x0 PUSH2 0x1EB7 DUP3 PUSH2 0x18B1 JUMP JUMPDEST SWAP2 POP PUSH2 0x1EC2 DUP4 PUSH2 0x18B1 JUMP JUMPDEST SWAP3 POP DUP3 DUP3 ADD SWAP1 POP DUP1 DUP3 GT ISZERO PUSH2 0x1EDA JUMPI PUSH2 0x1ED9 PUSH2 0x1E7D JUMP JUMPDEST JUMPDEST SWAP3 SWAP2 POP POP JUMP JUMPDEST PUSH32 0x4661696C656420746F207472616E736665720000000000000000000000000000 PUSH1 0x0 DUP3 ADD MSTORE POP JUMP JUMPDEST PUSH1 0x0 PUSH2 0x1F16 PUSH1 0x12 DUP4 PUSH2 0x1A22 JUMP JUMPDEST SWAP2 POP PUSH2 0x1F21 DUP3 PUSH2 0x1EE0 JUMP JUMPDEST PUSH1 0x20 DUP3 ADD SWAP1 POP SWAP2 SWAP1 POP JUMP JUMPDEST PUSH1 0x0 PUSH1 0x20 DUP3 ADD SWAP1 POP DUP2 DUP2 SUB PUSH1 0x0 DUP4 ADD MSTORE PUSH2 0x1F45 DUP2 PUSH2 0x1F09 JUMP JUMPDEST SWAP1 POP SWAP2 SWAP1 POP JUMP JUMPDEST PUSH1 0x0 PUSH2 0x1F57 DUP3 PUSH2 0x18B1 JUMP JUMPDEST SWAP2 POP PUSH2 0x1F62 DUP4 PUSH2 0x18B1 JUMP JUMPDEST SWAP3 POP DUP3 DUP3 SUB SWAP1 POP DUP2 DUP2 GT ISZERO PUSH2 0x1F7A JUMPI PUSH2 0x1F79 PUSH2 0x1E7D JUMP JUMPDEST JUMPDEST SWAP3 SWAP2 POP POP JUMP JUMPDEST PUSH32 0x596F7520617265206E6F7420616C6C6F77656420746F20706179207468652066 PUSH1 0x0 DUP3 ADD MSTORE PUSH32 0x6565730000000000000000000000000000000000000000000000000000000000 PUSH1 0x20 DUP3 ADD MSTORE POP JUMP JUMPDEST PUSH1 0x0 PUSH2 0x1FDC PUSH1 0x23 DUP4 PUSH2 0x1A22 JUMP JUMPDEST SWAP2 POP PUSH2 0x1FE7 DUP3 PUSH2 0x1F80 JUMP JUMPDEST PUSH1 0x40 DUP3 ADD SWAP1 POP SWAP2 SWAP1 POP JUMP JUMPDEST PUSH1 0x0 PUSH1 0x20 DUP3 ADD SWAP1 POP DUP2 DUP2 SUB PUSH1 0x0 DUP4 ADD MSTORE PUSH2 0x200B DUP2 PUSH2 0x1FCF JUMP JUMPDEST SWAP1 POP SWAP2 SWAP1 POP JUMP INVALID LOG2 PUSH5 0x6970667358 0x22 SLT KECCAK256 SWAP8 JUMPI 0xB7 0xC 0x25 BLOCKHASH 0xCB 0xB2 SHR 0x2D MULMOD 0xA5 ISZERO PUSH14 0xEF1E2154BFE81EAD79E876D1AC8 0x1F DUP10 0x4F CODESIZE PUSH5 0x736F6C6343 STOP ADDMOD SGT STOP CALLER "
				},
				"gasEstimates": {
					"creation": {
						"codeDepositCost": "1652800",
						"executionCost": "123071",
						"totalCost": "1775871"
					},
					"external": {
						"checkBalance(uint128)": "2804",
						"createJob(uint128,uint256,address)": "infinite",
						"getJob(uint128)": "infinite",
						"jobs(uint128)": "infinite",
						"myAddress()": "430",
						"sendTheFees(uint128,uint256)": "infinite",
						"withdrawAllFunds(uint128)": "infinite",
						"withdrawFunds(uint128,uint256)": "infinite"
					}
				},
				"methodIdentifiers": {
					"checkBalance(uint128)": "48897093",
					"createJob(uint128,uint256,address)": "add930b5",
					"getJob(uint128)": "27738061",
					"jobs(uint128)": "014df73b",
					"myAddress()": "26b85ee1",
					"sendTheFees(uint128,uint256)": "de23b93c",
					"withdrawAllFunds(uint128)": "1fcae771",
					"withdrawFunds(uint128,uint256)": "d85fbdf4"
				}
			},
			"storageLayout": {
				"storage": [
					{
						"astId": 50,
						"contract": "contracts/goodhiveContractForJob.sol:GoodhiveJobContract",
						"label": "usdctoken",
						"offset": 0,
						"slot": "0",
						"type": "t_address"
					},
					{
						"astId": 53,
						"contract": "contracts/goodhiveContractForJob.sol:GoodhiveJobContract",
						"label": "daitoken",
						"offset": 0,
						"slot": "1",
						"type": "t_address"
					},
					{
						"astId": 56,
						"contract": "contracts/goodhiveContractForJob.sol:GoodhiveJobContract",
						"label": "ageur",
						"offset": 0,
						"slot": "2",
						"type": "t_address"
					},
					{
						"astId": 59,
						"contract": "contracts/goodhiveContractForJob.sol:GoodhiveJobContract",
						"label": "eurotoken",
						"offset": 0,
						"slot": "3",
						"type": "t_address"
					},
					{
						"astId": 62,
						"contract": "contracts/goodhiveContractForJob.sol:GoodhiveJobContract",
						"label": "owner",
						"offset": 0,
						"slot": "4",
						"type": "t_address"
					},
					{
						"astId": 74,
						"contract": "contracts/goodhiveContractForJob.sol:GoodhiveJobContract",
						"label": "jobs",
						"offset": 0,
						"slot": "5",
						"type": "t_mapping(t_uint128,t_struct(Job)69_storage)"
					}
				],
				"types": {
					"t_address": {
						"encoding": "inplace",
						"label": "address",
						"numberOfBytes": "20"
					},
					"t_mapping(t_uint128,t_struct(Job)69_storage)": {
						"encoding": "mapping",
						"key": "t_uint128",
						"label": "mapping(uint128 => struct GoodhiveJobContract.Job)",
						"numberOfBytes": "32",
						"value": "t_struct(Job)69_storage"
					},
					"t_struct(Job)69_storage": {
						"encoding": "inplace",
						"label": "struct GoodhiveJobContract.Job",
						"members": [
							{
								"astId": 64,
								"contract": "contracts/goodhiveContractForJob.sol:GoodhiveJobContract",
								"label": "user",
								"offset": 0,
								"slot": "0",
								"type": "t_address"
							},
							{
								"astId": 66,
								"contract": "contracts/goodhiveContractForJob.sol:GoodhiveJobContract",
								"label": "amount",
								"offset": 0,
								"slot": "1",
								"type": "t_uint256"
							},
							{
								"astId": 68,
								"contract": "contracts/goodhiveContractForJob.sol:GoodhiveJobContract",
								"label": "token",
								"offset": 0,
								"slot": "2",
								"type": "t_address"
							}
						],
						"numberOfBytes": "96"
					},
					"t_uint128": {
						"encoding": "inplace",
						"label": "uint128",
						"numberOfBytes": "16"
					},
					"t_uint256": {
						"encoding": "inplace",
						"label": "uint256",
						"numberOfBytes": "32"
					}
				}
			},
			"userdoc": {
				"kind": "user",
				"methods": {},
				"version": 1
			}
		}
	}
}